:020000040800F2
:100000009816002029020008E12200085514000873
:10001000DD2200083F0700086D3B000800000000DB
:10002000000000000000000000000000792400082B
:10003000F90A0008000000005D230008FD2B0008FD
:10004000430200084302000843020008430200087C
:10005000430200084302000843020008A50B000801
:100060004D0C0008F10C0008690D0008430200085F
:10007000430200084302000843020008430200084C
:10008000430200084302000843020008430200083C
:10009000430200084302000843020008110E000852
:1000A000430200084302000843020008430200081C
:1000B000430200082D3700084302000843020008ED
:1000C00043020008430200084302000843020008FC
:1000D00043020008430200084302000843020008EC
:1000E000FD0A00084302000843020008430200081A
:1000F00043020008430200084302000843020008CC
:1001000043020008430200084302000843020008BB
:1001100043020008430200084302000843020008AB
:10012000430200084302000843020008430200089B
:10013000430200084302000843020008430200088B
:10014000430200084302000843020008430200087B
:10015000430200084302000843020008430200086B
:10016000430200084302000843020008430200085B
:10017000430200084302000843020008430200084B
:10018000430200084302000800F002F800F03CF8C7
:100190000AA090E8000C82448344AAF10107DA45E2
:1001A00001D100F031F8AFF2090EBAE80F0013F0F8
:1001B000010F18BFFB1A43F0010318475452000007
:1001C00074520000103A24BF78C878C1FAD8520798
:1001D00024BF30C830C144BF04680C6070470000C1
:1001E0000023002400250026103A28BF78C1FBD840
:1001F000520728BF30C148BF0B6070471FB503F0DE
:10020000F5FF1FBD10B510BD00F063F81146FFF7F4
:10021000F5FF03F04FFF00F081F803B4FFF7F2FFA2
:1002200003BC00F089F800000948804709480047EE
:10023000FEE7FEE7FEE7FEE7FEE7FEE7FEE7FEE796
:10024000FEE7FEE704480549054A064B70470000F3
:10025000012C000889010008981000209816002041
:10026000981200209812002010B5203AC0F00B80A0
:10027000B1E81850203AA0E81850B1E81850A0E8AA
:100280001850BFF4F5AF5FEA027C24BFB1E8185004
:10029000A0E8185044BF18C918C0BDE810405FEA74
:1002A000827C24BF51F8043B40F8043B08BF7047F0
:1002B000D20728BF31F8023B48BF11F8012B28BFF5
:1002C00020F8023B48BF00F8012B70477047704789
:1002D0007047754600F02CF8AE4605006946534657
:1002E00020F00700854618B020B5FFF7ABFFBDE84A
:1002F00020404FF000064FF000074FF000084FF08D
:10030000000B21F00701AC46ACE8C009ACE8C0091D
:10031000ACE8C009ACE8C0098D46704710B504468A
:10032000AFF300802046BDE81040FFF776BF000025
:10033000004870473810002001491820ABBEFEE786
:10034000260002007047000010B5094800780949EE
:10035000097888420AD00A2003F044FE0548007854
:10036000034908700348007802F0A8F810BD0000A7
:1003700010000020000000201CB50121202002F008
:100380001DF83020009001208DF8040000208DF829
:10039000060003208DF8050001208DF8070069464E
:1003A000044800F0E5FD0120034908600349C1F855
:1003B00094021CBD001402409082424200804242DE
:1003C0000021124A11601249096821F44061104A63
:1003D00011601146096841F48061116000210D4AE5
:1003E000C2F89412002001E0411CC8B21428FBDBC3
:1003F0000121064A1160002001E0411CC8B2142806
:10040000FBDB0021014A11607047000090824242EC
:1004100000140240008042420021104A116010493D
:10042000096821F440610E4A11601146096841F4DF
:1004300080611160002001E0411CC8B21428FBDB80
:100440000121064A1160002001E0411CC8B21428B5
:10045000FBDB0021014A116070470000908242429C
:10046000001402401249096821F44061104A1160E9
:100470001146096841F48061116001210D4A116043
:100480000D4AC2F89012002001E0411CC8B2322887
:10049000FBDB0021074A1160002001E0411CC8B2CB
:1004A0003228FBDB0021034A121F11607047000055
:1004B000001402409482424200804242124909687C
:1004C00021F44061104A11601146096841F48061CD
:1004D000116000210D4A11600D4AC2F890120020EF
:1004E00001E0411CC8B23228FBDB0121074A121F80
:1004F0001160074AC2F89412002001E0411CC8B202
:100500003228FBDB70470000001402409482424214
:100510000080424210B5002400231748006820F4F0
:1005200040601549086008460068086001201349CA
:10053000086000BF01E0581CC3B2142BFBDB012094
:100540000E49091F0860002301E0581CC3B2142B98
:10055000FBDB07E0601CC4B2FA2C03DDFFF7AEFF43
:10056000012010BD0548803800680028F2D10349F9
:10057000091F086000BFF4E7001402409482424261
:1005800010B5FFF7F9FE10BD30B50446FFF76AFF5E
:10059000A02000F04FF8FFF7BDFF204600F04AF81A
:1005A000FFF7B8FFFFF75EFFA12000F043F8FFF769
:1005B000B1FF002000F006F80546FFF77FFF284650
:1005C00030BD000070B505461748006820F4406053
:1005D0001549086008460068086000261AE00020F7
:1005E00012490860002301E0581CC3B2142BFBDB46
:1005F00001200E4908606006040E0D48D0F8140270
:100600002044C4B2002301E0581CC3B2142BFBDB0E
:10061000701CC6B2082EE2DB15B1FFF7D1FE01E077
:10062000FFF7FAFE204670BD00140240908242425D
:100630000080424210B50146194B1B6823F4406309
:10064000174C236023461B6843F480632360002318
:10065000144C236000221FE0CB09124C241D2360A0
:100660004B06190E002001E0431CD8B21428FBDB16
:1006700001230C4C2360002001E0431CD8B2142855
:10068000FBDB0023074C2360002001E0431CD8B2B1
:100690001428FBDB531CDAB2082ADDDB10BD000096
:1006A000001402409082424270B506460C46FFF7A5
:1006B000D9FEA020FFF7BEFFFFF72CFF3046FFF763
:1006C000B9FFFFF727FF2046FFF7B4FFFFF722FF30
:1006D000FFF7F4FE002500E06D1C02488542FBD3C5
:1006E00070BD000040420F00F0B504460D461646AE
:1006F0001F462A2002F0D6FFC4F3072002F0C6FFEF
:10070000E0B202F0C3FFC6F3072002F0BFFFF0B271
:1007100002F0BCFF2B2002F0C5FFC5F3072002F05A
:10072000B5FFE8B202F0B2FFC7F3072002F0AEFF58
:10073000F8B202F0ABFF2C2002F0B4FFF0BD00BF16
:10074000FEE7000039B1084A1268012383401A43CA
:10075000054B1A6006E0044A1268012383409A435D
:10076000014B1A60704700000074004041B1094A13
:1007700012684FF4805383401A43064B1A6007E017
:10078000044A12684FF4805383409A43014B1A6025
:10079000704700000074004000B593B00121480587
:1007A00001F00CFE0121480701F018FE24200F90F3
:1007B00000201090022012900FA9002000F09EF857
:1007C0001A4800F0C1F84FF060600090184801909E
:1007D000184802904FF47A7004904FF4006007902C
:1007E000089040200390002005904FF48060069010
:1007F0008010099040020A9000200B9001200C907C
:1008000000200D900E906946084800F049F901213A
:10081000064800F08DF801210020FFF793FF012129
:100820000020FFF7A3FF13B000BD00008860024066
:10083000087400403800002000B593B0012148053D
:1008400001F0BCFD0121480701F0C8FD14200F9004
:1008500000201090022012900FA9102000F04EF8F6
:10086000224800F071F84FF060600090204801903D
:10087000204802904FF47A7004904FF40060079083
:10088000089040200390002005904FF4806006906F
:100890008010099040020A9000200B9001200C90DB
:1008A00000200D900E906946104800F0F9F81248AB
:1008B000007801280CD101210C4800F039F8012101
:1008C0001020FFF73FFF01211020FFF74FFF0BE043
:1008D0000021064800F02CF800211020FFF732FF1D
:1008E00000211020FFF742FF13B000BDA0600240BE
:1008F00014740040380800202200002030B5002287
:1009000000230A4C226840F6FE748440A243D1E9D9
:1009100000452C438D682C43CD6844EA050303FA57
:1009200000F42243014C226030BD000000740040FE
:1009300021B1026842F00102026003E0026822F085
:100940000102026070470000016821F001010160AE
:100950000021016041608160C1600161212141612C
:100960004A49884204D13D21484A103A91608CE0BE
:1009700046491831884205D14FF47461434A103A10
:10098000916082E041493031884205D14FF47411C1
:100990003E4A103A916078E03C494831884205D19E
:1009A0004FF07461394A103A91606EE03749603116
:1009B000884204D13649354A103AD16065E033495E
:1009C0007831884204D13349304A103AD1605CE032
:1009D0002E499031884204D12F492C4A103AD160D7
:1009E00053E02A49A831884205D14FF03D51274AAA
:1009F000103AD16049E02949884204D13D21274A73
:100A0000083A116041E025491831884205D14FF478
:100A10007461224A083A116037E020493031884237
:100A200005D14FF474111D4A083A11602DE01B499D
:100A30004831884205D14FF07461184A083A116074
:100A400023E016496031884204D11149134A121F2C
:100A500011601AE011497831884204D10D490F4ADA
:100A6000121F116011E00D499031884204D10A49EA
:100A70000A4A121F116008E00849A831884204D1CF
:100A80004FF03D51054A121F11607047106002403F
:100A90003D000020400F002000003D201064024077
:100AA00010B500220268134B1A40CC680B68234330
:100AB0004C6923438C692343CC6923430C6A234349
:100AC0004C6A23438C6A23434C6B23438C6B234334
:100AD0001A430260426922F00702D1E90B34234332
:100AE0001A4342610B6943604B6883608B68C36043
:100AF00010BD00003F801CF07047000070B500255D
:100B000025480068012842D1C00200F0DBF9002826
:100B10003DD02148001D006801280FD11F480088E2
:100B2000B0F5167F04DB4FF416701C49088012E004
:100B30001A480088401C194908800CE017480088B2
:100B4000012803DC01201549088004E013480088CF
:100B5000401E1249088011480488E01704EB106019
:100B6000C0F307210520FFF79FFD0C480488E0171C
:100B700004EB10600012A4EB0020C1B20620FFF7C6
:100B800093FD064801880648008801F039F94FF4C2
:100B9000006000F091F970BD2C024042040000207A
:100BA0000600002070B5002524480068012841D1C6
:100BB000022000F087F900283CD021480068012875
:100BC0000FD120480088B0F5FA7F04DB4FF4FA70AB
:100BD0001C49088012E01B4800880A301949088027
:100BE0000CE018480088002803DC00201549088024
:100BF00004E0144800880A38124908801148048823
:100C0000E01704EB1060C0F307210320FFF74CFD51
:100C10000C480488E01704EB10600012A4EB0020DD
:100C2000C1B20420FFF740FD07480188054800884D
:100C300001F0E6F8022000F03FF970BD0482424264
:100C400010024242060000200400002070B500257A
:100C500024480068012841D1042000F033F900281D
:100C60003CD02148006801280DD120480088C828C0
:100C700003DBC8201D49088012E01C4800880A30A8
:100C80001A4908800CE019480088282803DC28202D
:100C90001649088004E0154800880A38134908807E
:100CA00012480488E01704EB1060C0F3072101200C
:100CB000FFF7FAFC0D480488E01704EB10600012FF
:100CC000A4EB0020C1B20220FFF7EEFC0748008829
:100CD00000F0AAFF0548008802F0E9FB042000F0BC
:100CE000EBF870BD088242420C0242420200002032
:100CF00010B500241948006801282BD11848006855
:100D000001280DD117480078FF2803DBFF20154983
:100D1000087012E013480078401C124908700CE07B
:100D200010480078002803DC00200E49087004E019
:100D30000C480078401E0B4908700A4801780020D2
:100D4000FFF7B2FC0748007800F062FE0548007823
:100D500002F060F9082000F0AFF810BD0C824242AA
:100D6000080242420000002070B5002525480068B6
:100D7000012842D1102000F0A5F800283DD02148DC
:100D8000001D006801280FD11F480088B0F5167FAC
:100D900004DB4FF416701C49088012E01A480088E2
:100DA000401C194908800CE017480088012803DC22
:100DB00001201549088004E013480088401E1249AC
:100DC000088011480488E01704EB1060C0F3072185
:100DD0000920FFF769FC0C480488E01704EB106059
:100DE0000012A4EB0020C1B20A20FFF75DFC064808
:100DF00001880648008801F0E5F8102000F05CF852
:100E000070BD000010024342080000200A000020CC
:100E100070B5002525480068012842D1000200F085
:100E200051F800283DD02148001D006801280FD14D
:100E30001F480088B0F5FA7F04DB4FF4FA701C49B4
:100E4000088012E01A4800880A30194908800CE02E
:100E500017480088002803DC00201549088004E0BA
:100E6000134800880A381249088011480488E0179E
:100E700004EB1060C0F307210720FFF715FC0C48B6
:100E80000488E01704EB10600012A4EB0020C1B24C
:100E90000820FFF709FC074801880548008801F091
:100EA00091F84FF4807000F007F870BD20024142C5
:100EB0000A00002008000020014908607047000077
:100EC000143C014001460020034A12680A400AB15E
:100ED000012000E000207047143C0140002123491C
:100EE0008279002A3AD00A46126803689A430B4670
:100EF0001A600A1D126803689A430B1D1A60027972
:100F000011440A6803681A430A60184A08321268D2
:100F100003689A43154B08331A601A1D1268036858
:100F20009A43124B0C331A604279102A0ED11A1FC1
:100F3000126803681A430D4B08331A601A1D1268B1
:100F400003681A43094B0C331A600DE007494279D4
:100F500011440A6803681A430A6005E002791144E3
:100F60000A6803689A430A6070470000003C014029
:100F7000F0B50A4600210023002400BF3DE0012512
:100F800005FA01F3156805EA03049C4234D10568AB
:100F90004F000326BE40B543056015794E00B540AD
:100FA0000668354305601579012D02D01579022DAB
:100FB00016D185684F000326BE40B543856055793C
:100FC0004E00B540866835438560456801268E40F1
:100FD000B5434560456896798E40B6B23543456065
:100FE000C5684F000326BE40B543C560D5794E00A5
:100FF000B540C6683543C560491C1029BFD3F0BD54
:10100000F0B5002300244D07ED0E02FA05F3CE10D3
:1010100000F1200555F826504E07F70E0F26BE406A
:10102000B543CF1000F1200646F82750CE1000F14E
:10103000200555F8265045EA0304CE1000F120059E
:1010400045F82640F0BD418370470183704700009A
:1010500000B585B00121402001F0B0F903200390D4
:1010600001208DF8100000208DF8120003208DF86B
:10107000110001208DF8130003A9F048FFF778FF55
:101080000121102001F09AF94FF4C0700390012063
:101090008DF8100000208DF8120003208DF811004B
:1010A00001208DF8130003A9E548FFF761FF012136
:1010B000082001F083F91C20039000208DF8100017
:1010C00003208DF8110002208DF8130003A9DD48DC
:1010D000FFF74EFF0121042001F070F9C0200390BA
:1010E00001208DF8100000208DF8120003208DF8EB
:1010F000110001208DF8130003A9D348FFF738FF32
:101100000121082001F05AF94FF4404003900120DA
:101110008DF8100000208DF8120003208DF81100CA
:1011200001208DF8130003A9C648FFF721FF012114
:10113000402001F043F9CC20039001208DF81000ED
:1011400000208DF8120003208DF8110001208DF889
:10115000130003A9B948FFF70BFF4FF48060039019
:1011600001208DF8100000208DF8120003208DF86A
:10117000110001208DF8130003A9B048FFF7F8FE15
:101180004FF48061AD48FFF760FF0121402001F07E
:1011900015F94FF40060039000208DF81000032033
:1011A0008DF8110001208DF8130003A9A348FFF763
:1011B000DFFE0121082001F001F94FF4E050039017
:1011C00001208DF8100000208DF8120003208DF80A
:1011D000110001208DF8130003A99A48FFF7C8FEFB
:1011E0004FF4E0519748FFF72EFF0121084601F028
:1011F000E5F84FF4C050039000208DF81000032054
:101200008DF8110002208DF8130003A98F48FFF715
:10121000AFFE0121042001F0D1F84FF4407003909B
:1012200000208DF8100003208DF8110002208DF8A9
:10123000130003A98448FFF79BFE0121102001F051
:10124000BDF81C20039000208DF8100003208DF8BD
:10125000110002208DF8130003A97948FFF788FEDA
:101260000121202001F0AAF80E20039000208DF823
:10127000100003208DF8110002208DF8130003A93F
:101280007348FFF775FE0121402001F097F83020E8
:10129000039000208DF8100003208DF8110002202B
:1012A0008DF8130003A96548FFF762FE012188034A
:1012B00001F0A4F80B21002001F0E0F80821022041
:1012C00001F0DCF80121052001F0D8F80221052009
:1012D00001F0D4F80321052001F0D0F80421062004
:1012E00001F0CCF80220019000208DF808000820C1
:1012F0008DF8090001208DF80A0001A8FFF7EEFD26
:1013000007208DF8000002208DF801008DF8020002
:1013100001208DF80300684600F0E4FF04200190EE
:1013200000208DF8080008208DF8090001208DF8B4
:101330000A0001A8FFF7D2FD08208DF80000022066
:101340008DF801008DF8020001208DF80300684639
:1013500000F0C8FF0820019000208DF80800082048
:101360008DF8090001208DF80A0001A8FFF7B6FDED
:1013700009208DF8000002208DF801008DF8020090
:1013800001208DF80300684600F0ACFF10200190AA
:1013900000208DF8080008208DF8090001208DF844
:1013A0000A0001A8FFF79AFD0A208DF8000002202C
:1013B0008DF801008DF8020001208DF803006846C9
:1013C00000F090FF4FF48070019000208DF808002D
:1013D00008208DF8090001208DF80A0001A8FFF708
:1013E0007DFD17208DF8000002208DF801008DF89A
:1013F000020001208DF80300684600F073FF4FF4EF
:101400000060019000208DF8080008208DF8090088
:1014100001208DF80A0001A8FFF760FD28208DF853
:10142000000002208DF801008DF8020001208DF8E7
:101430000300684600F056FF05B000BD00180240EA
:1014400000100240000C0240000802400000024070
:101450000014024000BFFEE710B5194800680128DB
:1014600002D11849087002E0002016490870164899
:10147000007814490978884221D01248007812492E
:1014800008700846007801280AD10D49A03108608B
:10149000642002F0A7FD01200C49C1F8AC0206E06F
:1014A00000200749A03108600849C1F8AC0206488D
:1014B000007801F0B1FF0448007800F047FB10BD50
:1014C000088241420C0000202000002000804142A0
:1014D00010B514480068012802D11349087002E0D1
:1014E000002011490870114800780F490978884296
:1014F00017D00D4800780D4908700846007801287B
:1015000003D10849A431086003E000200549A43153
:1015100008600648007802F02DF80448007800F0D2
:1015200023FC10BD0C8241420D0000202100002050
:1015300010B51E480068012802D11D49087002E05C
:1015400000201B4908701B48007819490978884217
:101550002AD01748007817490870084600780128F3
:101560000BD101211448FFF7E3F901211020FFF707
:10157000E9F801211020FFF7F9F80E48007858B972
:1015800000210D48FFF7D4F900211020FFF7DAF809
:1015900000211020FFF7EAF80648007800F022FB4F
:1015A0000448007801F071FF10BD00001082414234
:1015B0000E00002022000020A06002402DE9F04F24
:1015C00091B005260527B046B146B246B346052080
:1015D00010900F90A3A103C9CDE90D01A3A103C9E8
:1015E000CDE90B01A3A103C9CDE90901A3A103C959
:1015F000CDE90701A3A000680690A3A103C9CDE926
:101600000401A3A103C9CDE90201A3A103C9CDE946
:101610000001002518E0062101FB0561C8B2002188
:1016200000F0E2F900240BE00DA9495D01EB410156
:101630009B4A02EB4101085D00F00CFE601CC4B245
:10164000062CF1DB681CC5B2062DE4DB002518E092
:10165000062101FB0571C8B2012100F0C5F9002483
:101660000BE00BA9495D01EB41018D4A02EB410101
:10167000085D00F0EFFD601CC4B2062CF1DB681CB5
:10168000C5B2062DE4DB002518E0062101FB05812B
:10169000C8B2022100F0A8F900240BE009A9495DB5
:1016A00001EB41017E4A02EB4101085D00F0D2FDF1
:1016B000601CC4B2062CF1DB681CC5B2062DE4DB4D
:1016C000002518E0062101FB0591C8B2032100F0B6
:1016D0008BF900240BE007A9495D01EB4101704A39
:1016E00002EB4101085D00F0B5FD601CC4B2062CA0
:1016F000F1DB681CC5B2062DE4DB002519E00622EB
:101700000F9902FB0511C8B2042100F06DF9002405
:101710000BE006A9495D01EB4101614A02EB410181
:10172000085D00F097FD601CC4B2062CF1DB681C5C
:10173000C5B2042DE3DB002518E0062101FB05A15D
:10174000C8B2052100F050F900240BE004A9495D5E
:1017500001EB4101524A02EB4101085D00F07AFDC4
:10176000601CC4B2062CF1DB681CC5B2062DE4DB9C
:10177000002518E0062101FB05B1C8B2062100F0E2
:1017800033F900240BE002A9495D01EB4101444A11
:1017900002EB4101085D00F05DFD601CC4B2062C47
:1017A000F1DB681CC5B2052DE4DB002519E006223B
:1017B000109902FB0511C8B2072100F015F90024A9
:1017C0000BE01DF8051001EB4101354A02EB410128
:1017D000085D00F03FFD601CC4B2062CF1DB681C04
:1017E000C5B2082DE3DB02212A2000F0FDF8002419
:1017F00006E02B49C631085D00F02CFD601CC4B228
:10180000062CF6DB03212A2000F0EEF8002406E087
:101810002349C631085D00F01DFD601CC4B2062CD2
:10182000F6DB02214B2000F0DFF8002406E01C4923
:10183000E431085D00F00EFD601CC4B2062CF6DB3E
:1018400003214B2000F0D0F8002406E01449E431D5
:10185000085D00F0FFFC601CC4B2062CF6DB11B082
:10186000BDE8F08F21242E554D1A000030554C5301
:10187000451A000033494E45111A000033494E45C0
:10188000121A00003245441A2C415345521A0000E6
:101890002D4F44451A0000003741524E494E471A19
:1018A000F641000870B50646002415E004F1B001C9
:1018B000C8B200F08BFC012000F088FC102000F082
:1018C00085FC002504E0304600F0C4FC681CC5B26D
:1018D000802DF8DB601CC4B2082CE7DB70BD000073
:1018E00010B54FF480713E48FFF7AFFB02213D4831
:1018F000FFF7A9FB322002F075FB02213948FFF700
:10190000A4FB002000F0F9FE0A2002F06BFB80200F
:1019100000F0E1FE0A2002F065FB3F2000F002FF2C
:101920000A2002F05FFB002000F0DEFE0A2002F039
:1019300059FB002000F036FE0A2002F053FB042081
:1019400000F0AEFE0A2002F04DFB022000F018FE6F
:101950000A2002F047FB012000F0F6FE0A2002F008
:1019600041FB082000F0B0FE0A2002F03BFB1020F3
:1019700000F0A0FE0A2002F035FBCF2000F009FEA7
:101980000A2002F02FFBF12000F0D5FE0A2002F021
:1019900029FB402000F0DFFE0A2002F023FB00209C
:1019A00000F0B2FE0A2002F01DFB002000F0B3FEA2
:1019B0000A2002F017FB012000F09FFE0A2002F02F
:1019C00011FB0020FFF76EFF0A2002F00BFB002145
:1019D000084600F009F80A2002F004FB10BD0000E0
:1019E000001002400018024070B504460D4605F193
:1019F000B001C8B200F0EAFB102141EA141000F077
:101A0000E5FB04F00F0141F0010000F0DFFB70BDC9
:101A10002DE9F04106462A27072526E007F12A018D
:101A2000062202FB1511C8B20021FFF7DDFF0120DD
:101A3000A840304050B1002405E04349085D00F063
:101A400009FC601CC4B2062CF7DB0AE0002406E0A7
:101A50003D49891F085D00F0FDFB601CC4B2062CE7
:101A6000F6DB05B903E0681EC5B2002DD6DA00BF6B
:101A700000215F20FFF7B8FF642096FBF0F0C5B2AD
:101A8000632E11DD00240CE005F1100101EB410192
:101A90002D4A663A02EB4101085D00F0DBFB601C59
:101AA000C4B2062CF0DB08E0002404E0002000F0C3
:101AB000D1FB601CC4B2062CF8DB00216520FFF7C7
:101AC00093FF642096FBF0F100FB11600A2190FB6C
:101AD000F1F0C5B2092E11DD00240CE005F1100172
:101AE00001EB4101184A663A02EB4101085D00F042
:101AF000B1FB601CC4B2062CF0DB08E0002404E05B
:101B0000002000F0A7FB601CC4B2062CF8DB00210B
:101B10006B20FFF769FF0A2096FBF0F100FB1160D4
:101B2000C5B200240CE005F1100101EB4101064AA9
:101B3000663A02EB4101085D00F08CFB601CC4B208
:101B4000062CF0DBBDE8F0815C42000870B505466C
:101B50002A2605213046FFF747FF012D1ED100241C
:101B600004E0002000F076FB601CC4B2062CF8DB19
:101B7000002405E01A49085D00F06CFB601CC4B24B
:101B8000062CF7DB002406E01549891F085D00F0EC
:101B900061FB601CC4B2062CF6DB1FE0002405E0EC
:101BA0000F49085D00F056FB601CC4B2062CF7DB41
:101BB000002406E00A493639085D00F04BFB601C42
:101BC000C4B2062CF6DB002406E005493639085D70
:101BD00000F040FB601CC4B2062CF6DB70BD0000B8
:101BE000D043000870B50546242606213046FFF78D
:101BF000FBFE012D0AD1002405E00A49085D00F032
:101C000029FB601CC4B2062CF7DB0AE0002406E0C6
:101C10000449891F085D00F01DFB601CC4B2062C3E
:101C2000F6DB70BD624200082DE9F041054632271F
:101C30004FF47A7095FBF0F0C6B201213846FFF7F9
:101C4000D3FEB5F57A7F10DB00240BE006F110011E
:101C500001EB4101434A02EB4101085D00F0FAFA51
:101C6000601CC4B2062CF1DB08E0002404E0002074
:101C700000F0F0FA601CC4B2062CF8DB4FF47A7066
:101C800095FBF0F100FB1150642190FBF1F0C6B21E
:101C9000B91DC8B20121FFF7A7FE632D10DD002496
:101CA0000BE006F1100101EB41012E4A02EB41016C
:101CB000085D00F0CFFA601CC4B2062CF1DB08E02E
:101CC000002404E0002000F0C5FA601CC4B2062C19
:101CD000F8DB642095FBF0F100FB11500A2190FB2A
:101CE000F1F0C6B207F10C01C8B20121FFF77CFE8A
:101CF000092D10DD00240BE006F1100101EB41017C
:101D0000184A02EB4101085D00F0A4FA601CC4B25D
:101D1000062CF1DB08E0002404E0002000F09AFA31
:101D2000601CC4B2062CF8DB0A2095FBF0F100FB26
:101D30001150C6B207F11201C8B20121FFF754FEDB
:101D400000240BE006F1100101EB4101054A02EB12
:101D50004101085D00F07EFA601CC4B2062CF1DB84
:101D6000BDE8F081F641000870B505462026042143
:101D70003046FFF739FE012D1ED1002404E000207B
:101D800000F068FA601CC4B2062CF8DB002405E001
:101D90001A49085D00F05EFA601CC4B2062CF7DB3D
:101DA000002406E01549891F085D00F053FA601C05
:101DB000C4B2062CF6DB1FE0002405E00F49085DE5
:101DC00000F048FA601CC4B2062CF7DB002406E0E1
:101DD0000A493639085D00F03DFA601CC4B2062C91
:101DE000F6DB002406E005493639085D00F032FADA
:101DF000601CC4B2062CF6DB70BD0000D0430008A6
:101E00002DE9F04705460E464FF032084FF05509D0
:101E1000642095FBF0F0C7B202214046FFF7E4FDD5
:101E2000632D10DD00240BE007F1100101EB4101EF
:101E3000634A02EB4101085D00F00CFA601CC4B279
:101E4000062CF1DB08E0002404E0002000F002FA98
:101E5000601CC4B2062CF8DB642095FBF0F100FB9B
:101E600011500A2190FBF1F0C7B208F10601C8B287
:101E70000221FFF7B9FD092D10DD00240BE007F169
:101E8000100101EB41014E4A02EB4101085D00F0F7
:101E9000E1F9601CC4B2062CF1DB08E0002404E088
:101EA000002000F0D7F9601CC4B2062CF8DB0A2031
:101EB00095FBF0F100FB1150C7B208F10C01C8B25C
:101EC0000221FFF791FD00240BE007F1100101EB67
:101ED00041013B4A02EB4101085D00F0BBF9601C87
:101EE000C4B2062CF1DB642096FBF0F0C7B20221ED
:101EF0004846FFF779FD632E10DD00240BE007F163
:101F0000100101EB41012E4A02EB4101085D00F096
:101F1000A1F9601CC4B2062CF1DB08E0002404E047
:101F2000002000F097F9601CC4B2062CF8DB642096
:101F300096FBF0F100FB11600A2190FBF1F0C7B2B3
:101F400009F10601C8B20221FFF74EFD092E10DD8E
:101F500000240BE007F1100101EB4101184A02EBEC
:101F60004101085D00F076F9601CC4B2062CF1DB7B
:101F700008E0002404E0002000F06CF9601CC4B20A
:101F8000062CF8DB0A2096FBF0F100FB1160C7B2CB
:101F900009F10C01C8B20221FFF726FD00240BE075
:101FA00007F1100101EB4101054A02EB4101085D17
:101FB00000F050F9601CC4B2062CF1DBBDE8F087DC
:101FC000F64100082DE9F04705460E464FF032086D
:101FD0004FF05509642095FBF0F0C7B2032140464D
:101FE000FFF702FD632D10DD00240BE007F1100167
:101FF00001EB4101634A02EB4101085D00F02AF95F
:10200000601CC4B2062CF1DB08E0002404E00020D0
:1020100000F020F9601CC4B2062CF8DB642095FBAC
:10202000F0F100FB11500A2190FBF1F0C7B208F16A
:102030000601C8B20321FFF7D7FC092D10DD0024EB
:102040000BE007F1100101EB41014E4A02EB4101A7
:10205000085D00F0FFF8601CC4B2062CF1DB08E05C
:10206000002404E0002000F0F5F8601CC4B2062C47
:10207000F8DB0A2095FBF0F100FB1150C7B208F124
:102080000C01C8B20321FFF7AFFC00240BE007F1FD
:10209000100101EB41013B4A02EB4101085D00F0F8
:1020A000D9F8601CC4B2062CF1DB642096FBF0F07A
:1020B000C7B203214846FFF797FC632E10DD0024CA
:1020C0000BE007F1100101EB41012E4A02EB410147
:1020D000085D00F0BFF8601CC4B2062CF1DB08E01C
:1020E000002404E0002000F0B5F8601CC4B2062C07
:1020F000F8DB642096FBF0F100FB11600A2190FBF5
:10210000F1F0C7B209F10601C8B20321FFF76CFC78
:10211000092E10DD00240BE007F1100101EB410155
:10212000184A02EB4101085D00F094F8601CC4B24B
:10213000062CF1DB08E0002404E0002000F08AF81F
:10214000601CC4B2062CF8DB0A2096FBF0F100FB01
:102150001160C7B209F10C01C8B20321FFF744FCBA
:1021600000240BE007F1100101EB4101054A02EBED
:102170004101085D00F06EF8601CC4B2062CF1DB72
:10218000BDE8F087F641000870B5054637260721FF
:102190003046FFF729FC012D0AD1002405E00A4949
:1021A000085D00F057F8601CC4B2062CF7DB0AE0AB
:1021B000002406E00449891D085D00F04BF8601C0E
:1021C000C4B2062CF6DB70BD5642000870B504465A
:1021D000082501211D48FEF736FF012001F01EFFF2
:1021E00069011B48FEF72FFF052001F017FF26E0CD
:1021F00004F0800038B180211548FEF726FF012049
:1022000001F00CFF06E080211148FEF71CFF0120C1
:1022100001F004FF4FF480710D48FEF716FF032014
:1022200001F0FCFE4FF480710948FEF70CFF01201D
:1022300001F0F4FE6006040E012001F0EFFE281EFE
:10224000A5F10101CDB2D3D170BD0000001802404C
:102250000010024070B50446082501211D48FEF714
:10226000F4FE012001F0DAFE69011B48FEF7EBFEE7
:10227000052001F0D3FE26E004F0800038B1802173
:102280001548FEF7E2FE012001F0C8FE06E08021BD
:102290001148FEF7D8FE012001F0C0FE4FF4807116
:1022A0000D48FEF7D2FE032001F0B8FE4FF4807116
:1022B0000948FEF7C8FE012001F0B0FE6006040EDA
:1022C000012001F0ABFE281EA5F10101CDB2D3D152
:1022D00070BD0000001802400010024000BFFEE781
:1022E0007047000070B5002100230F22C4781CB392
:1022F000174C246804F4E064C4F5E064C4F30721D7
:10230000C1F10404E3B20A4144789C40E1B284780C
:10231000144021430C07210E0E4C057861550478BA
:1023200004F01F050124AC4005786D11AD0005F1E6
:10233000E025C5F8004109E0047804F01F050124F8
:10234000AC40054D0678761145F8264070BD00007A
:102350000CED00E000E400E080E100E070470000E8
:102360001CB51048008810490988884219D00A20F5
:1023700001F038FE0C4800880A49088008460088A9
:102380000A4991FBF0F0401E0949088041F288306B
:1023900009880223074ACDE900105115064801F0CB
:1023A0008DFD1CBD120000200200002040900200A4
:1023B0002C000020000001400000024029B1064A24
:1023C00012680243044B1A6004E0034A1268824315
:1023D000014B1A60704700003038024029B1064AAC
:1023E00012680243044B1A6004E0034A12688243F5
:1023F000014B1A60704700004038024029B1064A7C
:1024000012680243044B1A6004E0034A12688243D4
:10241000014B1A60704700004438024010B5134861
:10242000006818B901201249087002E00020104924
:102430000870104800780E490978884214D00C487A
:1024400000780C49087008460078012804D1002063
:1024500006497C31086003E0012004497C310860B2
:1024600004480078FFF790FE10BD00002C024342A4
:102470000F000020230000207047000030B500222C
:102480008B071C0F0F2303FA04F20B4B8C1053F82D
:1024900024309343084C8D1044F8253023468C108B
:1024A00053F824308C07240F00FA04F42343024C21
:1024B0008D1044F8253030BD0838014000F001018E
:1024C00019B101212B4A116002E00021294A116053
:1024D00000F0020121B10121264A121F116003E020
:1024E0000021244A121F116000F0040119B10121DA
:1024F000214A116002E000211F4A116000F008012A
:1025000021B101211C4A121F116003E000211A4A67
:10251000121F116000F0100121B10121164A103A7A
:10252000116003E00021144A103A116000F020010C
:1025300021B10121104A143A116003E000210E4A32
:10254000143A116000F0400119B101210B4A1160E9
:1025500002E00021094A116000F0800121B101214F
:10256000064A121F116003E00021044A121F116085
:10257000704700009C0241429C024342BC8241429F
:1025800010B504462020FFF721FE2046FFF71EFE6F
:1025900010BD10B504468120FFF718FE2046FFF756
:1025A00015FE10BD10B5044644F04000FFF70EFEC6
:1025B00010BD00000CB50020019000903448006868
:1025C00040F480303249086000BF3148006800F4B0
:1025D000003000900198401C0190009818B90198B3
:1025E000B0F5A04FF1D12A48006800F4003010B1D6
:1025F0000120009001E0002000900098012846D1C1
:1026000023484030006840F0805021494031086044
:102610002048006840F440401E4908601C480830CB
:1026200000681B49083108600846006840F4004013
:1026300008600846006840F4A05008601648091F6A
:102640000860081F006840F08070091F086000BF24
:102650000F48006800F000700028F9D040F20570C3
:102660000E4908600A480830006820F00300084955
:10267000083108600846006840F00200086000BFAA
:1026800003480830006800F00C000828F8D10CBDA1
:10269000003802400070004008544007003C0240EF
:1026A00010B504468D20FFF791FD44F01000FFF7B0
:1026B0008DFD10BD10B50446DA20FFF787FD44F00C
:1026C0000200FFF783FD10BD10B5044644F0C000C2
:1026D000FFF77CFD10BD10B50446D520FFF776FD51
:1026E0002046FFF773FD10BD10B50446D320FFF759
:1026F0006DFD2046FFF76AFD10BD10B5044644F09D
:10270000AE00FFF763FD10BD10B5044644F0A40011
:10271000FFF75CFD10BD10B5044644F0A600FFF7BE
:1027200055FD10BD10B50446A820FFF74FFD20460B
:10273000FFF74CFD10BD10B50446D920FFF746FD4C
:102740002046FFF743FD10BD10B5044644F0A0003D
:10275000FFF73CFD10BD10B50446DB20FFF736FD4A
:102760002046FFF733FD10BD10B516480088164906
:102770000988884205D1154800881549098888428A
:102780001FD00A2001F02EFC0F4800880D49088058
:102790000F4800880D4908800B4801880B480088C5
:1027A00001F0BCFC094800884AF2104191FBF0F0AE
:1027B000401E084908800846008800F09DFFFDF78C
:1027C000EBFF10BD160000200600002014000020C2
:1027D000040000201C00002010B51648008816498F
:1027E0000988884205D1154800881549098888421A
:1027F0001FD0142001F0F6FB0F4800880D49088017
:102800000F4800880D4908800B4801880B48008854
:1028100001F0B8FC094800884AF2104191FBF0F041
:10282000401E084908800846008800F0ADFFFEF70A
:1028300003F810BD1A0000200A0000201800002034
:10284000080000201E0000201CB5FEF7B7FE002087
:10285000FDF79AFEC149087008460078FFF7D8F8DE
:10286000BE48007800F0D6FBBC480078BC49087030
:10287000BA480078FFF722FE0120FDF785FEB9492E
:102880000880084600884FF6FF7101EA0020B5492C
:1028900008800220FDF778FEB24909880844B14952
:1028A000088008460088B049088008460088AF497B
:1028B00091FBF0F0401EAE49088041F28830098853
:1028C0000223AC4ACDE900105115AB4801F0F6FAED
:1028D000A448008800F0EBFDA2480088FFF7A4F9A7
:1028E0000320FDF751FEA5490880084600884FF6F1
:1028F000FF7101EA0020A14908800420FDF744FE91
:102900009E49098808449D4908800520FDF73CFE42
:102910009B490880084600884FF6FF7101EA0020B5
:10292000974908800620FDF72FFE9549098808443D
:10293000934908800846018890480088FFF760FAAC
:102940008E4800888F4908808D4800888E4908800D
:102950008A4801888C48008801F0E0FB8A4800889A
:102960004AF2104191FBF0F0401E88490880084669
:10297000008800F0C1FEFDF70FFF0720FDF704FE01
:1029800083490880084600884FF6FF7101EA00205D
:102990007F4908800820FDF7F7FD7D490988084434
:1029A0007B4908800920FDF7EFFD7A490880084639
:1029B00000884FF6FF7101EA0020764908800A205E
:1029C000FDF7E2FD7349098808447249088008460A
:1029D00001886F480088FFF7F5FA6D4800886E4956
:1029E00008806C4800886D490880694801886B48F8
:1029F000008801F0C7FB694800884AF2104191FB4A
:102A0000F0F0401E664908800846008800F0BCFED1
:102A1000FDF712FF63480068012802D1624908707F
:102A200002E00020604908705F4800785F49087044
:102A30000846007801280AD15A49A031086064206C
:102A400001F0D0FA01205A49C1F8AC0206E000209A
:102A50005449A03108605649C1F8AC025348007887
:102A6000FFF774F85148007800F0D6FC4D48001D7F
:102A70000068012802D14F49087002E000204D494A
:102A800008704C4800784C490870084600780128C6
:102A900003D14449A831086003E000204149A8312E
:102AA000086045480078FFF75FF94348007800F078
:102AB00061FD3C4808300068012802D13F49087098
:102AC00002E000203D4908703C4800783C4908700D
:102AD0000846007801280CD101213A48FDF728FF6B
:102AE00001211020FDF72EFE01211020FDF73EFEF2
:102AF0000BE000213348FDF71BFF00211020FDF7FC
:102B000021FE00211020FDF731FE2D48007800F055
:102B1000BCFC2B480078FFF765F82B48006818B913
:102B200001202A49087002E000202849087027483F
:102B300000782749087008460078012804D1002051
:102B400021497C31086003E001201F497C31086085
:102B50001F480078FFF718FB1CBD00000000002094
:102B6000100000200200002012000020409002000F
:102B70002C00002000000140000002400600002060
:102B80000400002016000020140000201C0000207B
:102B90000A000020080000201A0000201800002071
:102BA0001E000020088241420C000020200000206E
:102BB000008041420D000020210000200E00002076
:102BC00022000020A06002402C0243420F0000209F
:102BD00023000020042808D14FF0E021096941F0CA
:102BE00004014FF0E022116107E04FF0E021096994
:102BF00021F004014FF0E02211617047704700009E
:102C000010B51548006840F4700013490860134877
:102C1000006840F001001149086000200F490831A8
:102C200008600E4800680E4908400C4908600D48CD
:102C3000091D0860081F006820F48020091F086033
:102C4000002006490C310860FFF7B4FC4FF000602B
:102C500001498039086010BD88ED00E0003802406D
:102C6000FFFFF6FE1030002470B5064640F23F1319
:102C7000EF2200210846FDF737FD00240BE0002578
:102C800004E0304600F0F2FC681C85B2B5F5A07F88
:102C9000F7DB601C84B2F02CF1DB70BD2DE9F0474E
:102CA0004FF01E093E2461258426A7274FF0CA084D
:102CB0004FF0D40A00F0B0FC0DA221463C2000F0F9
:102CC00092FC0EA229463C2000F08DFC0DA231465C
:102CD0003C2000F088FC0CA239463C2000F083FC2C
:102CE0000BA241463C2000F07EFCBDE8F0870000CE
:102CF0004C6173657220506F7765720050756C730C
:102D000065000000526564004C617365720000004C
:102D10004D6F6465000000007CB501210846FFF797
:102D20004DFB01210220FFF749FB01210420FFF7A1
:102D300045FB0720009001208DF8040000208DF84D
:102D4000060003208DF8050001208DF80700694674
:102D5000AA48FEF70DF94FF40050009001208DF8BD
:102D6000040000208DF8060003208DF805000120E6
:102D70008DF807006946A248FEF7FAF8082000908F
:102D800001208DF8040000208DF8060003208DF846
:102D9000050001208DF8070069469A48FEF7E8F81B
:102DA0000120994908609949C1F8B402984908601E
:102DB0009549091D08600020091D0860002407E0EE
:102DC000002501E0681C85B2642DFBDB601C84B229
:102DD000B4F57A7FF4DB01208B49083108600024C8
:102DE00007E0002501E0681C85B2642DFBDB601C58
:102DF00084B2B4F57A7FF4DBCF2000F053FC0020DE
:102E000000F044FCD92000F041FC302000F03EFCF2
:102E1000ED2000F047FC642000F038FC032000F0B7
:102E200035FC122000F032FC812000F02FFCE8205D
:102E300000F038FC852000F029FC102000F026FC72
:102E4000782000F023FCCB2000F02CFC392000F08F
:102E50001DFC2C2000F01AFC002000F017FC342090
:102E600000F014FC022000F011FCF72000F01AFC26
:102E7000202000F00BFCEA2000F014FC002000F001
:102E800005FC002000F002FCC02000F00BFC21201B
:102E900000F0FCFBC12000F005FC122000F0F6FB66
:102EA000C52000F0FFFB322000F0F0FB3C2000F0DA
:102EB000EDFBC72000F0F6FBC12000F0E7FB362059
:102EC00000F0F0FB082000F0E1FB3A2000F0EAFB04
:102ED000552000F0DBFBB12000F0E4FB002000F007
:102EE000D5FB182000F0D2FBB62000F0DBFB0A2057
:102EF00000F0CCFBA22000F0C9FBF22000F0D2FBD6
:102F0000002000F0C3FB262000F0CCFB012000F0E5
:102F1000BDFBE02000F0C6FB0F2000F0B7FB202037
:102F200000F0B4FB1E2000F0B1FB092000F0AEFB66
:102F3000122000F0ABFB0B2000F0A8FB502000F0AB
:102F4000A5FBBA2000F0A2FB442000F09FFB092063
:102F500000F09CFB142000F099FB052000F096FB8C
:102F6000232000F093FB212000F090FB002000F0D4
:102F70008DFBE12000F096FB002000F087FB19207C
:102F800000F084FB192000F081FB002000F07EFBA4
:102F9000122000F07BFB072000F078FB2D2000F0D2
:102FA00075FB282000F072FB3F2000F06FFB022031
:102FB00000F06CFB0A2000F069FB082000F066FBC3
:102FC000252000F063FB2D2000F060FB0F2000F0B7
:102FD0005DFB112000F066FB002407E0002501E006
:102FE000681C85B2C82DFBDB601C84B241F28830BE
:102FF0008442F3DB292000F055FB7CBD0000024039
:10300000000402400008024080024042008040422A
:103010008C0241422DE9F0478146D7264FF03E0809
:103020004FF47A7009FB00F0FF2190FBF1F085B2BC
:103030000A2D33DA3446C8F1F0001FFA80FA302244
:103040002146504600F0F2F804F10C0084B22E2222
:103050002146504600F0EAF804F10C0084B205F174
:103060003000C2B22146504600F0E0F804F10C00F6
:1030700084B225222146504600F0D8F804F10C0015
:1030800084B220222146504600F0D0F804F10C0012
:1030900084B220222146504600F0C8F80A2D3EDBBB
:1030A000642D3CDA3446C8F1F0001FFA80FA0A2099
:1030B00095FBF0F0C7B207F13000C2B2214650468E
:1030C00000F0B4F804F10C0084B22E2221465046E0
:1030D00000F0ACF804F10C0084B20A2095FBF0F18A
:1030E00000FB1150C7B207F13000C2B22146504672
:1030F00000F09CF804F10C0084B2252221465046D1
:1031000000F094F804F10C0084B2202221465046CD
:1031100000F08CF820222146504600F087F8642DFC
:103120004DDBB5F57A7F4ADA3446C8F1F0001FFA74
:1031300080FA642095FBF0F0C7B207F13000C2B20C
:103140002146504600F072F804F10C0084B264206D
:1031500095FBF0F100FB11500A2190FBF1F0C7B292
:1031600007F13000C2B22146504600F05FF804F18A
:103170000C0084B22E222146504600F057F804F18C
:103180000C0084B20A2095FBF0F100FB1150C7B28D
:1031900007F13000C2B22146504600F047F804F172
:1031A0000C0084B225222146504600F03FF804F17D
:1031B0000C0084B220222146504600F037F8B5F5C5
:1031C0007A7F31D13446C8F1F0001FFA80FA3122FB
:1031D0002146504600F02AF804F10C0084B2302257
:1031E0002146504600F022F804F10C0084B230224F
:1031F0002146504600F01AF804F10C0084B22E2249
:103200002146504600F012F804F10C0084B230223E
:103210002146504600F00AF804F10C0084B2252241
:103220002146504600F002F8BDE8F0872DE9F04F46
:103230000746884614464148B0F800A0BB46302CEB
:1032400005DB392C03DCA4F13000C4B218E0412CBA
:1032500005DB5A2C03DCA4F13700C4B210E0612C6A
:1032600005DB7A2C03DCA4F13D00C4B208E0202C7D
:1032700001D1402404E02E2C01D13E2400E03F2463
:10328000A8F10F01A7F1170043463A46FDF72CFAC3
:10329000002523E000261DE004EB44002E2101EB75
:1032A0000010022101FB1600254911F800900120B1
:1032B000A84000EA090018B12048A0F800A003E0E7
:1032C000204800881D4908801C48008800F0CEF97D
:1032D000701CC6B2182EDFDB681CC5B2082DD9DB06
:1032E000002523E000261DE004EB44002F2101EB24
:1032F0000010022101FB1600114911F80090012075
:10330000A84000EA090018B10C48A0F800A003E0AA
:103310000C480088094908800848008800F0A6F990
:10332000701CC6B2182EDFDB681CC5B2082DD9DBB5
:103330000248A0F800A0BDE8F08F000026000020A1
:103340001E440008240000202DE9F04F074688465F
:1033500016462E48B0F800A0BB46A8F10F01A7F111
:103360001F0043463A46FDF7BFF9002521E000243F
:103370001BE03E2000EB8610022101FB14002449D3
:1033800011F800900120A84000EA090018B11F4878
:10339000A0F800A003E01F4800881C4908801B48D3
:1033A000008800F063F9601CC4B2202CE1DB681CCB
:1033B000C5B2082DDBDB002521E000241BE03F2007
:1033C00000EB8610022101FB1400114911F8009056
:1033D0000120A84000EA090018B10C48A0F800A09C
:1033E00003E00C480088094908800848008800F07C
:1033F0003DF9601CC4B2202CE1DB681CC5B2082D6D
:10340000DBDB0248A0F800A0BDE8F08F260000201A
:103410004E500008240000202DE9F0410546D72633
:10342000A7273446C7F1F0001FFA80F8012D15D107
:103430006F2221464046FFF7F9FE04F10C0084B2EA
:103440006E2221464046FFF7F1FE04F10C0084B2E3
:10345000202221464046FFF7E9FE14E06F22214674
:103460004046FFF7E3FE04F10C0084B266222146D9
:103470004046FFF7DBFE04F10C0084B266222146D1
:103480004046FFF7D3FEBDE8F0812DE9F041044648
:10349000D725CA26A846C6F1F00087B204F131004C
:1034A000C2B241463846FFF7C1FEBDE8F0812DE9C2
:1034B000F0430446D7274FF061083D46C8F1F009B4
:1034C000642C22DA0A2094FBF0F0C6B206F1300038
:1034D000C2B229464846FFF7A9FE05F10C0085B2A5
:1034E0000A2094FBF0F100FB1140C6B206F1300057
:1034F000C2B229464846FFF799FE05F10C0085B295
:10350000202229464846FFF791FE642C30DB6420D8
:1035100094FBF0F0C6B206F13000C2B2294648462C
:10352000FFF784FE05F10C0085B2642094FBF0F1F6
:1035300000FB11400A2190FBF1F0C6B206F1300009
:10354000C2B229464846FFF771FE05F10C0085B26C
:103550000A2094FBF0F100FB1140C6B206F13000E6
:10356000C2B229464846FFF761FE05F10C0085B25C
:10357000BDE8F0832DE9F0410546D726842734467F
:10358000C7F1F0001FFA80F8012D15D16F222146F6
:103590004046FFF74BFE04F10C0084B26E22214638
:1035A0004046FFF743FE04F10C0084B2202221467E
:1035B0004046FFF73BFE14E06F2221464046FFF7EE
:1035C00035FE04F10C0084B2662221464046FFF726
:1035D0002DFE04F10C0084B2662221464046FFF71E
:1035E00025FEBDE8F0812DE9F04105460E46144662
:1035F0002F46C6F1F0001FFA80F808E0227839461D
:103600004046FFF713FE07F10C0087B2641C2078D8
:103610000028F3D1BDE8F0812DE9F04186B01422F5
:103620000DA101A8FCF720FE1C260F273546C7F187
:10363000F00800240AE001A8025D29464046FFF791
:1036400083FE05F1100085B2601CC4B2122CF2DBBF
:1036500006B0BDE8F08100000001020E0304000581
:10366000060E0708090A0B0C0B0D000010B50446E6
:10367000012005490860C4F3072000F01FF8E0B2FC
:1036800000F01CF810BD00008402404210B5044652
:10369000012003490860204600F010F810BD00002A
:1036A0008402404210B504460020034908602046C9
:1036B00000F004F810BD000084024042002113E035
:1036C00000220B4B1A6000F080021AB10122094B54
:1036D0001A6002E00022074B1A600122044B1A60B4
:1036E0004206100E4A1CD1B20829E9DB70470000DF
:1036F000B48240428C02414210B504460121084682
:10370000FEF76CFE00220121880700F0DEF9214659
:103710004FF0804000F0E5F92021480600F0D8F98C
:103720000121880700F059F810BD000010B50121F3
:10373000124800F06DF801281AD111480078401C99
:103740000F49087008460078022807DB0846007811
:10375000092803DC01200B49086002E00020094928
:103760000860074800780B2802D10120044908703E
:103770000121024800F02EF810BD000000040040B6
:1037800036000020AC82414210B5044601212020C1
:10379000FEF724FE00220121074800F096F9214699
:1037A000054800F09EF92021034800F091F901211D
:1037B000014800F012F810BD0014004021B1028849
:1037C00042F08002028004E002884FF67F731A40C4
:1037D00002807047CA430282704721B1028842F0DA
:1037E0000102028004E002884FF6FE731A40028054
:1037F000704731B1B0F8442042F40042A0F84420B0
:1038000005E0B0F84420C2F30E02A0F8442070474F
:1038100030B50246002000230024158A05EA010382
:10382000958905EA010413B10CB1012000E00020E4
:1038300030BD000070B5002400220023058C4FF637
:10384000FE7635400584028C8388048B4FF68F7595
:103850002C40B51E2C400D882C43751E2A408D89A6
:103860002A434D882A43104DA84202D00F4DA8424A
:1038700013D14FF6F7752A40CD892A434FF6FB75D1
:103880002A408D882A434FF6FF652B404FF6FF559F
:103890002B400D8A2B434D8A2B43838004838D68F4
:1038A0004563028470BD0000000001400004014037
:1038B0000A460021018B4FF6F7731940114301832B
:1038C0007047000070B5002400220023058C4FF6DD
:1038D000EF7635400584028C8388048B48F6FF75AB
:1038E0002C404FF6FF452C400D884FF6FF7606EA38
:1038F00005252C434FF6DF752A408D8906EA05150C
:103900002A434D8806EA05152A43154DA84202D0E0
:10391000144DA8421DD14FF67F752A40CD894FF630
:10392000FF7606EA05152A434FF6BF752A408D88B3
:1039300006EA05152A434FF6FF352B404FF2FF7577
:103940002B400D8A06EA85052B434D8A06EA85053C
:103950002B43838004838D688563028470BD0000DF
:1039600000000140000401400A460021018B4FF293
:10397000FF7319404FF6FF7303EA022319430183D3
:103980007047000070B5002400220023058C4FF61C
:10399000FF6635400584028C8388848B4FF68F75D3
:1039A0002C404FF6FC752C400D882C434FF6FF55EC
:1039B0002A408D894FF6FF7606EA05252A434D8871
:1039C00006EA05252A43154DA84202D0144DA84207
:1039D0001DD14FF2FF752A40CD894FF6FF7606EADA
:1039E00005252A434FF6FF352A408D8806EA05252E
:1039F0002A434EF6FF752B404DF6FF752B400D8A7E
:103A000006EA05152B434D8A06EA05152B438380EC
:103A100084838D68C563028470BD0000000001408E
:103A2000000401400A460021818B4FF6F7731940CC
:103A3000114381837047000070B5002200230024E9
:103A4000058C4EF6FF7635400584038C8488828B86
:103A500048F6FF752A404FF6FF452A400D884FF67D
:103A6000FF7606EA05252A434DF6FF752B408D8922
:103A700006EA05352B434D8806EA05352B430A4DEA
:103A8000A84202D0094DA84208D14BF6FF752C4040
:103A90000D8A4FF6FF7606EA85152C4384808283D3
:103AA0008D680564038470BD00000140000401407E
:103AB0000A460021818B4FF2FF7319404FF6FF73C6
:103AC00003EA02231943818370470185828270478C
:103AD00082884FF68F731A40828082880A438280E0
:103AE0007047C1627047000000220288184B98425C
:103AF0000ED0184B98420BD0B0F1804F08D0164B27
:103B0000984205D0154B984202D0154B984204D1EB
:103B10004FF68F731A404B881A43124B984207D0C6
:103B2000114B984204D04FF6FF431A400B891A43B9
:103B300002804B68C3620B880385054B984202D014
:103B4000044B984201D18B7A03860123838270470C
:103B50000000014000040140000400400008004053
:103B6000000C0040001000400014004000BFFEE7C1
:103B70002DE9FC4706460D4614469946304600F0AE
:103B8000F5F807460121FEF719FC1F4884420BD0C7
:103B90001E48844208D01E48844205D01D488442F5
:103BA00002D01D48844207D1204600F021F9074683
:103BB0000121FEF723FC06E0204600F019F9074634
:103BC0000121FEF70BFC009502208DF80400032074
:103BD0008DF8050000208DF8060001208DF8070003
:103BE00069463046FDF7C4F9204600F017F807464D
:103BF000284600F071F880463A4641463046FDF7C7
:103C0000FFF9BDE8FC87000000000140000401400E
:103C100000400140004401400048014001460020AE
:103C2000224A914201D101203FE0214A914201D133
:103C300003203AE01F4A914201D1032035E01E4A99
:103C4000914201D1032030E01C4A914201D103206E
:103C50002BE0B1F1804F01D1012026E0184A9142BA
:103C600001D1022021E0174A914201D102201CE03B
:103C7000154A914201D1022017E00D4A914201D12B
:103C8000032012E00B4A914201D103200DE00F4ABC
:103C9000914201D1092008E00D4A914201D1092049
:103CA00003E00C4A914200D1092070470000014016
:103CB0000004014000400140004401400048014030
:103CC0000004004000080040000C004000180040C4
:103CD000001C00400020004001460020012900D1C6
:103CE00042E0022901D101203EE0042901D1022055
:103CF0003AE0082901D1032036E0102901D104203F
:103D000032E0202901D105202EE0402901D10620F2
:103D10002AE0802901D1072026E0B1F5807F01D17A
:103D2000082021E0B1F5007F01D109201CE0B1F5A8
:103D3000806F01D10A2017E0B1F5006F01D10B208F
:103D400012E0B1F5805F01D10C200DE0B1F5005F0C
:103D500001D10D2008E0B1F5804F01D10E2003E024
:103D6000B1F5004F00D10F20704700000146002040
:103D7000164A914201D1012026E0154A914201D113
:103D8000022021E0134A914201D104201CE0124A92
:103D9000914201D1082017E0104A914201D1102030
:103DA00012E00F4A914201D120200DE00D4A9142CC
:103DB00001D1402008E00C4A914201D1802003E06B
:103DC0000A4A914200D18815704700000000024065
:103DD0000004024000080240000C024000100240B3
:103DE0000014024000180240001C02400020024063
:103DF00001460020244A914201D1012042E0234A99
:103E0000914201D102203DE0214A914202D14FF47A
:103E1000803037E01F4A914202D14FF4003031E048
:103E20001D4A914202D14FF480202BE0B1F1804F26
:103E300001D1012026E0194A914201D1022021E05E
:103E4000174A914201D104201CE0164A914201D147
:103E5000082017E0144A914201D1102012E0134AC1
:103E6000914201D120200DE0114A914201D1402020
:103E700008E0104A914201D1802003E00E4A9142AD
:103E800000D1881570470000000001400004014087
:103E9000004001400044014000480140000400404F
:103EA00000080040000C00400010004000140040DA
:103EB00000180040001C0040002000402DE9F043A5
:103EC00089B00746884615461C46DDE91069234639
:103ED0002A4641463846FFF74BFE07960020ADF8CC
:103EE0001800ADF82000ADF81A008DF8220006A9E0
:103EF0002846FFF7F9FD6020ADF804000120ADF879
:103F00000600701C400803900020ADF81000ADF8CA
:103F10000800ADF81200ADF81400ADF81600012C41
:103F200008D101A92846FFF785FC08212846FFF79C
:103F3000BFFC1FE0022C08D101A92846FFF7C2FCF4
:103F400008212846FFF710FD14E0032C08D101A931
:103F50002846FFF717FD08212846FFF763FD09E013
:103F6000042C07D101A92846FFF766FD0821284641
:103F7000FFF79EFD01212846FFF720FC012128467E
:103F8000FFF72BFC0648854202D00648854203D144
:103F900001212846FFF72DFC09B0BDE8F0830000A1
:103FA000000001400004014010B504466FF0040019
:103FB000FEF710FEE11704EB5171C1F3C701074A88
:103FC00011701046007800EB4001C1EBC0104FF6B5
:103FD000FF7101EAC0000249088010BD32000020D4
:103FE0003400002070B504464FF4077094FBF0F0E5
:103FF000C6B24FF4077094FBF0F100FB114085B29C
:1040000005E04FF4077000F02FF8701EC6B2002EC6
:10401000F7D115B1284600F027F870BD0146114AC6
:1040200012784A434FF0E0235A6100229A611A46FF
:10403000126942F001021A6100BF4FF0E0221069DC
:1040400000F001021AB100F48032002AF5D04FF0DE
:10405000E022126922F001024FF0E0231A610022EF
:104060009A617047320000200146114A12884A4383
:104070004FF0E0235A6100229A611A46126942F019
:1040800001021A6100BF4FF0E022106900F0010246
:104090001AB100F48032002AF5D04FF0E022126904
:1040A00022F001024FF0E0231A6100229A6170476A
:1040B000340000200020174908804BF64040164984
:1040C0000880A820FFF770FFFCF75AFAFCF7C0FF42
:1040D000FDF706FCFEF720FE4BF64040FEF7C4FD60
:1040E000FEF7DCFDFEF7B0FB12E0FCF72DF9FEF762
:1040F00037F9FEF739FBFEF76FFBFDF7ADF9FDF77A
:10410000E7F9FDF715FAFEF789F90A20FFF76AFFCC
:10411000EBE70000260000202400002030B5044614
:104120000A46B2F5FA7F01DD4FF4FA72C2EB0233B0
:104130004FF4FA7593FBF5F100200AE000FB01F360
:1041400040F2F315B3FBF5F30D4D25F81030431C89
:1041500098B2B0F5FA7FF1DB4FF4FA700CE0A0F5FD
:10416000FA734B4340F2F315B3FBF5F3CB1A044D4E
:1041700025F81030431C98B2B0F57A7FEFDB30BDE4
:104180003800002030B504460A46B2F5FA7F01DD5A
:104190004FF4FA72C2EB02334FF4FA7593FBF5F168
:1041A00000200AE000FB01F340F2F315B3FBF5F346
:1041B0000D4D25F81030431C98B2B0F5FA7FF1DBB5
:1041C0004FF4FA700CE0A0F5FA734B4340F2F3158C
:1041D000B3FBF5F3CB1A044D25F81030431C98B20D
:1041E000B0F57A7FEFDB30BD380800204FF040702B
:1041F000E1EE100A70470000000000000000002FF0
:10420000000000000700070000147F147F14002442
:104210002A7F2A120062640813230036495522506F
:1042200000000503000000001C22410000004122A4
:104230001C000014083E08140008083E080800008E
:1042400000A0600000080808080800006060000086
:10425000002010080402003E5149453E0000427F04
:104260004000004261514946002141454B31001850
:1042700014127F10002745454539003C4A49493012
:1042800000017109050300364949493600064949CC
:10429000291E0000363600000000563600000008D7
:1042A00014224100001414141414000041221408B4
:1042B00000020151090600324959513E007C121199
:1042C000127C007F49494936003E41414122007F2E
:1042D0004141221C007F49494941007F09090901E8
:1042E000003E4149497A007F0808087F0000417F6D
:1042F0004100002040413F01007F08142241007F1F
:1043000040404040007F020C027F007F0408107F85
:10431000003E4141413E007F09090906003E4151EE
:10432000215E007F091929460046494949310001AB
:10433000017F0101003F4040403F001F2040201FFF
:10434000003F4038403F00631408146300070870C2
:10435000080700615149454300007F414100005575
:104360002A552A55000041417F0000040201020441
:10437000004040404040000001020400002054542E
:104380005478007F4844443800384444442000387E
:104390004444487F00385454541800087E090102F0
:1043A0000018A4A4A47C007F080404780000447DC5
:1043B0004000004080847D00007F10284400000001
:1043C000417F4000007C04180478007C08040478D5
:1043D00000384444443800FC2424241800182424C1
:1043E00018FC007C080404080048545454200004BD
:1043F0003F444020003C4040207C001C2040201CCA
:10440000003C4030403C004428102844001CA0A040
:10441000A07C004464544C448080808080800000F4
:104420000000000000000000F00098010C030C03E5
:10443000060606060606060606060606060606061C
:104440000C030C039801F0000000000000000000C5
:104450000000000000000000400060007C006000E0
:10446000600060006000600060006000600060004C
:10447000600060006000FC0300000000000000001D
:104480000000000000000000F800840102030603A1
:104490000603000380018001C00020001000080214
:1044A00004020202FE03FE03000000000000000000
:1044B00000000000000000007800C40086018601B2
:1044C00086018001C0007000800100010003060326
:1044D000060306038401F80000000000000000004D
:1044E00000000000000000018001C001C001A00127
:1044F000900190018801840184018201FE078001FE
:10450000800180018001E007000000000000000041
:104510000000000000000000FC03FC030400040095
:1045200004000400F4008C010403000300030603EC
:10453000060382018401F800000000000000000072
:104540000000000000000000E00118030C030C0054
:1045500004000600E60116030E0606060606060619
:1045600004060C021803F000000000000000000028
:104570000000000000000000F807FC070C02040126
:104580000401000180008000400040004000600005
:10459000600060006000600000000000000000009B
:1045A0000000000000000000F8010C0306060606EB
:1045B00006060E023C03F000CC01040306060606C4
:1045C000060606060C03F0010000000000000000D3
:1045D0000000000000000000F0000C010C030602C7
:1045E00006060606060606078C0678060006000381
:1045F00000030C018C0178000000000000000000A6
:104600000000000000000000600060007000D000AA
:10461000D000C800880188018801F8010403040360
:104620000403040606060F0F00000000000000004F
:104630000000000000000000FF00860106030603E2
:10464000060306038601FE000603060206060606AA
:10465000060606060603FF01000000000000000039
:104660000000000000000000E00718060C040C0425
:104670000400060006000600060006000600060408
:104680000C040C021801F000000000000000000003
:1046900000000000000000007F0086010603060302
:1046A00006060606060606060606060606060606AA
:1046B00006030603C6017F000000000000000000A2
:1046C0000000000000000000FF03060206040600D0
:1046D000060086008600FE008600860006000600B2
:1046E000060406040602FF030000000000000000AC
:1046F0000000000000000000FF030603060406049B
:10470000060086008600FE00860086000600060081
:104710000600060006000F00000000000000000078
:104720000000000000000000F00218030C020C0260
:1047300004000600060006000600C60F0603060376
:104740000C030C031803F000000000000000000040
:1047500000000000000000000F0F06060606060617
:10476000060606060606FE070606060606060606F0
:104770000606060606060F0F0000000000000000F7
:104780000000000000000000FC036000600060000A
:104790006000600060006000600060006000600019
:1047A000600060006000FC030000000000000000EA
:1047B0000000000000000000F00F80018001800177
:1047C00080018001800180018001800180018001E1
:1047D00080018001800180018601C6007C0000000C
:1047E0000000000000000000CF0706018600460020
:1047F0004600260036003E006E00E600C600C601F8
:104800008601060306078F0F00000000000000006D
:1048100000000000000000000F0006000600060077
:104820000600060006000600060006000600060058
:10483000060406040602FF0300000000000000005A
:1048400000000000000000000F0F0E070E070E070B
:104850009A069A069A069A065A0672067206720610
:10486000720622062206270F00000000000000004A
:104870000000000000000000070E0E040E041A04E1
:104880001A04320462046204C204C20482050207EC
:1048900002070206020607040000000000000000F4
:1048A0000000000000000000F00098010C030C0262
:1048B0000606060606060606060606060606060698
:1048C0000C020C039801F000000000000000000042
:1048D0000000000000000000FF01060306060606B7
:1048E0000606060606060603FE010600060006008A
:1048F0000600060006000F00000000000000000097
:104900000000000000000000F00098010C030C0201
:1049100006060606060606060606060606067606C7
:104920004C028C038801F0018007000300000000A6
:104930000000000000000000FF0106030606060656
:10494000060606060603FE006600C600C6008601CF
:104950008601060306030F0E0000000000000000A1
:104960000000000000000000F8040C070604060424
:1049700006000E003C00F000C00300030006020623
:10498000020606060E03F20100000000000000000F
:104990000000000000000000FE07620461086108DA
:1049A0006000600060006000600060006000600007
:1049B000600060006000F0000000000000000000E7
:1049C00000000000000000000F0E060406040604AC
:1049D0000604060406040604060406040604060487
:1049E000060406040C02F8010000000000000000AC
:1049F00000000000000000001F0F0E060C020C0259
:104A00000C020C011801180118011801B000B000C7
:104A1000B000F00060006000000000000000000036
:104A20000000000000000000EF0E6604660466024D
:104A30006602E602EC02EC02DC01DC01DC01DC01D6
:104A40009C01880088008800000000000000000031
:104A500000000000000000009E070C031801180170
:104A60009800B000700060006000E000D000D0014D
:104A7000980188010C039E07000000000000000060
:104A800000000000000000001F0F0E060C020C01C9
:104A900018011801B000B0007000600060006000F4
:104AA000600060006000F8010000000000000000ED
:104AB0000000000000000000FC07040382038001E6
:104AC000C001C000C000600060003000300018006D
:104AD00018041C040C02FE0300000000000000008B
:104AE00000000000000000000000000000000000C6
:104AF0000000F0010C030C03E00338030C03060371
:104B0000060306038E0B7C0F00000000000000006F
:104B100000000000000008000E000C000C000C005B
:104B20000C00CC013C031C060C060C060C060C0603
:104B30000C060C021C03F401000000000000000041
:104B40000000000000000000000000000000000065
:104B50000000F0008C018C018601060006000600B2
:104B600006020C020C01F000000000000000000032
:104B700000000000000000028003000300030003A7
:104B8000000378038C030C030603060306030603E5
:104B9000060304038C0778010000000000000000F9
:104BA0000000000000000000000000000000000005
:104BB0000000E001180308060C06FC070C000C00BE
:104BC0000C0018043802E0010000000000000000A2
:104BD0000000000000000000C00360063006300046
:104BE0003000FE0330003000300030003000300074
:104BF000300030003000FC01000000000000000028
:104C000000000000000000000000000000000000A4
:104C10000000F00E98090C030C030C039801F80037
:104C20000C007C00F803060606060E07F8010000DB
:104C300000000000000008000E000C000C000C003A
:104C40000C00EC011C030C030C030C030C030C0301
:104C50000C030C030C039E07000000000000000082
:104C60000000000000000000600060000000000084
:104C700000007C0060006000600060006000600078
:104C8000600060006000FC03000000000000000005
:104C90000000000000000000800180010000000012
:104CA0000000F0018001800180018001800180010D
:104CB00080018001800180018001CC007C00000027
:104CC00000000000000008000E000C000C000C00AA
:104CD0000C00CC038C00CC004C006C007C00DC0091
:104CE000CC008C018C019E07000000000000000039
:104CF00000000000000040007C00600060006000D8
:104D000060006000600060006000600060006000A3
:104D1000600060006000FC03000000000000000074
:104D20000000000000000000000000000000000083
:104D300000007707EE0666066606660666066606E5
:104D4000660666066606EF0E000000000000000022
:104D50000000000000000000000000000000000053
:104D60000000CE013C030C030C030C030C030C03EA
:104D70000C030C030C039E07000000000000000061
:104D80000000000000000000000000000000000023
:104D90000000F00098010C0306060606060606064B
:104DA00006060C030C03F0000000000000000000E9
:104DB00000000000000000000000000000000000F3
:104DC0000000EE011C030C060C060C060C060C067B
:104DD0000C060C031C03EC010C000C003E00000050
:104DE00000000000000000000000000000000000C3
:104DF000000078028C030C03060306030603060377
:104E0000060304038C03780300030003C0070000BB
:104E10000000000000000000000000000000000092
:104E200000009F07580638001800180018001800E6
:104E3000180018001800FF0000000000000000002B
:104E40000000000000000000000000000000000062
:104E50000000F00718060C040C003800F001800375
:104E6000040604060C03FC01000000000000000022
:104E700000000000000000000000200020003000C2
:104E80003000FE01300030003000300030003000D3
:104E9000300030023002E00100000000000000009D
:104EA0000000000000000000000000000000000002
:104EB00008028E030C030C030C030C030C030C03FD
:104EC0000C030C039C0778010000000000000000A8
:104ED00000000000000000000000000000000000D2
:104EE00000003E0F1C06180218023001300130018C
:104EF000E000E000E00040000000000000000000D2
:104F000000000000000000000000000000000000A1
:104F10000000EF0DC604C604E604EC04AC039C03D9
:104F20009C039C0308010801000000000000000031
:104F30000000000000000000000000000000000071
:104F40000000BE0718019801B00070006000E0008A
:104F5000D00098018803DE07000000000000000078
:104F60000000000000000000000000000000000041
:104F70000000BE071C0118011801B000B000B0000D
:104F80006000600040002000200014001C000000B1
:104F90000000000000000000000000000000000011
:104FA0000000FC038401C401C000E0006000700048
:104FB000300438041806FC03000000000000000064
:104FC00000000000000000000000000000000000E1
:104FD00000000000000000000000000000000000D1
:104FE00000001C001C001C0000000000000000006D
:104FF00000000000000000000E030A0111019100F2
:105000009100D1005100FA03AE0260045004500434
:1050100058044804880284030000000000000000D7
:105020000000000000000000000000000000000080
:105030000000000000000000000000000000000070
:105040000000000000000000000000000000000060
:1050500000000000000000000000E0273038183099
:105060000C200C200C000C0018007800E003800FCE
:10507000001E003800700060046004600860183092
:105080003818C80F000000000000000000000000F9
:10509000000000000000000000007E7C18181808C6
:1050A000180418061802180198019801D801B803CD
:1050B000380318071806180E180C181C1818183082
:1050C00018307EFC0000000000000000000000001E
:1050D000000000000000000000007E7C1C10181082
:1050E00018083008300C700460046002C002C0026E
:1050F000C001800180018001800180018001800168
:105100008001E00700000000000000000000000037
:10511000000000000000000000007E0018001800E1
:1051200018001800180018001800180018001800BF
:10513000180018001800180018001840184018200F
:105140001830FE3F000000000000000000000000DA
:1051500000000000000000000001C001C001C0010B
:1051600040016003200320032003300610061006D0
:105170001006F80F080C080C080C0C0C0418041886
:1051800006181F7C00000000000000000000000066
:1051900000000000000000000000FE3F1830182052
:1051A00018601840180018081808180CF80F180C88
:1051B000180818081800180018001840184018207F
:1051C0001830FE3F0000000000000000000000005A
:1051D00000000000000000000000FE07181C183846
:1051E00018301830183018301818180CF8079803B1
:1051F0001803180718061806180E180C180C181C97
:1052000018187E7800000000000000000000000078
:1052100000000000000000000000C02760381030CF
:1052200018200C400C400400060006000600060092
:1052300006000600060006000C400C400C2018304A
:105240003018C0070000000000000000000000004F
:1052500000000000000000000001F8018001800152
:105260008001800180018001800180018001800136
:105270008001800180018001800180018001800126
:105280008001F81F00000000000000000000000086
:10529000000000000000000000000000000000000E
:1052A0000000000000000000C007300C18180810B3
:1052B0000C300C30FC3F0C000C000C0018201810B7
:1052C0007018C0070000000000000000000000008F
:1052D00000000000000000000000000000000000CE
:1052E0000000000000000000F00318060C0C0C0C7D
:1052F000000C800F700C1C0C0C0C060C060C064CE1
:105300000C4FF83800000000000000000000000012
:10531000000000000000000000000000000000008D
:1053200000000000000010001E0FD81838301830A0
:10533000183018301830183018301830183018302D
:1053400018307EFC0000000000000000000000009B
:1053500000000000000000000000800380038003C4
:105360000000000000000001F801800180018001C0
:105370008001800180018001800180018001800125
:105380008001F81F00000000000000000000000085
:10539000000000000000000000000000000000000D
:1053A0000000000000000000C077306C10181818D2
:1053B000181818181018300CF00718001800F00F03
:1053C000F03F08700C600C600C603838E00F000093
:1053D00000000000000000000000000000000000CD
:1053E00000000000000000000000000000000000BD
:1053F00000000000000000000000000000000000AD
:10540000000000000000000000000000000000009C
:10541000305400080000002038000000C4010008DB
:10542000685400083800002060160000E001000801
:10543000000000000000000000000000000000006C
:10544000000000000000000000000000000000005C
:10545000000000000000000000000000000000004C
:08546000000000000000000044
:040000050800018965
:00000001FF
