:020000040800F2
:100000008006002029020008090E00088D0800085B
:10001000050E00080F0500086D1300080000000021
:100020000000000000000000000000002D0E00088D
:1000300013050008000000000B0E0008450F000823
:10004000430200084302000843020008430200087C
:100050004302000843020008310500086505000856
:100060009905000809060008A106000843020008D7
:10007000430200084302000843020008430200084C
:10008000430200084302000843020008430200083C
:100090004302000843020008430200083907000831
:1000A000430200084302000843020008430200081C
:1000B000430200084302000843020008430200080C
:1000C00043020008430200084302000843020008FC
:1000D00043020008430200084302000843020008EC
:1000E00043020008430200084302000843020008DC
:1000F00043020008430200084302000843020008CC
:1001000043020008430200084302000843020008BB
:1001100043020008430200084302000843020008AB
:10012000430200084302000843020008430200089B
:10013000430200084302000843020008430200088B
:10014000430200084302000843020008430200087B
:10015000430200084302000843020008430200086B
:10016000430200084302000843020008430200085B
:10017000430200084302000843020008430200084B
:10018000430200084302000800F002F800F03CF8C7
:100190000AA090E8000C82448344AAF10107DA45E2
:1001A00001D100F031F8AFF2090EBAE80F0013F0F8
:1001B000010F18BFFB1A43F0010318470815000090
:1001C00028150000103A24BF78C878C1FAD8520721
:1001D00024BF30C830C144BF04680C6070470000C1
:1001E0000023002400250026103A28BF78C1FBD840
:1001F000520728BF30C148BF0B6070471FB501F0E0
:1002000048F91FBD10B510BD00F031F81146FFF7D9
:10021000F5FF01F033F900F04FF803B4FFF7F2FFF8
:1002200003BC00F057F80000094880470948004720
:10023000FEE7FEE7FEE7FEE7FEE7FEE7FEE7FEE796
:10024000FEE7FEE704480549054A064B70470000F3
:10025000490F000889010008800000208006002066
:10026000800200208002002070477047704775466A
:1002700000F02CF8AE4605006946534620F0070012
:10028000854618B020B5FFF7DDFFBDE820404FF0F0
:1002900000064FF000074FF000084FF0000B21F070
:1002A0000701AC46ACE8C009ACE8C009ACE8C0093D
:1002B000ACE8C0098D46704710B50446AFF3008026
:1002C0002046BDE81040FFF7A8BF00000048704777
:1002D0002000002001491820ABBEFEE726000200E6
:1002E000704700001249096821F04071104A1160FE
:1002F0001146096841F08071116001210D4A1160B9
:100300000D4AC2F8AC12002001E0411CC8B23228EC
:10031000FBDB0021074A1160002001E0411CC8B24C
:100320003228FBDB0021034A121F116070470000D6
:1003300000100240B00242420000424212490968E5
:1003400021F04071104A11601146096841F0807136
:10035000116000210D4A11600D4AC2F8AC12002054
:1003600001E0411CC8B23228FBDB0121074A121F01
:100370001160074AC2F8B012002001E0411CC8B267
:100380003228FBDB7047000000100240B0024242FE
:100390000000424210B5002400231748006820F0F6
:1003A000407015490860084600680860012013493C
:1003B000086000BF01E0581CC3B2142BFBDB012016
:1003C0000E49091F0860002301E0581CC3B2142B1A
:1003D000FBDB07E0601CC4B2FA2C03DDFFF7AEFFC5
:1003E000012010BD0548803800680028F2D103497B
:1003F000091F086000BFF4E700100240B00242424B
:1004000010B50146194B1B6823F04073174C23604D
:1004100023461B6843F0807323600023144C236041
:1004200000221FE0CB09124C241D23604B06190E3D
:10043000002001E0431CD8B21428FBDB01230C4C44
:100440002360002001E0431CD8B21428FBDB00230A
:10045000074C2360002001E0431CD8B21428FBDBCA
:10046000531CDAB2082ADDDB10BD00000010024088
:10047000AC02424270B506460C46FFF733FFA0209F
:10048000FFF7BEFFFFF786FF3046FFF7B9FFFFF724
:1004900081FF2046FFF7B4FFFFF77CFFFFF74EFF19
:1004A000002500E06D1C02488542FBD370BD0000B2
:1004B00040420F002DE9F04104460D4616461F4606
:1004C0002A2000F01DFFC4F3072000F00BFFE0B26C
:1004D00000F008FFC6F3072000F004FFF0B200F0C0
:1004E00001FF2B2000F00CFFC5F3072000F0FAFEFF
:1004F000E8B200F0F7FEC7F3072000F0F3FEF8B211
:1005000000F0F0FE2C2000F0FBFEBDE8F08100BF03
:10051000FEE77047002007E0002101E04A1CD1B24D
:100520001429FBDB421CD0B23228F5DB70470000F7
:1005300010B5012000F052F970B1FFF7EBFF07484A
:10054000006818B901200649087002E0002004493B
:100550000870012000F03CF910BD0000008241420B
:100560000800002010B5022000F038F970B1FFF744
:10057000D1FF0748006818B901200649087002E059
:10058000002004490870022000F022F910BD00008C
:10059000048241420900002010B5042000F01EF939
:1005A00060B3FFF7B7FF1648006801280DD1154862
:1005B0000078FF2803DBFF201249087012E0114881
:1005C0000078401C0F4908700CE00E4800780028A5
:1005D00003DC00200B49087004E00A480078401E44
:1005E00008490870074801780020FFF743FF0548D5
:1005F000007800F061F9042000F0EAF810BD000076
:100600003C8241420000002010B5082000F0E6F8CE
:1006100000283FD0FFF77EFF1F48006801280FD158
:100620001E480088B0F5967F04DB4FF496701B4996
:10063000088012E019480088401D184908800CE025
:1006400016480088142803DC14201449088004E0AC
:1006500012480088401F1149088010480488E0179C
:1006600004EB1060C0F307210120FFF703FF0B48E4
:100670000488E01704EB10600012A4EB0020C1B264
:100680000220FFF7F7FE0548008800F097FA0820DF
:1006900000F09EF810BD00003882414202000020A8
:1006A00010B5102000F09AF800283FD0FFF732FF75
:1006B0001F48006801280FD11E480088B0F5967FBA
:1006C00004DB4FF496701B49088012E0194800883B
:1006D0000A30184908800CE0164800880A2803DC14
:1006E0000A201449088004E0124800880A38114999
:1006F000088010480488E01704EB1060C0F307215D
:100700000320FFF7B7FE0B480488E01704EB1060E6
:100710000012A4EB0020C1B20420FFF7ABFE054895
:10072000008800F0D9F9102000F052F810BD000048
:10073000180243420400002010B5202000F04EF8BB
:1007400000283FD0FFF7E6FE1F48006801280FD1C0
:100750001E480088B0F5FA7F04DB4FF4FA701B499D
:10076000088012E0194800880A30184908800CE017
:1007700016480088002803DC00201449088004E0A3
:10078000124800880A381149088010480488E01788
:1007900004EB1060C0F307210520FFF76BFE0B4848
:1007A0000488E01704EB10600012A4EB0020C1B233
:1007B0000620FFF75FFE0548008800F01BF92020A7
:1007C00000F006F810BD00001C02434206000020A5
:1007D0000149086070470000143C014001460020B8
:1007E000034A12680A400AB1012000E00020704765
:1007F000143C0140F0B50A4600210023002400BF4C
:100800003DE0012505FA01F3156805EA03049C4261
:1008100034D105684F000326BE40B5430560157905
:100820004E00B5400668354305601579012D02D0AC
:100830001579022D16D185684F000326BE40B543B9
:10084000856055794E00B5408668354385604568BA
:1008500001268E40B5434560456896798E40B6B214
:1008600035434560C5684F000326BE40B543C560AB
:10087000D5794E00B540C6683543C560491C10297E
:10088000BFD3F0BD418370470183704700BFFEE7CF
:1008900070B504460D4605F1B001C8B200F02EFA5D
:1008A000102141EA141000F029FA04F00F0141F080
:1008B000010000F023FA70BD2DE9F04106462A2719
:1008C000072526E007F12A01062202FB1511C8B20E
:1008D0000021FFF7DDFF0120A840304050B1002487
:1008E00005E04349085D00F04BFA601CC4B2062CD9
:1008F000F7DB0AE0002406E03D49891F085D00F0AF
:100900003FFA601CC4B2062CF6DB05B903E0681E92
:10091000C5B2002DD6DA00BF00215F20FFF7B8FF77
:10092000642096FBF0F0C5B2632E11DD00240CE0CC
:1009300005F1100101EB41012D4A663A02EB41013C
:10094000085D00F01DFA601CC4B2062CF0DB08E064
:10095000002404E0002000F013FA601CC4B2062C4E
:10096000F8DB00216520FFF793FF642096FBF0F190
:1009700000FB11600A2190FBF1F0C5B2092E11DDD8
:1009800000240CE005F1100101EB4101184A663A20
:1009900002EB4101085D00F0F3F9601CC4B2062CC3
:1009A000F0DB08E0002404E0002000F0E9F9601C1E
:1009B000C4B2062CF8DB00216B20FFF769FF0A2088
:1009C00096FBF0F100FB1160C5B200240CE005F1CC
:1009D000100101EB4101064A663A02EB4101085D54
:1009E00000F0CEF9601CC4B2062CF0DBBDE8F0814B
:1009F000021500082DE9F04105464727642095FBC4
:100A0000F0F0C6B206213846FFF742FF632D10DD35
:100A100000240BE006F1100101EB41012D4A02EB2D
:100A20004101085D00F0ACF9601CC4B2062CF1DB9A
:100A300008E0002404E0002000F0A2F9601CC4B229
:100A4000062CF8DB642095FBF0F100FB11500A2125
:100A500090FBF1F0C6B2B91DC8B20621FFF718FF2E
:100A6000092D10DD00240BE006F1100101EB41011E
:100A7000184A02EB4101085D00F082F9601CC4B223
:100A8000062CF1DB08E0002404E0002000F078F9F7
:100A9000601CC4B2062CF8DB0A2095FBF0F100FBC9
:100AA0001150C6B207F10C01C8B20621FFF7F0FEE3
:100AB00000240BE006F1100101EB4101054A02EBB5
:100AC0004101085D00F05CF9601CC4B2062CF1DB4A
:100AD000BDE8F0819C1400082DE9F0410546472748
:100AE000642095FBF0F0C6B204213846FFF7D0FE33
:100AF000632D10DD00240BE006F1100101EB410134
:100B00002D4A02EB4101085D00F03AF9601CC4B2C5
:100B1000062CF1DB08E0002404E0002000F030F9AE
:100B2000601CC4B2062CF8DB642095FBF0F100FBDE
:100B300011500A2190FBF1F0C6B2B91DC8B20421D0
:100B4000FFF7A6FE092D10DD00240BE006F11001D1
:100B500001EB4101184A02EB4101085D00F010F978
:100B6000601CC4B2062CF1DB08E0002404E0002085
:100B700000F006F9601CC4B2062CF8DB0A2095FBD5
:100B8000F0F100FB1150C6B207F10C01C8B204210C
:100B9000FFF77EFE00240BE006F1100101EB41019E
:100BA000054A02EB4101085D00F0EAF8601CC4B29E
:100BB000062CF1DBBDE8F0819C1400082DE9F04122
:100BC000054641274FF47A7095FBF0F0C6B202213A
:100BD0003846FFF75DFEB5F57A7F10DB00240BE0A9
:100BE00006F1100101EB4101434A02EB4101085DAE
:100BF00000F0C6F8601CC4B2062CF1DB08E000244B
:100C000004E0002000F0BCF8601CC4B2062CF8DB45
:100C10004FF47A7095FBF0F100FB1150642190FBCA
:100C2000F1F0C6B2B91DC8B20221FFF731FE632D43
:100C300010DD00240BE006F1100101EB41012E4A0A
:100C400002EB4101085D00F09BF8601CC4B2062C69
:100C5000F1DB08E0002404E0002000F091F8601CC3
:100C6000C4B2062CF8DB642095FBF0F100FB1150B8
:100C70000A2190FBF1F0C6B207F10C01C8B20221C3
:100C8000FFF706FE092D10DD00240BE006F1100130
:100C900001EB4101184A02EB4101085D00F070F8D8
:100CA000601CC4B2062CF1DB08E0002404E0002044
:100CB00000F066F8601CC4B2062CF8DB0A2095FB35
:100CC000F0F100FB1150C6B207F11201C8B20221C7
:100CD000FFF7DEFD00240BE006F1100101EB4101FE
:100CE000054A02EB4101085D00F04AF8601CC4B2FD
:100CF000062CF1DBBDE8F0819C14000870B50446B9
:100D0000082540211C48FFF7BDFD012000F06AFBCB
:100D100020211A48FFF7B6FD052000F063FB24E010
:100D200004F0800038B110211448FFF7ADFD012018
:100D300000F058FB06E010211048FFF7A3FD01204A
:100D400000F050FB20210D48FFF79EFD032000F02E
:100D500049FB20210948FFF795FD012000F042FBE7
:100D60006006040E012000F03DFB281EA5F10101E4
:100D7000CDB2D5D170BD0000000002400008024095
:100D800070B50446082540211C48FFF77DFD012071
:100D900000F028FB20211A48FFF774FD052000F021
:100DA00021FB24E004F0800038B110211448FFF743
:100DB0006BFD012000F016FB06E010211048FFF744
:100DC00061FD012000F00EFB20210D48FFF75CFDC6
:100DD000032000F007FB20210948FFF753FD012005
:100DE00000F000FB6006040E012000F0FBFA281E54
:100DF000A5F10101CDB2D5D170BD000000000240C7
:100E00000008024000BFFEE77047704729B1064A5C
:100E100012680243044B1A6004E0034A12688243DA
:100E2000014B1A60704700003038024070470000E4
:100E30000CB50020019000903448006840F48030E8
:100E40003249086000BF3148006800F4003000906B
:100E50000198401C0190009818B90198B0F5A04F76
:100E6000F1D12A48006800F4003010B10120009050
:100E700001E0002000900098012846D1234840302E
:100E8000006840F0805021494031086020480068E7
:100E900040F440401E4908601C48083000681B4967
:100EA000083108600846006840F4004008600846C1
:100EB000006840F4A05008601648091F0860081F29
:100EC000006840F08070091F086000BF0F4800688C
:100ED00000F000700028F9D040F205700E4908605B
:100EE0000A480830006820F003000849083108600B
:100EF0000846006840F00200086000BF0348083060
:100F0000006800F00C000828F8D10CBD0038024041
:100F10000070004008544007003C0240042808D1FB
:100F20004FF0E021096941F004014FF0E022116126
:100F300007E04FF0E021096921F004014FF0E022C1
:100F4000116170477047000010B51548006840F403
:100F50007000134908601348006840F0010011490F
:100F6000086000200F49083108600E4800680E49EB
:100F700008400C4908600D48091D0860081F0068FA
:100F800020F48020091F0860002006490C31086009
:100F9000FFF74EFF4FF0006001498039086010BD37
:100FA00088ED00E000380240FFFFF6FE103000241C
:100FB00070B5064640F23F13EF2200210846FFF7C6
:100FC00079FA00240BE0002504E0304600F078F9BF
:100FD000681C85B2B5F5A07FF7DB601C84B2F02CED
:100FE000F1DB70BD1CB501210846FFF70FFF0121A1
:100FF0000220FFF70BFF01210420FFF707FF062067
:10100000009001208DF8040000208DF806000320D8
:101010008DF8050001208DF807006946A148FFF70B
:10102000E9FB0120009000208DF8040003208DF8DA
:10103000050002208DF8070069469A48FFF7DAFBA1
:101040004FF40050009001208DF8040000208DF82E
:10105000060003208DF8050001208DF80700694681
:101060009148FFF7C7FB0820009001208DF804008D
:1010700000208DF8060003208DF8050001208DF872
:10108000070069468948FFF7B5FB012088490860D9
:101090008849C1F88C028849086000208749C1F856
:1010A0008802642000F082F901208349091D08604C
:1010B000642000F07BF9CF2000F022F9002000F03E
:1010C00011F9D92000F00EF9302000F00BF9ED20D5
:1010D00000F016F9642000F005F9032000F002F991
:1010E000122000F0FFF8812000F0FCF8E82000F06A
:1010F00007F9852000F0F6F8102000F0F3F87820CA
:1011000000F0F0F8CB2000F0FBF8392000F0EAF80E
:101110002C2000F0E7F8002000F0E4F8342000F084
:10112000E1F8022000F0DEF8F72000F0E9F82020D6
:1011300000F0D8F8EA2000F0E3F8002000F0D2F840
:10114000002000F0CFF8C02000F0DAF8212000F0F5
:10115000C9F8C12000F0D4F8122000F0C3F8C5206F
:1011600000F0CEF8322000F0BDF83C2000F0BAF8D4
:10117000C72000F0C5F8C12000F0B4F8362000F018
:10118000BFF8082000F0AEF83A2000F0B9F855207A
:1011900000F0A8F8B12000F0B3F8002000F0A2F8A9
:1011A000182000F09FF8B62000F0AAF80A2000F0FE
:1011B00099F8A22000F096F8F22000F0A1F80020A3
:1011C00000F090F8262000F09BF8012000F08AF84B
:1011D000E02000F095F80F2000F084F8202000F0C7
:1011E00081F81E2000F07EF8092000F07BF8122024
:1011F00000F078F80B2000F075F8502000F072F83D
:10120000BA2000F06FF8442000F06CF8092000F0DC
:1012100069F8142000F066F8052000F063F8232038
:1012200000F060F8212000F05DF8002000F05AF88E
:10123000E12000F065F8002000F054F8192000F0DB
:1012400051F8192000F04EF8002000F04BF8122061
:1012500000F048F8072000F045F82D2000F042F893
:10126000282000F03FF83F2000F03CF8022000F07A
:1012700039F80A2000F036F8082000F033F825206D
:1012800000F030F82D2000F02DF80F2000F02AF8A3
:10129000112000F035F8782000F088F8292000F0BF
:1012A0002FF81CBD0000024000040240000802406C
:1012B000B482404200004142840240420000404269
:1012C00010B50446012006490860052000F08AF8A0
:1012D000C4F3072000F022F8E0B200F01FF810BDC0
:1012E0008402404210B504460120044908600520EC
:1012F00000F078F8204600F011F810BD840240425A
:1013000010B50446002004490860052000F06AF882
:10131000204600F003F810BD8402404270B5044638
:1013200000251CE000200F490860052000F05AF855
:1013300004F0800018B101200B49086002E0002091
:1013400009490860052000F04DF8012005490860B2
:10135000052000F047F86006040E681CC5B2082D91
:10136000E0DB70BDB48240428C02414200BFFEE728
:1013700010B504466FF00400FFF7D0FDE11704EB51
:101380005171C1F3C701074A11701046007800EB94
:101390004001C1EBC0104FF6FF7101EAC0000249E5
:1013A000088010BD1C0000201E00002070B50446FF
:1013B0004FF4077094FBF0F0C6B24FF4077094FB43
:1013C000F0F100FB114085B205E04FF4077000F02A
:1013D0002FF8701EC6B2002EF7D115B1284600F0C6
:1013E00027F870BD0146114A12784A434FF0E023B6
:1013F0005A6100229A611A46126942F001021A618A
:1014000000BF4FF0E022106900F001021AB100F4B1
:101410008032002AF5D04FF0E022126922F001025A
:101420004FF0E0231A6100229A6170471C000020EF
:101430000146114A12884A434FF0E0235A610022C4
:101440009A611A46126942F001021A6100BF4FF018
:10145000E022106900F001021AB100F48032002A83
:10146000F5D04FF0E022126922F001024FF0E023A4
:101470001A6100229A6170471E000020A820FFF721
:1014800077FFFFF7AFFD4FF6FF70FFF791FD00BF4D
:10149000FEE74FF04070E1EE100A704700000000D8
:1014A00000000000002F00000000070007000014EB
:1014B0007F147F1400242A7F2A12006264081323F9
:1014C00000364955225000000503000000001C2290
:1014D0004100000041221C000014083E08140008CE
:1014E000083E0808000000A060000008080808087E
:1014F000000060600000002010080402003E514916
:10150000453E0000427F40000042615149460021B3
:1015100041454B31001814127F10002745454539CD
:10152000003C4A4949300001710905030036494928
:10153000493600064949291E0000363600000000E1
:10154000563600000008142241000014141414142C
:1015500000004122140800020151090600324959D5
:10156000513E007C1211127C007F49494936003EF1
:1015700041414122007F4141221C007F49494941AC
:10158000007F09090901003E4149497A007F0808A6
:10159000087F0000417F4100002040413F01007F63
:1015A00008142241007F40404040007F020C027F2F
:1015B000007F0408107F003E4141413E007F090941
:1015C0000906003E4151215E007F09192946004667
:1015D000494949310001017F0101003F4040403F3E
:1015E000001F2040201F003F4038403F0063140888
:1015F0001463000708700807006151494543000063
:101600007F41410000552A552A55000041417F0085
:10161000000402010204004040404040000001027A
:101620000400002054545478007F48444438003863
:101630004444442000384444487F003854545418EB
:1016400000087E0901020018A4A4A47C007F0804FD
:1016500004780000447D4000004080847D00007FCD
:10166000102844000000417F4000007C04180478EA
:10167000007C0804047800384444443800FC2424E6
:1016800024180018242418FC007C080404080048CE
:101690005454542000043F444020003C4040207CEF
:1016A000001C2040201C003C4030403C00442810DE
:1016B0002844001CA0A0A07C004464544C448080BA
:1016C00080808080E41600080000002020000000D8
:1016D000C401000804170008200000206006000074
:1016E000E001000800000000000000000000000011
:1016F00000000000000000000000000000000000EA
:0417000000000000E5
:040000050800018965
:00000001FF
