:020000040800F2
:100000009816002029020008BD2300084D1500089D
:10001000B92300083F070008053D00080000000064
:10002000000000000000000000000000552500084E
:10003000010B00080000000039240008412D0008D1
:10004000430200084302000843020008430200087C
:10005000430200084302000843020008E90B0008BD
:10006000B50C00087D0D00081D0E000843020008B5
:10007000430200084302000843020008430200084C
:10008000430200084302000843020008430200083C
:10009000430200084302000843020008E50E00087E
:1000A000430200084302000843020008430200081C
:1000B00043020008253800084302000843020008F4
:1000C00043020008430200084302000843020008FC
:1000D00043020008430200084302000843020008EC
:1000E0001D0B0008430200084302000843020008F9
:1000F00043020008430200084302000843020008CC
:1001000043020008430200084302000843020008BB
:1001100043020008430200084302000843020008AB
:10012000430200084302000843020008430200089B
:10013000430200084302000843020008430200088B
:10014000430200084302000843020008430200087B
:10015000430200084302000843020008430200086B
:10016000430200084302000843020008430200085B
:10017000430200084302000843020008430200084B
:10018000430200084302000800F002F800F03CF8C7
:100190000AA090E8000C82448344AAF10107DA45E2
:1001A00001D100F031F8AFF2090EBAE80F0013F0F8
:1001B000010F18BFFB1A43F0010318470456000053
:1001C00024560000103A24BF78C878C1FAD85207E4
:1001D00024BF30C830C144BF04680C6070470000C1
:1001E0000023002400250026103A28BF78C1FBD840
:1001F000520728BF30C148BF0B6070471FB504F0DD
:10020000CDF91FBD10B510BD00F063F81146FFF722
:10021000F5FF04F01BF800F081F803B4FFF7F2FFDC
:1002200003BC00F089F800000948804709480047EE
:10023000FEE7FEE7FEE7FEE7FEE7FEE7FEE7FEE796
:10024000FEE7FEE704480549054A064B70470000F3
:10025000452D0008890100089810002098160020FC
:10026000981200209812002010B5203AC0F00B80A0
:10027000B1E81850203AA0E81850B1E81850A0E8AA
:100280001850BFF4F5AF5FEA027C24BFB1E8185004
:10029000A0E8185044BF18C918C0BDE810405FEA74
:1002A000827C24BF51F8043B40F8043B08BF7047F0
:1002B000D20728BF31F8023B48BF11F8012B28BFF5
:1002C00020F8023B48BF00F8012B70477047704789
:1002D0007047754600F02CF8AE4605006946534657
:1002E00020F00700854618B020B5FFF7ABFFBDE84A
:1002F00020404FF000064FF000074FF000084FF08D
:10030000000B21F00701AC46ACE8C009ACE8C0091D
:10031000ACE8C009ACE8C0098D46704710B504468A
:10032000AFF300802046BDE81040FFF776BF000025
:10033000004870473810002001491820ABBEFEE786
:10034000260002007047000010B5094800780949EE
:10035000097888420AD00A2003F010FF0548007887
:10036000034908700348007802F016F910BD000038
:1003700010000020000000201CB50121202002F008
:100380008BF83020009001208DF8040000208DF8BB
:10039000060003208DF8050001208DF8070069464E
:1003A000044800F061FE0120034908600349C1F8D8
:1003B00094021CBD001402409082424200804242DE
:1003C0000021124A11601249096821F44061104A63
:1003D00011601146096841F48061116000210D4AE5
:1003E000C2F89412002001E0411CC8B21428FBDBC3
:1003F0000121064A1160002001E0411CC8B2142806
:10040000FBDB0021014A11607047000090824242EC
:1004100000140240008042420021104A116010493D
:10042000096821F440610E4A11601146096841F4DF
:1004300080611160002001E0411CC8B21428FBDB80
:100440000121064A1160002001E0411CC8B21428B5
:10045000FBDB0021014A116070470000908242429C
:10046000001402401249096821F44061104A1160E9
:100470001146096841F48061116001210D4A116043
:100480000D4AC2F89012002001E0411CC8B2322887
:10049000FBDB0021074A1160002001E0411CC8B2CB
:1004A0003228FBDB0021034A121F11607047000055
:1004B000001402409482424200804242124909687C
:1004C00021F44061104A11601146096841F48061CD
:1004D000116000210D4A11600D4AC2F890120020EF
:1004E00001E0411CC8B23228FBDB0121074A121F80
:1004F0001160074AC2F89412002001E0411CC8B202
:100500003228FBDB70470000001402409482424214
:100510000080424210B5002400231748006820F4F0
:1005200040601549086008460068086001201349CA
:10053000086000BF01E0581CC3B2142BFBDB012094
:100540000E49091F0860002301E0581CC3B2142B98
:10055000FBDB07E0601CC4B2FA2C03DDFFF7AEFF43
:10056000012010BD0548803800680028F2D10349F9
:10057000091F086000BFF4E7001402409482424261
:1005800010B5FFF7F9FE10BD30B50446FFF76AFF5E
:10059000A02000F04FF8FFF7BDFF204600F04AF81A
:1005A000FFF7B8FFFFF75EFFA12000F043F8FFF769
:1005B000B1FF002000F006F80546FFF77FFF284650
:1005C00030BD000070B505461748006820F4406053
:1005D0001549086008460068086000261AE00020F7
:1005E00012490860002301E0581CC3B2142BFBDB46
:1005F00001200E4908606006040E0D48D0F8140270
:100600002044C4B2002301E0581CC3B2142BFBDB0E
:10061000701CC6B2082EE2DB15B1FFF7D1FE01E077
:10062000FFF7FAFE204670BD00140240908242425D
:100630000080424210B50146194B1B6823F4406309
:10064000174C236023461B6843F480632360002318
:10065000144C236000221FE0CB09124C241D2360A0
:100660004B06190E002001E0431CD8B21428FBDB16
:1006700001230C4C2360002001E0431CD8B2142855
:10068000FBDB0023074C2360002001E0431CD8B2B1
:100690001428FBDB531CDAB2082ADDDB10BD000096
:1006A000001402409082424270B506460C46FFF7A5
:1006B000D9FEA020FFF7BEFFFFF72CFF3046FFF763
:1006C000B9FFFFF727FF2046FFF7B4FFFFF722FF30
:1006D000FFF7F4FE002500E06D1C02488542FBD3C5
:1006E00070BD000040420F00F0B504460D461646AE
:1006F0001F462A2003F06CF8C4F3072003F05CF8CF
:10070000E0B203F059F8C6F3072003F055F8F0B251
:1007100003F052F82B2003F05BF8C5F3072003F039
:100720004BF8E8B203F048F8C7F3072003F044F8A9
:10073000F8B203F041F82C2003F04AF8F0BD00BFF6
:10074000FEE7000039B1084A1268012383401A43CA
:10075000054B1A6006E0044A1268012383409A435D
:10076000014B1A60704700000074004041B1094A13
:1007700012684FF4805383401A43064B1A6007E017
:10078000044A12684FF4805383409A43014B1A6025
:10079000704700000074004000B593B00121480587
:1007A00001F07AFE0121480701F086FE04200F9037
:1007B00000201090022012900FA9002000F0A2F853
:1007C0001A4800F0C5F84FF060600090184801909A
:1007D000184802901848008804904FF40060079071
:1007E000089040200390002005904FF48060069010
:1007F0008010099040020A9000200B9001200C907C
:1008000000200D900E906946084800F04DF9012136
:10081000064800F091F801210020FFF793FF012125
:100820000020FFF7A3FF13B000BD00008860024066
:1008300008740040380000202800002000B593B064
:100840000121480501F028FE0121480701F034FE8E
:1008500014200F9000201090022012900FA9102059
:1008600000F050F8224800F073F84FF060600090FC
:1008700020480190204802902048008804904FF4BE
:1008800000600790089040200390002005904FF4EE
:10089000806006908010099040020A9000200B9022
:1008A00001200C9000200D900E906946104800F039
:1008B000FBF81348007801280CD101210C4800F006
:1008C0003BF801211020FFF73DFF01211020FFF729
:1008D0004DFF0BE00021064800F02EF8002110200B
:1008E000FFF730FF00211020FFF740FF13B000BDDD
:1008F000A060024014740040380800202A00002044
:100900002200002030B5002200230A4C226840F665
:10091000FE748440A243D1E900452C438D682C43EA
:10092000CD6844EA050303FA00F42243014C226037
:1009300030BD00000074004021B1026842F00102A5
:10094000026003E0026822F00102026070470000CA
:10095000016821F0010101600021016041608160B6
:10096000C1600161212141614A49884204D13D2190
:10097000484A103A91608CE046491831884205D1C6
:100980004FF47461434A103A916082E0414930313A
:10099000884205D14FF474113E4A103A916078E0D4
:1009A0003C494831884205D14FF07461394A103AC8
:1009B00091606EE037496031884204D13649354A4A
:1009C000103AD16065E033497831884204D1334927
:1009D000304A103AD1605CE02E499031884204D10F
:1009E0002F492C4A103AD16053E02A49A831884255
:1009F00005D14FF03D51274A103AD16049E02949CD
:100A0000884204D13D21274A083A116041E0254936
:100A10001831884205D14FF47461224A083A1160B6
:100A200037E020493031884205D14FF474111D4A16
:100A3000083A11602DE01B494831884205D14FF03A
:100A40007461184A083A116023E0164960318842FF
:100A500004D11149134A121F11601AE0114978316B
:100A6000884204D10D490F4A121F116011E00D494F
:100A70009031884204D10A490A4A121F116008E0E5
:100A80000849A831884204D14FF03D51054A121F50
:100A900011607047106002403D000020400F0020B0
:100AA00000003D201064024010B500220268134B84
:100AB0001A40CC680B6823434C6923438C69234359
:100AC000CC6923430C6A23434C6A23438C6A234337
:100AD0004C6B23438C6B23431A430260426922F020
:100AE0000702D1E90B3423431A4342610B69436087
:100AF0004B6883608B68C36010BD00003F801CF0B2
:100B00007047002007E0002101E04A1CD1B21429FF
:100B1000FBDB421CD0B25028F5DB704770B50025D6
:100B2000FFF7EFFF2D480068012851D1C00200F007
:100B300045FA00284CD0FFF7E4FF2848001D006864
:100B400001280FD126480088B0F5FA7F04DB4FF466
:100B5000FA702349088012E021480088401C20498F
:100B600008800CE01E4800880A2803DC0A201C4983
:100B7000088004E01A480088401E19490880184877
:100B80000488E01704EB1060C0F307210520FFF78D
:100B90008BFD13480488E01704EB10600012A4EBEF
:100BA0000020C1B20620FFF77FFD0D4801880D48E7
:100BB000008801F093F906E0FFF7A3FF681CC5B2B7
:100BC000032D00DD03E0054800680128F4D000BFD4
:100BD0004FF4006000F0ECF970BD00002C024042C0
:100BE000040000200600002070B50025FFF789FFF3
:100BF0002C480068012850D1022000F0DFF90028BD
:100C00004BD0FFF77EFF2848006801280FD1274806
:100C10000088B0F5FA7F04DB4FF4FA7023490880AE
:100C200012E0224800880A30204908800CE01F4862
:100C30000088002803DC00201C49088004E01B48D1
:100C400000880A381949088018480488E01704EB1E
:100C50001060C0F307210320FFF726FD1348048826
:100C6000E01704EB10600012A4EB0020C1B20420D6
:100C7000FFF71AFD0E4801880C48008801F02EF994
:100C800006E0FFF73EFF681CC5B2032D00DD03E060
:100C9000044800680128F4D000BF022000F088F961
:100CA00070BD000004824242100242420600002051
:100CB0000400002070B50025FFF723FF2C480068D2
:100CC000012850D1042000F079F900284BD0FFF71B
:100CD00018FF2848006801280DD127480088C82837
:100CE00003DBC8202449088012E0234800880A302A
:100CF000214908800CE020480088282803DC2820AF
:100D00001D49088004E01C4800880A381A490880F8
:100D100019480488E01704EB1060C0F30721012094
:100D2000FFF7C2FC14480488E01704EB10600012BF
:100D3000A4EB0020C1B20220FFF7B6FC0E480088E9
:100D400000F0E0FF0C48008802F04AFC06E0FFF7E4
:100D5000D8FE681CC5B2032D00DD03E0044800681E
:100D60000128F4D000BF042000F022F970BD00007B
:100D7000088242420C0242420200002010B50024C8
:100D8000FFF7BFFE2248006801283AD1FFF7B9FEFD
:100D90002048006801280DD11F480078FF2803DB98
:100DA000FF201D49087012E01B480078401C1A49BA
:100DB00008700CE018480078002803DC0020164971
:100DC000087004E014480078401E13490870124867
:100DD00001780020FFF768FC0F48007800F086FEDD
:100DE0000D48007802F0B8F906E0FFF78AFE601CB3
:100DF000C4B2032C00DD03E0054800680128F4D0EC
:100E000000BF082000F0D4F8FFF77BFE10BD000003
:100E10000C824242080242420000002070B50025C8
:100E2000FFF76FFE2C480068012851D1102000F018
:100E3000C5F800284CD0FFF764FE2748001D006865
:100E400001280FD125480088B0F5FA7F04DB4FF464
:100E5000FA702249088012E020480088401C1F498F
:100E600008800CE01D4800880A2803DC0A201B4982
:100E7000088004E019480088401E18490880174877
:100E80000488E01704EB1060C0F307210920FFF786
:100E90000BFC12480488E01704EB10600012A4EB6E
:100EA0000020C1B20A20FFF7FFFB0C4801880C4864
:100EB000008801F0F5F806E0FFF723FE681CC5B2D4
:100EC000032D00DD03E0044800680128F4D000BFD2
:100ED000102000F06DF870BD1002434208000020A1
:100EE0000A00002070B50025FFF70BFE2D480068B2
:100EF000012851D1000200F061F800284CD0FFF722
:100F000000FE2848001D006801280FD126480088EF
:100F1000B0F5FA7F04DB4FF4FA702349088012E041
:100F2000214800880A30204908800CE01E480088CB
:100F3000002803DC00201C49088004E01A480088CF
:100F40000A381949088018480488E01704EB106033
:100F5000C0F307210720FFF7A7FB13480488E01719
:100F600004EB10600012A4EB0020C1B20820FFF7D0
:100F70009BFB0E4801880C48008801F091F806E0C0
:100F8000FFF7BFFD681CC5B2032D00DD03E0054877
:100F900000680128F4D000BF4FF4807000F008F81A
:100FA00070BD0000200241420A000020080000201D
:100FB0000149086070470000143C014001460020D0
:100FC000034A12680A400AB1012000E0002070477D
:100FD000143C0140002123498279002A3AD00A4674
:100FE000126803689A430B461A600A1D1268036868
:100FF0009A430B1D1A60027911440A6803681A4368
:101000000A60184A0832126803689A43154B08337D
:101010001A601A1D126803689A43124B0C331A6047
:101020004279102A0ED11A1F126803681A430D4B19
:1010300008331A601A1D126803681A43094B0C33EF
:101040001A600DE00749427911440A6803681A439F
:101050000A6005E0027911440A6803689A430A604D
:1010600070470000003C0140F0B50A460021002313
:10107000002400BF3DE0012505FA01F3156805EAEB
:1010800003049C4234D105684F000326BE40B5439B
:10109000056015794E00B540066835430560157941
:1010A000012D02D01579022D16D185684F00032637
:1010B000BE40B543856055794E00B54086683543DE
:1010C0008560456801268E40B54345604568967940
:1010D0008E40B6B235434560C5684F000326BE401A
:1010E000B543C560D5794E00B540C6683543C56087
:1010F000491C1029BFD3F0BDF0B5002300244D07D3
:10110000ED0E02FA05F3CE1000F1200555F8265039
:101110004E07F70E0F26BE40B543CF1000F1200654
:1011200046F82750CE1000F1200555F8265045EA24
:101130000304CE1000F1200545F82640F0BD4183A0
:10114000704701837047000000B585B00121402041
:1011500001F0A2F90320039001208DF81000002077
:101160008DF8120003208DF8110001208DF8130076
:1011700003A9F048FFF778FF0121102001F08CF956
:101180004FF4C070039001208DF8100000208DF8FE
:10119000120003208DF8110001208DF8130003A91F
:1011A000E548FFF761FF0121082001F075F91C20D7
:1011B000039000208DF8100003208DF8110002200C
:1011C0008DF8130003A9DD48FFF74EFF012104202D
:1011D00001F062F9C020039001208DF8100000207A
:1011E0008DF8120003208DF8110001208DF81300F6
:1011F00003A9D348FFF738FF0121082001F04CF97B
:101200004FF44040039001208DF8100000208DF82D
:10121000120003208DF8110001208DF8130003A99E
:10122000C648FFF721FF0121402001F035F9CC200D
:10123000039001208DF8100000208DF8120003208B
:101240008DF8110001208DF8130003A9B948FFF7AC
:101250000BFF4FF48060039001208DF810000020F8
:101260008DF8120003208DF8110001208DF8130075
:1012700003A9B048FFF7F8FE4FF48061AD48FFF7CF
:1012800060FF0121402001F007F94FF40060039056
:1012900000208DF8100003208DF8110001208DF83A
:1012A000130003A9A348FFF7DFFE0121082001F086
:1012B000F3F84FF4E050039001208DF81000002067
:1012C0008DF8120003208DF8110001208DF8130015
:1012D00003A99A48FFF7C8FE4FF4E0519748FFF77B
:1012E0002EFF0121084601F0D7F84FF4C0500390BB
:1012F00000208DF8100003208DF8110002208DF8D9
:10130000130003A98F48FFF7AFFE0121042001F06D
:10131000C3F84FF44070039000208DF810000320B4
:101320008DF8110002208DF8130003A98448FFF7FF
:101330009BFE0121102001F0AFF81C20039000203B
:101340008DF8100003208DF8110002208DF8130095
:1013500003A97948FFF788FE0121202001F09CF8BD
:101360000E20039000208DF8100003208DF811004E
:1013700002208DF8130003A97348FFF775FE0121C1
:10138000402001F089F83020039000208DF81000F3
:1013900003208DF8110002208DF8130003A9654881
:1013A000FFF762FE0121880301F096F80B2100206F
:1013B00001F0D2F80821022001F0CEF80121052029
:1013C00001F0CAF80221052001F0C6F8032105202A
:1013D00001F0C2F80421062001F0BEF802200190BD
:1013E00000208DF8080008208DF8090001208DF8F4
:1013F0000A0001A8FFF7EEFD07208DF8000002208B
:101400008DF801008DF8020001208DF80300684678
:1014100000F0D6FF0420019000208DF8080008207D
:101420008DF8090001208DF80A0001A8FFF7D2FD10
:1014300008208DF8000002208DF801008DF80200D0
:1014400001208DF80300684600F0BAFF08200190E3
:1014500000208DF8080008208DF8090001208DF883
:101460000A0001A8FFF7B6FD09208DF80000022050
:101470008DF801008DF8020001208DF80300684608
:1014800000F09EFF1020019000208DF80800082039
:101490008DF8090001208DF80A0001A8FFF79AFDD8
:1014A0000A208DF8000002208DF801008DF802005E
:1014B00001208DF80300684600F082FF4FF4807031
:1014C000019000208DF8080008208DF80900012007
:1014D0008DF80A0001A8FFF77DFD17208DF80000A8
:1014E00002208DF801008DF8020001208DF8030024
:1014F000684600F065FF4FF40060019000208DF811
:10150000080008208DF8090001208DF80A0001A8C4
:10151000FFF760FD28208DF8000002208DF8010003
:101520008DF8020001208DF80300684600F048FFA6
:1015300005B000BD0018024000100240000C02403F
:1015400000080240000002400014024000BFFEE715
:1015500010B514480068012802D11349087002E050
:10156000002011490870114800780F490978884215
:1015700017D00D4800780D490870084600780128FA
:1015800003D10849A031086003E000200549A031DB
:1015900008600648007801F0DBFF0448007800F09E
:1015A00043FB10BD088241420C00002020000020B7
:1015B00010B514480068012802D11349087002E0F0
:1015C000002011490870114800780F4909788842B5
:1015D00017D00D4800780D4908700846007801289A
:1015E00003D10849A431086003E000200549A43173
:1015F00008600648007802F056F80448007800F0C9
:1016000021FC10BD0C8241420D0000202100002071
:1016100010B51D480068012802D11C49087002E07D
:1016200000201A4908701A48007818490978884239
:1016300028D0164800781649087008460078012816
:101640000CD101211348FFF777F901211020FFF792
:1016500079F801211020FFF789F80BE000210D48EF
:10166000FFF76AF900211020FFF76CF80021102025
:10167000FFF77CF80648007800F022FB0448007869
:1016800001F09DFF10BD0000108241420E000020BD
:1016900022000020A06002402DE9F04F91B0052605
:1016A0000527B046B146B246B346052010900F90CC
:1016B000A3A103C9CDE90D01A3A103C9CDE90B0184
:1016C000A3A103C9CDE90901A3A103C9CDE907017C
:1016D000A3A000680690A3A103C9CDE90401A3A1BA
:1016E00003C9CDE90201A3A103C9CDE90001002589
:1016F00018E0062101FB0561C8B2002100F0E2F903
:1017000000240BE00DA9495D01EB41019B4A02EB6E
:101710004101085D00F00CFE601CC4B2062CF1DB38
:10172000681CC5B2062DE4DB002518E0062101FB8C
:101730000571C8B2012100F0C5F900240BE00BA926
:10174000495D01EB41018D4A02EB4101085D00F06A
:10175000EFFD601CC4B2062CF1DB681CC5B2062D7F
:10176000E4DB002518E0062101FB0581C8B2022157
:1017700000F0A8F900240BE009A9495D01EB410143
:101780007E4A02EB4101085D00F0D2FD601CC4B24C
:10179000062CF1DB681CC5B2062DE4DB002518E041
:1017A000062101FB0591C8B2032100F08BF900244A
:1017B0000BE007A9495D01EB4101704A02EB4101D1
:1017C000085D00F0B5FD601CC4B2062CF1DB681C9E
:1017D000C5B2062DE4DB002519E006220F9902FBB5
:1017E0000511C8B2042100F06DF900240BE006A930
:1017F000495D01EB4101614A02EB4101085D00F0E6
:1018000097FD601CC4B2062CF1DB681CC5B2042D28
:10181000E3DB002518E0062101FB05A1C8B2052184
:1018200000F050F900240BE004A9495D01EB4101EF
:10183000524A02EB4101085D00F07AFD601CC4B21F
:10184000062CF1DB681CC5B2062DE4DB002518E090
:10185000062101FB05B1C8B2062100F033F90024CE
:101860000BE002A9495D01EB4101444A02EB410151
:10187000085D00F05DFD601CC4B2062CF1DB681C45
:10188000C5B2052DE4DB002519E00622109902FB04
:101890000511C8B2072100F015F900240BE01DF86E
:1018A000051001EB4101354A02EB4101085D00F0F2
:1018B0003FFD601CC4B2062CF1DB681CC5B2082DCC
:1018C000E3DB02212A2000F0FDF8002406E02B498A
:1018D000C631085D00F02CFD601CC4B2062CF6DB9E
:1018E00003212A2000F0EEF8002406E02349C63147
:1018F000085D00F01DFD601CC4B2062CF6DB022161
:101900004B2000F0DFF8002406E01C49E431085DBC
:1019100000F00EFD601CC4B2062CF6DB03214B2048
:1019200000F0D0F8002406E01449E431085D00F02E
:10193000FFFC601CC4B2062CF6DB11B0BDE8F08FD2
:1019400021242E554D1A000030554C53451A0000E5
:1019500033494E45111A000033494E45121A000012
:101960003245441A2C415345521A00002D4F44452C
:101970001A0000003741524E494E471AA64500084A
:1019800070B50646002415E004F1B001C8B200F0BD
:101990008BFC012000F088FC102000F085FC002565
:1019A00004E0304600F0C4FC681CC5B2802DF8DBB2
:1019B000601CC4B2082CE7DB70BD000010B54FF40A
:1019C00080713E48FFF7BDFB02213D48FFF7B7FBA2
:1019D000322002F0D3FB02213948FFF7B2FB00208E
:1019E00000F0F9FE0A2002F0C9FB802000F0E1FEC1
:1019F0000A2002F0C3FB3F2000F002FF0A2002F0A1
:101A0000BDFB002000F0DEFE0A2002F0B7FB002044
:101A100000F036FE0A2002F0B1FB042000F0AEFE1A
:101A20000A2002F0ABFB022000F018FE0A2002F0B0
:101A3000A5FB012000F0F6FE0A2002F09FFB082023
:101A400000F0B0FE0A2002F099FB102000F0A0FE8A
:101A50000A2002F093FBCF2000F009FE0A2002F0DA
:101A60008DFBF12000F0D5FE0A2002F087FB40201C
:101A700000F0DFFE0A2002F081FB002000F0B2FE41
:101A80000A2002F07BFB002000F0B3FE0A2002F0E7
:101A900075FB012000F09FFE0A2002F06FFB002082
:101AA000FFF76EFF0A2002F069FB0021084600F0F4
:101AB00009F80A2002F062FB10BD0000001002408D
:101AC0000018024070B504460D4605F1B001C8B2D9
:101AD00000F0EAFB102141EA141000F0E5FB04F0ED
:101AE0000F0141F0010000F0DFFB70BD2DE9F04176
:101AF00006462A27072526E007F12A01062202FBCF
:101B00001511C8B20021FFF7DDFF0120A8403040C9
:101B100050B1002405E04349085D00F009FC601C59
:101B2000C4B2062CF7DB0AE0002406E03D49891F19
:101B3000085D00F0FDFB601CC4B2062CF6DB05B9A5
:101B400003E0681EC5B2002DD6DA00BF00215F2079
:101B5000FFF7B8FF642096FBF0F0C5B2632E11DDED
:101B600000240CE005F1100101EB41012D4A663A19
:101B700002EB4101085D00F0DBFB601CC4B2062CE7
:101B8000F0DB08E0002404E0002000F0D1FB601C42
:101B9000C4B2062CF8DB00216520FFF793FF642018
:101BA00096FBF0F100FB11600A2190FBF1F0C5B249
:101BB000092E11DD00240CE005F1100101EB4101BB
:101BC000184A663A02EB4101085D00F0B1FB601C67
:101BD000C4B2062CF0DB08E0002404E0002000F092
:101BE000A7FB601CC4B2062CF8DB00216B20FFF7BA
:101BF00069FF0A2096FBF0F100FB1160C5B20024DA
:101C00000CE005F1100101EB4101064A663A02EBD6
:101C10004101085D00F08CFB601CC4B2062CF0DBB7
:101C2000BDE8F0810C46000870B505462A2605215E
:101C30003046FFF747FF012D1ED1002404E00020AD
:101C400000F076FB601CC4B2062CF8DB002405E033
:101C50001A49085D00F06CFB601CC4B2062CF7DB6F
:101C6000002406E01549891F085D00F061FB601C37
:101C7000C4B2062CF6DB1FE0002405E00F49085D26
:101C800000F056FB601CC4B2062CF7DB002406E013
:101C90000A493639085D00F04BFB601CC4B2062CC3
:101CA000F6DB002406E005493639085D00F040FB0C
:101CB000601CC4B2062CF6DB70BD00008047000833
:101CC00070B50546242606213046FFF7FBFE012DA0
:101CD0000AD1002405E00A49085D00F029FB601CD8
:101CE000C4B2062CF7DB0AE0002406E00449891F91
:101CF000085D00F01DFB601CC4B2062CF6DB70BD55
:101D0000124600082DE9F041054632274FF47A705B
:101D100095FBF0F0C6B201213846FFF7D3FEB5F5CA
:101D20007A7F10DB00240BE006F1100101EB41018A
:101D3000434A02EB4101085D00F0FAFA601CC4B2AC
:101D4000062CF1DB08E0002404E0002000F0F0FAAB
:101D5000601CC4B2062CF8DB4FF47A7095FBF0F1EE
:101D600000FB1150642190FBF1F0C6B2B91DC8B25E
:101D70000121FFF7A7FE632D10DD00240BE006F123
:101D8000100101EB41012E4A02EB4101085D00F018
:101D9000CFFA601CC4B2062CF1DB08E0002404E09A
:101DA000002000F0C5FA601CC4B2062CF8DB6420E9
:101DB00095FBF0F100FB11500A2190FBF1F0C6B247
:101DC00007F10C01C8B20121FFF77CFE092D10DDDF
:101DD00000240BE006F1100101EB4101184A02EB6F
:101DE0004101085D00F0A4FA601CC4B2062CF1DBCE
:101DF00008E0002404E0002000F09AFA601CC4B25D
:101E0000062CF8DB0A2095FBF0F100FB1150C6B25E
:101E100007F11201C8B20121FFF754FE00240BE0C4
:101E200006F1100101EB4101054A02EB4101085D99
:101E300000F07EFA601CC4B2062CF1DBBDE8F08134
:101E4000A645000870B50546202604213046FFF758
:101E500039FE012D1ED1002404E0002000F068FAB4
:101E6000601CC4B2062CF8DB002405E01A49085DAA
:101E700000F05EFA601CC4B2062CF7DB002406E01A
:101E80001549891F085D00F053FA601CC4B2062C86
:101E9000F6DB1FE0002405E00F49085D00F048FA7A
:101EA000601CC4B2062CF7DB002406E00A49363970
:101EB000085D00F03DFA601CC4B2062CF6DB00247D
:101EC00006E005493639085D00F032FA601CC4B2FC
:101ED000062CF6DB70BD0000804700082DE9F047B6
:101EE00005460E464FF032084FF05509642095FB29
:101EF000F0F0C7B202214046FFF7E4FD632D10DD8C
:101F000000240BE007F1100101EB4101634A02EBF1
:101F10004101085D00F00CFA601CC4B2062CF1DB34
:101F200008E0002404E0002000F002FA601CC4B2C3
:101F3000062CF8DB642095FBF0F100FB11500A2120
:101F400090FBF1F0C7B208F10601C8B20221FFF719
:101F5000B9FD092D10DD00240BE007F1100101EBA4
:101F600041014E4A02EB4101085D00F0E1F9601CBD
:101F7000C4B2062CF1DB08E0002404E0002000F0ED
:101F8000D7F9601CC4B2062CF8DB0A2095FBF0F1EF
:101F900000FB1150C7B208F10C01C8B20221FFF7D3
:101FA00091FD00240BE007F1100101EB41013B4AD8
:101FB00002EB4101085D00F0BBF9601CC4B2062CC5
:101FC000F1DB642096FBF0F0C7B202214846FFF730
:101FD00079FD632E10DD00240BE007F1100101EB09
:101FE00041012E4A02EB4101085D00F0A1F9601C9D
:101FF000C4B2062CF1DB08E0002404E0002000F06D
:1020000097F9601CC4B2062CF8DB642096FBF0F153
:1020100000FB11600A2190FBF1F0C7B209F1060143
:10202000C8B20221FFF74EFD092E10DD00240BE09F
:1020300007F1100101EB4101184A02EB4101085D73
:1020400000F076F9601CC4B2062CF1DB08E0002435
:1020500004E0002000F06CF9601CC4B2062CF8DB30
:102060000A2096FBF0F100FB1160C7B209F10C01E8
:10207000C8B20221FFF726FD00240BE007F1100192
:1020800001EB4101054A02EB4101085D00F050F906
:10209000601CC4B2062CF1DBBDE8F087A645000841
:1020A0002DE9F04705460E464FF032084FF055092E
:1020B000642095FBF0F0C7B203214046FFF702FD14
:1020C000632D10DD00240BE007F1100101EB41014D
:1020D000634A02EB4101085D00F02AF9601CC4B2BA
:1020E000062CF1DB08E0002404E0002000F020F9D9
:1020F000601CC4B2062CF8DB642095FBF0F100FBF9
:1021000011500A2190FBF1F0C7B208F10601C8B2E4
:102110000321FFF7D7FC092D10DD00240BE007F1A8
:10212000100101EB41014E4A02EB4101085D00F054
:10213000FFF8601CC4B2062CF1DB08E0002404E0C8
:10214000002000F0F5F8601CC4B2062CF8DB0A2071
:1021500095FBF0F100FB1150C7B208F10C01C8B2B9
:102160000321FFF7AFFC00240BE007F1100101EBA6
:1021700041013B4A02EB4101085D00F0D9F8601CC7
:10218000C4B2062CF1DB642096FBF0F0C7B2032149
:102190004846FFF797FC632E10DD00240BE007F1A3
:1021A000100101EB41012E4A02EB4101085D00F0F4
:1021B000BFF8601CC4B2062CF1DB08E0002404E088
:1021C000002000F0B5F8601CC4B2062CF8DB6420D7
:1021D00096FBF0F100FB11600A2190FBF1F0C7B211
:1021E00009F10601C8B20321FFF76CFC092E10DDCE
:1021F00000240BE007F1100101EB4101184A02EB4A
:102200004101085D00F094F8601CC4B2062CF1DBBB
:1022100008E0002404E0002000F08AF8601CC4B24A
:10222000062CF8DB0A2096FBF0F100FB1160C7B228
:1022300009F10C01C8B20321FFF744FC00240BE0B4
:1022400007F1100101EB4101054A02EB4101085D74
:1022500000F06EF8601CC4B2062CF1DBBDE8F0871C
:10226000A645000870B50546372607213046FFF71A
:1022700029FC012D0AD1002405E00A49085D00F07F
:1022800057F8601CC4B2062CF7DB0AE0002406E015
:102290000449891D085D00F04BF8601CC4B2062C8F
:1022A000F6DB70BD0646000870B50446082501211E
:1022B0001D48FEF744FF012001F07CFF69011B4827
:1022C000FEF73DFF052001F075FF26E004F08000D9
:1022D00038B180211548FEF734FF012001F06AFF74
:1022E00006E080211148FEF72AFF012001F062FF7D
:1022F0004FF480710D48FEF724FF032001F05AFFD0
:102300004FF480710948FEF71AFF012001F052FFD7
:102310006006040E012001F04DFF281EA5F1010109
:10232000CDB2D3D170BD00000018024000100240B1
:1023300070B50446082501211D48FEF702FF012063
:1023400001F038FF69011B48FEF7F9FE052001F096
:1023500031FF26E004F0800038B180211548FEF7F7
:10236000F0FE012001F026FF06E080211148FEF773
:10237000E6FE012001F01EFF4FF480710D48FEF7CC
:10238000E0FE032001F016FF4FF480710948FEF7CC
:10239000D6FE012001F00EFF6006040E012001F0C0
:1023A00009FF281EA5F10101CDB2D3D170BD0000F7
:1023B000001802400010024000BFFEE77047000016
:1023C00070B5002100230F22C4781CB3174C246879
:1023D00004F4E064C4F5E064C4F30721C1F104042B
:1023E000E3B20A4144789C40E1B28478144021432E
:1023F0000C07210E0E4C05786155047804F01F057A
:102400000124AC4005786D11AD0005F1E025C5F85B
:10241000004109E0047804F01F050124AC40054D9B
:102420000678761145F8264070BD00000CED00E0FE
:1024300000E400E080E100E0704700001CB51048B7
:10244000008810490988884219D00A2001F096FEB8
:102450000C4800880A490880084600880A4991FB10
:10246000F0F0401E0949088041F2883009880223B3
:10247000074ACDE900105115064801F0EBFD1CBDDF
:102480001200002002000020409002002C000020DA
:10249000000001400000024029B1064A12680243D0
:1024A000044B1A6004E0034A12688243014B1A602D
:1024B000704700003038024029B1064A12680243D2
:1024C000044B1A6004E0034A12688243014B1A600D
:1024D000704700004038024029B1064A12680243A2
:1024E000044B1A6004E0034A12688243014B1A60ED
:1024F000704700004438024010B51348006818B90E
:1025000001201249087002E00020104908701048AC
:1025100000780E490978884214D00C4800780C499C
:10252000087008460078012804D1002006497C3153
:10253000086003E0012004497C3108600448007809
:10254000FFF790FE10BD00002C0243420F00002058
:10255000230000207047000030B500228B071C0FBD
:102560000F2303FA04F20B4B8C1053F824309343DF
:10257000084C8D1044F8253023468C1053F8243035
:102580008C07240F00FA04F42343024C8D1044F806
:10259000253030BD0838014000F0010119B101219A
:1025A0002B4A116002E00021294A116000F002016B
:1025B00021B10121264A121F116003E00021244AA3
:1025C000121F116000F0040119B10121214A1160AC
:1025D00002E000211F4A116000F0080121B1012131
:1025E0001C4A121F116003E000211A4A121F1160D9
:1025F00000F0100121B10121164A103A116003E0E8
:102600000021144A103A116000F0200121B101218B
:10261000104A143A116003E000210E4A143A116086
:1026200000F0400119B101210B4A116002E00021C4
:10263000094A116000F0800121B10121064A121FF0
:10264000116003E00021044A121F1160704700006E
:102650009C0241429C024342BC82414210B5044666
:102660002020FFF721FE2046FFF71EFE10BD10B50B
:1026700004468120FFF718FE2046FFF715FE10BD27
:1026800010B5044644F04000FFF70EFE10BD0000F8
:102690000CB50020019000903448006840F4803070
:1026A0003249086000BF3148006800F400300090F3
:1026B0000198401C0190009818B90198B0F5A04FFE
:1026C000F1D12A48006800F4003010B101200090D8
:1026D00001E0002000900098012846D123484030B6
:1026E000006840F08050214940310860204800686F
:1026F00040F440401E4908601C48083000681B49EF
:10270000083108600846006840F400400860084648
:10271000006840F4A05008601648091F0860081FB0
:10272000006840F08070091F086000BF0F48006813
:1027300000F000700028F9D040F205700E490860E2
:102740000A480830006820F0030008490831086092
:102750000846006840F00200086000BF03480830E7
:10276000006800F00C000828F8D10CBD00380240C9
:102770000070004008544007003C024010B5044679
:102780008D20FFF791FD44F01000FFF78DFD10BD87
:1027900010B50446DA20FFF787FD44F00200FFF78A
:1027A00083FD10BD10B5044644F0C000FFF77CFD6A
:1027B00010BD10B50446D520FFF776FD2046FFF783
:1027C00073FD10BD10B50446D320FFF76DFD204604
:1027D000FFF76AFD10BD10B5044644F0AE00FFF7E8
:1027E00063FD10BD10B5044644F0A400FFF75CFD86
:1027F00010BD10B5044644F0A600FFF755FD10BD0E
:1028000010B50446A820FFF74FFD2046FFF74CFD0A
:1028100010BD10B50446D920FFF746FD2046FFF74E
:1028200043FD10BD10B5044644F0A000FFF73CFD89
:1028300010BD10B50446DB20FFF736FD2046FFF73C
:1028400033FD10BD10B51D4800881D490988884218
:1028500005D11C4800881C49098888422CD00A20D0
:1028600001F08CFC1648008814490880164800883E
:1028700014490880124801881248008801F01AFDA6
:1028800010480088114991FBF0F01149098890FB2C
:10289000F1F0401E0F4908800A4800880E4991FB5C
:1028A000F0F0401E84B2204600F0EAFF094800889C
:1028B00001F014F8FDF770FF10BD000016000020B5
:1028C00006000020140000200400002080DE8002AA
:1028D000280000201C0000204016400010B51848B9
:1028E000008818490988884205D117480088174987
:1028F0000988884222D0142001F040FC1148008849
:102900000F490880114800880F4908800D48018848
:102910000D48008801F088FD0B4800880C4991FBA8
:10292000F0F00C49098890FBF1F0401E0A4908803C
:102930000846008800F0ECFFFDF780FF10BD0000A6
:102940001A0000200A0000201800002008000020C3
:1029500080DE80022A0000201E0000201CB5FEF749
:102960009BFE0020FDF710FEC9490870084600785C
:10297000FFF7BCF8C648007800F0EEFBC4480078CA
:10298000C4490870C2480078FFF706FE0120FDF731
:10299000FBFDC1490880084600884FF6FF7101EA37
:1029A0000020BD4908800220FDF7EEFDBA490988E4
:1029B0000844B949088008460088B8490880084694
:1029C0000088B74991FBF0F0401EB649088041F2FB
:1029D000883009880223B44ACDE900105115B34864
:1029E00001F038FBAC48008800F0FAFDAA480088E6
:1029F000FFF788F90320FDF7C7FDAD4908800846B9
:102A000000884FF6FF7101EA0020A94908800420E0
:102A1000FDF7BAFDA64909880844A54908800520A4
:102A2000FDF7B2FDA3490880084600884FF6FF7104
:102A300001EA00209F4908800620FDF7A5FD9D4979
:102A4000098808449B4908800846018898480088FE
:102A5000FFF744FA9648008897490880954800880F
:102A600096490880924801889448008801F022FC29
:102A700092480088924991FBF0F09249098890FBB6
:102A8000F1F0401E904908808C4800888F4991FBE6
:102A9000F0F0401E84B2204600F0F2FE8A48008822
:102AA00000F01CFFFDF778FE0720FDF76DFD88495B
:102AB0000880084600884FF6FF7101EA002084492B
:102AC00008800820FDF760FD814909880844804995
:102AD00008800920FDF758FD7E49088008460088D7
:102AE0004FF6FF7101EA00207A4908800A20FDF7BD
:102AF0004BFD7849098808447649088008460188D2
:102B000073480088FFF7CCFA714800887249088042
:102B100070480088714908806D4801886F480088B6
:102B200001F082FC6D480088654991FBF0F06C492A
:102B3000098890FBF1F0801E6A49088008460088E9
:102B400000F0E6FEFDF77AFE67480068012802D132
:102B50006649087002E00020644908706348007804
:102B6000634908700846007801280AD15E49A031FF
:102B70000860642001F002FB01205E49C1F8AC024C
:102B800006E000205849A03108605A49C1F8AC025B
:102B900057480078FFF748F85548007800F0D8FC0F
:102BA0005148001D0068012802D15349087002E015
:102BB0000020514908705048007850490870084674
:102BC0000078012803D14849A831086003E00020BB
:102BD0004549A831086049480078FFF733F947486C
:102BE000007800F060FD404808300068012802D1FC
:102BF0004349087002E000204149087040480078CD
:102C0000404908700846007801280CD101213E484F
:102C1000FDF792FE01211020FDF794FD0121102007
:102C2000FDF7A4FD0BE000213748FDF785FE0021EC
:102C30001020FDF787FD00211020FDF797FD31489A
:102C4000007800F0BCFC2F480078FFF739F82F48D7
:102C5000006818B901202E49087002E000202C49B4
:102C600008702B4800782B49087008460078012826
:102C700004D1002025497C31086003E0012023496C
:102C80007C31086023480078FFF7ECFA1CBD000097
:102C90000000002010000020020000201200002090
:102CA000409002002C000020000001400000024083
:102CB0000600002004000020160000201400002060
:102CC00080DE8002280000201C000020401640000A
:102CD0000A000020080000201A0000201800002030
:102CE0002A0000201E000020088241420C00002023
:102CF00020000020008041420D0000202100002023
:102D00000E00002022000020A06002402C0243425E
:102D10000F00002023000020042808D14FF0E021FC
:102D2000096941F004014FF0E022116107E04FF022
:102D3000E021096921F004014FF0E02211617047A0
:102D40007047000010B51548006840F47000134942
:102D500008601348006840F0010011490860002035
:102D60000F49083108600E4800680E4908400C49B8
:102D700008600D48091D0860081F006820F48020C5
:102D8000091F0860002006490C310860FFF780FC2D
:102D90004FF0006001498039086010BD88ED00E007
:102DA00000380240FFFFF6FE1030002470B50646E2
:102DB00040F23F13EF2200210846FDF795FC002466
:102DC0000BE0002504E0304600F0E6FC681C85B20C
:102DD000B5F5A07FF7DB601C84B2F02CF1DB70BD91
:102DE0002DE9F0474FF01E093E2461258426A727D0
:102DF0004FF0CA084FF0D40A00F0A4FC0DA22146FF
:102E00003C2000F087FC0EA229463C2000F082FC0A
:102E10000DA231463C2000F07DFC0CA239463C203E
:102E200000F078FC0BA241463C2000F073FCBDE8AA
:102E3000F08700004C6173657220506F77657200F7
:102E400050756C7365000000526564004C617365D9
:102E5000720000004D6F6465000000007CB5012128
:102E60000846FFF719FB01210220FFF715FB01219E
:102E70000420FFF711FB0720009001208DF80400CB
:102E800000208DF8060003208DF8050001208DF844
:102E900007006946AA48FEF7E7F84FF40050009093
:102EA00001208DF8040000208DF8060003208DF825
:102EB000050001208DF807006946A248FEF7D4F806
:102EC0000820009001208DF8040000208DF80600F5
:102ED00003208DF8050001208DF8070069469A4807
:102EE000FEF7C2F80120994908609949C1F8B40277
:102EF000984908609549091D08600020091D08606F
:102F0000002407E0002501E0681C85B2642DFBDB8E
:102F1000601C84B2B4F57A7FF4DB01208B49083160
:102F20000860002407E0002501E0681C85B2642DDC
:102F3000FBDB601C84B2B4F57A7FF4DBCF2000F0B9
:102F400047FC002000F038FCD92000F035FC302090
:102F500000F032FCED2000F03BFC642000F02CFC83
:102F6000032000F029FC122000F026FC812000F054
:102F700023FCE82000F02CFC852000F01DFC102034
:102F800000F01AFC782000F017FCCB2000F020FCA9
:102F9000392000F011FC2C2000F00EFC002000F085
:102FA0000BFC342000F008FC022000F005FCF720A8
:102FB00000F00EFC202000F0FFFBEA2000F008FCEF
:102FC000002000F0F9FB002000F0F6FBC02000F02C
:102FD000FFFB212000F0F0FBC12000F0F9FB1220E4
:102FE00000F0EAFBC52000F0F3FB322000F0E4FB28
:102FF0003C2000F0E1FBC72000F0EAFBC12000F01C
:10300000DBFB362000F0E4FB082000F0D5FB3A2083
:1030100000F0DEFB552000F0CFFBB12000F0D8FB24
:10302000002000F0C9FB182000F0C6FBB62000F01D
:10303000CFFB0A2000F0C0FBA22000F0BDFBF22075
:1030400000F0C6FB002000F0B7FB262000F0C0FB1C
:10305000012000F0B1FBE02000F0BAFB0F2000F0EF
:10306000ABFB202000F0A8FB1E2000F0A5FB0920F0
:1030700000F0A2FB122000F09FFB0B2000F09CFB55
:10308000502000F099FBBA2000F096FB442000F09D
:1030900093FB092000F090FB142000F08DFB05202D
:1030A00000F08AFB232000F087FB212000F084FB46
:1030B000002000F081FBE12000F08AFB002000F0FE
:1030C0007BFB192000F078FB192000F075FB002035
:1030D00000F072FB122000F06FFB072000F06CFB89
:1030E0002D2000F069FB282000F066FB3F2000F057
:1030F00063FB022000F060FB0A2000F05DFB08206B
:1031000000F05AFB252000F057FB2D2000F054FB67
:103110000F2000F051FB112000F05AFB002407E0C3
:10312000002501E0681C85B2C82DFBDB601C84B261
:1031300041F288308442F3DB292000F049FB7CBD5A
:1031400000000240000402400008024080024042A9
:10315000008040428C0241422DE9F0478146D7274A
:103160004FF03E084FF47A7009FB00F0FF2190FB0E
:10317000F1F085B20A2D32DAC7F5A07084B2C246EA
:1031800030222146504600F0EFF8A4F10C0084B242
:103190002E222146504600F0E7F8A4F10C0084B23C
:1031A00005F13000C2B22146504600F0DDF8A4F12E
:1031B0000C0084B225222146504600F0D5F8A4F137
:1031C0000C0084B220222146504600F0CDF8A4F134
:1031D0000C0084B220222146504600F0C5F80A2D8A
:1031E0003DDB642D3BDAC7F5A07084B2C2460A20ED
:1031F00095FBF0F0C6B206F13000C2B2214650464F
:1032000000F0B2F8A4F10C0084B22E222146504600
:1032100000F0AAF8A4F10C0084B20A2095FBF0F1AA
:1032200000FB1150C6B206F13000C2B22146504632
:1032300000F09AF8A4F10C0084B2252221465046F1
:1032400000F092F8A4F10C0084B2202221465046EE
:1032500000F08AF820222146504600F085F8642DBF
:103260004CDBB5F57A7F49DAC7F5A07084B2C24667
:10327000642095FBF0F0C6B206F13000C2B22146E0
:10328000504600F071F8A4F10C0084B2642095FB64
:10329000F0F100FB11500A2190FBF1F0C6B206F1EB
:1032A0003000C2B22146504600F05EF8A4F10C0096
:1032B00084B22E222146504600F056F8A4F10C00AC
:1032C00084B20A2095FBF0F100FB1150C6B206F162
:1032D0003000C2B22146504600F046F8A4F10C007E
:1032E00084B225222146504600F03EF8A4F10C009D
:1032F00084B220222146504600F036F8B5F57A7F98
:1033000030D1C7F5A07084B2C24631222146504662
:1033100000F02AF8A4F10C0084B230222146504675
:1033200000F022F8A4F10C0084B23022214650466D
:1033300000F01AF8A4F10C0084B22E222146504667
:1033400000F012F8A4F10C0084B23022214650465D
:1033500000F00AF8A4F10C0084B225222146504660
:1033600000F002F8BDE8F0872DE9F04F07468A46E5
:1033700014464048B0F80090BB46302C05DB392C91
:1033800003DCA4F13000C4B218E0412C05DB5A2C58
:1033900003DCA4F13700C4B210E0612C05DB7A2C09
:1033A00003DCA4F13D00C4B208E0202C01D140248C
:1033B00004E02E2C01D13E2400E03F240AF10F034B
:1033C00007F1170251463846FDF78EF9002523E034
:1033D00000261DE0700004EB440100EB0110401CCE
:1033E000254911F80080C5F107010120884000EA55
:1033F000080018B11F48A0F8009003E01F4800889B
:103400001C4908801B48008800F0C6F9701CC6B231
:10341000182EDFDB681CC5B2082DD9DB002522E0A1
:1034200000261CE0700004EB440100EB011012497F
:1034300011F80080C5F107010120884000EA08006A
:1034400018B10C48A0F8009003E00C480088094926
:1034500008800848008800F09FF9701CC6B2182E3A
:10346000E0DB681CC5B2082DDADB0248A0F800904A
:10347000BDE8F08F26000020CE4700082400002081
:103480002DE9F04F07468A4616462E48B0F80090C0
:10349000BB460AF10F0307F11F0251463846FDF7FC
:1034A00023F9002521E000241BE0600000EB8610DA
:1034B000401C254911F80080C5F107010120884012
:1034C00000EA080018B11F48A0F8009003E01F4868
:1034D00000881C4908801B48008800F05DF9601CCA
:1034E000C4B2202CE1DB681CC5B2082DDBDB002553
:1034F00020E000241AE0600000EB8610124911F869
:103500000080C5F107010120884000EA080018B1D9
:103510000C48A0F8009003E00C4800880949088096
:103520000848008800F038F9601CC4B2202CE2DBA7
:10353000681CC5B2082DDCDB0248A0F80090BDE88D
:10354000F08F000026000020FE5300082400002019
:103550002DE9F0410546D726A727C6F5A074B84641
:10356000012D15D16F2221464046FFF7FDFEA4F143
:103570000C0084B26E2221464046FFF7F5FEA4F10E
:103580000C0084B2202221464046FFF7EDFE14E0F5
:103590006F2221464046FFF7E7FEA4F10C0084B2FB
:1035A000662221464046FFF7DFFEA4F10C0084B2FC
:1035B000662221464046FFF7D7FEBDE8F0812DE99F
:1035C000F0410446D725CA26C5F5A078374604F150
:1035D0003100C2B241463846FFF7C6FEBDE8F08171
:1035E0002DE9F0430446D7274FF06108C7F5A075D1
:1035F000C146642C22DA0A2094FBF0F0C6B206F130
:103600003000C2B229464846FFF7AEFEA5F10C00D5
:1036100085B20A2094FBF0F100FB1140C6B206F11E
:103620003000C2B229464846FFF79EFEA5F10C00C5
:1036300085B2202229464846FFF796FE642C30DBEF
:10364000642094FBF0F0C6B206F13000C2B2294605
:103650004846FFF789FEA5F10C0085B2642094FB73
:10366000F0F100FB11400A2190FBF1F0C6B206F127
:103670003000C2B229464846FFF776FEA5F10C009D
:1036800085B20A2094FBF0F100FB1140C6B206F1AE
:103690003000C2B229464846FFF766FEA5F10C008D
:1036A00085B2BDE8F0832DE9F0410546D726842791
:1036B000C6F5A074B846012D15D16F2221464046AB
:1036C000FFF752FEA4F10C0084B26E222146404660
:1036D000FFF74AFEA4F10C0084B2202221464046A6
:1036E000FFF742FE14E06F2221464046FFF73CFE02
:1036F000A4F10C0084B2662221464046FFF734FE56
:10370000A4F10C0084B2662221464046FFF72CFE4D
:10371000BDE8F0812DE9F04105460E461446C5F599
:10372000A07087B2B04608E0227839464046FFF7DD
:103730001BFEA7F10C0087B2641C20780028F3D18F
:10374000BDE8F0812DE9F04186B014220DA101A859
:10375000FCF78AFD1C260F27C6F5A075B846002485
:103760000AE001A8025D29464046FFF789FEA5F15F
:10377000100085B2601CC4B2122CF2DB06B0BDE8AA
:10378000F08100000001020E03040005060E070888
:10379000090A0B0C0B0D000010B504460120054969
:1037A0000860C4F3072000F01FF8E0B200F01CF836
:1037B00010BD00008402404210B5044601200349B8
:1037C0000860204600F010F810BD0000840240425E
:1037D00010B50446002003490860204600F004F8B4
:1037E00010BD000084024042002113E000220B4B78
:1037F0001A6000F080021AB10122094B1A6002E03F
:103800000022074B1A600122044B1A604206100E78
:103810004A1CD1B20829E9DB70470000B48240425B
:103820008C02414210B50121124800F0B5F8012880
:103830001AD111480078401C0F49087008460078DA
:10384000022807DB084600780A2803DC01200B4920
:10385000086002E0002009490860074800780B284A
:1038600002D10120044908700121024800F076F8D5
:1038700010BD00000004004036000020AC82414230
:103880001FB5044601210220FEF716FE0294012016
:10389000ADF804000020ADF80600ADF80C0001A959
:1038A0000D4800F0EDF9012211460B4800F085F8B3
:1038B0000121094800F055F81D208DF80000012075
:1038C0008DF8010003208DF8020001208DF803001F
:1038D0006846FEF775FD1FBD0004004010B50446A4
:1038E00001211020FEF7E8FD00220121074800F029
:1038F000B8F92146054800F0C0F92021034800F03E
:10390000B3F90121014800F02CF810BD001000406F
:1039100010B5044601212020FEF7CEFD0022012132
:10392000074800F09EF92146054800F0A6F920213D
:10393000034800F099F90121014800F012F810BD88
:103940000014004021B1028842F08002028004E0AD
:1039500002884FF67F731A4002807047CA43028282
:10396000704721B1028842F00102028004E002881F
:103970004FF6FE731A400280704731B1B0F8442010
:1039800042F40042A0F8442005E0B0F84420C2F31D
:103990000E02A0F84420704730B5024600200023F4
:1039A0000024158A05EA0103958905EA010413B18B
:1039B0000CB1012000E0002030BD1AB183890B4317
:1039C000838102E083898B438381704770B5002433
:1039D00000220023058C4FF6FE7635400584028CCC
:1039E0008388048B4FF68F752C40B51E2C400D88B4
:1039F0002C43751E2A408D892A434D882A43104D39
:103A0000A84202D00F4DA84213D14FF6F7752A40B5
:103A1000CD892A434FF6FB752A408D882A434FF6FD
:103A2000FF652B404FF6FF552B400D8A2B434D8AE7
:103A30002B43838004838D684563028470BD00003E
:103A400000000140000401400A460021018B4FF6AE
:103A5000F7731940114301837047000070B50024CB
:103A600000220023058C4FF6EF7635400584028C4A
:103A70008388048B48F6FF752C404FF6FF452C4099
:103A80000D884FF6FF7606EA05252C434FF6DF75C5
:103A90002A408D8906EA05152A434D8806EA051550
:103AA0002A43154DA84202D0144DA8421DD14FF60D
:103AB0007F752A40CD894FF6FF7606EA05152A4321
:103AC0004FF6BF752A408D8806EA05152A434FF642
:103AD000FF352B404FF2FF752B400D8A06EA850516
:103AE0002B434D8A06EA85052B43838004838D682A
:103AF0008563028470BD00000000014000040140A5
:103B00000A460021018B4FF2FF7319404FF6FF73F5
:103B100003EA0223194301837047000070B50024B3
:103B200000220023058C4FF6FF6635400584028C89
:103B30008388848B4FF68F752C404FF6FC752C4094
:103B40000D882C434FF6FF552A408D894FF6FF769E
:103B500006EA05252A434D8806EA05252A43154D20
:103B6000A84202D0144DA8421DD14FF2FF752A4041
:103B7000CD894FF6FF7606EA05252A434FF6FF3535
:103B80002A408D8806EA05252A434EF6FF752B400C
:103B90004DF6FF752B400D8A06EA05152B434D8A1D
:103BA00006EA05152B43838084838D68C5630284F0
:103BB00070BD000000000140000401400A460021E1
:103BC000818B4FF6F77319401143818370470000D2
:103BD00070B5002200230024058C4EF6FF76354098
:103BE0000584038C8488828B48F6FF752A404FF643
:103BF000FF452A400D884FF6FF7606EA05252A4341
:103C00004DF6FF752B408D8906EA05352B434D880F
:103C100006EA05352B430A4DA84202D0094DA842B9
:103C200008D14BF6FF752C400D8A4FF6FF7606EA59
:103C300085152C43848082838D680564038470BD60
:103C400000000140000401400A460021818B4FF230
:103C5000FF7319404FF6FF7303EA02231943818370
:103C6000704701858282704782884FF68F731A40B1
:103C7000828082880A4382807047C1627047000058
:103C800000220288184B98420ED0184B98420BD055
:103C9000B0F1804F08D0164B984205D0154B984292
:103CA00002D0154B984204D14FF68F731A404B88BF
:103CB0001A43124B984207D0114B984204D04FF64A
:103CC000FF431A400B891A4302804B68C3620B887A
:103CD0000385054B984202D0044B984201D18B7A60
:103CE00003860123838270470000014000040140E5
:103CF0000004004000080040000C0040001000409C
:103D00000014004000BFFEE72DE9FC4706460D46C3
:103D100014469946304600F0F5F807460121FEF7B3
:103D2000BBFB1F4884420BD01E48844208D01E486B
:103D3000844205D01D48844202D01D48844207D1E8
:103D4000204600F021F907460121FEF7C5FB06E0F9
:103D5000204600F019F907460121FEF7ADFB00955A
:103D600002208DF8040003208DF8050000208DF856
:103D7000060001208DF8070069463046FDF774F90A
:103D8000204600F017F80746284600F071F88046F4
:103D90003A4641463046FDF7AFF9BDE8FC870000E2
:103DA0000000014000040140004001400044014087
:103DB0000048014001460020224A914201D10120E1
:103DC0003FE0214A914201D103203AE01F4A91424B
:103DD00001D1032035E01E4A914201D1032030E099
:103DE0001C4A914201D103202BE0B1F1804F01D157
:103DF000012026E0184A914201D1022021E0174A11
:103E0000914201D102201CE0154A914201D10220C9
:103E100017E00D4A914201D1032012E00B4A914272
:103E200001D103200DE00F4A914201D1092008E0A1
:103E30000D4A914201D1092003E00C4A914200D180
:103E4000092070470000014000040140004001408B
:103E500000440140004801400004004000080040C8
:103E6000000C004000180040001C004000200040F2
:103E700001460020012900D142E0022901D10120A0
:103E80003EE0042901D102203AE0082901D10320B3
:103E900036E0102901D1042032E0202901D105208B
:103EA0002EE0402901D106202AE0802901D10720F7
:103EB00026E0B1F5807F01D1082021E0B1F5007F37
:103EC00001D109201CE0B1F5806F01D10A2017E073
:103ED000B1F5006F01D10B2012E0B1F5805F01D187
:103EE0000C200DE0B1F5005F01D10D2008E0B1F527
:103EF000804F01D10E2003E0B1F5004F00D10F201B
:103F00007047000001460020164A914201D101206D
:103F100026E0154A914201D1022021E0134A914244
:103F200001D104201CE0124A914201D1082017E07F
:103F3000104A914201D1102012E00F4A914201D162
:103F400020200DE00D4A914201D1402008E00C4AAA
:103F5000914201D1802003E00A4A914200D18815A4
:103F600070470000000002400004024000080240C8
:103F7000000C0240001002400014024000180240F1
:103F8000001C02400020024001460020244A9142C9
:103F900001D1012042E0234A914201D102203DE0BB
:103FA000214A914202D14FF4803037E01F4A9142BA
:103FB00002D14FF4003031E01D4A914202D14FF45A
:103FC00080202BE0B1F1804F01D1012026E0194A79
:103FD000914201D1022021E0174A914201D10420EF
:103FE0001CE0164A914201D1082017E0144A914280
:103FF00001D1102012E0134A914201D120200DE09E
:10400000114A914201D1402008E0104A914201D169
:10401000802003E00E4A914200D1881570470000CD
:104020000000014000040140004001400044014004
:10403000004801400004004000080040000C00401F
:10404000001000400014004000180040001C004018
:10405000002000402DE9F04389B007468846154608
:104060001C46DDE9106923462A4641463846FFF7DB
:104070004BFE07960020ADF81800ADF82000ADF813
:104080001A008DF8220006A92846FFF7F9FD6020E6
:10409000ADF804000120ADF80600701C4008039044
:1040A0000020ADF81000ADF80800ADF81200ADF832
:1040B0001400ADF81600012C08D101A92846FFF71D
:1040C00085FC08212846FFF7BFFC1FE0022C08D121
:1040D00001A92846FFF7C2FC08212846FFF710FD7A
:1040E00014E0032C08D101A92846FFF717FD082189
:1040F0002846FFF763FD09E0042C07D101A92846F3
:10410000FFF766FD08212846FFF79EFD012128469E
:10411000FFF718FC01212846FFF723FC06488542DB
:1041200002D00648854203D101212846FFF725FC2D
:1041300009B0BDE8F0830000000001400004014028
:1041400010B504466FF00400FEF7E6FDE11704EB3E
:104150005171C1F3C701074A11701046007800EB96
:104160004001C1EBC0104FF6FF7101EAC0000249E7
:10417000088010BD320000203400002070B50446D5
:104180004FF4077094FBF0F0C6B24FF4077094FB45
:10419000F0F100FB114085B205E04FF4077000F02C
:1041A0002FF8701EC6B2002EF7D115B1284600F0C8
:1041B00027F870BD0146114A12784A434FF0E023B8
:1041C0005A6100229A611A46126942F001021A618C
:1041D00000BF4FF0E022106900F001021AB100F4B4
:1041E0008032002AF5D04FF0E022126922F001025D
:1041F0004FF0E0231A6100229A61704732000020DC
:104200000146114A12884A434FF0E0235A610022C6
:104210009A611A46126942F001021A6100BF4FF01A
:10422000E022106900F001021AB100F48032002A85
:10423000F5D04FF0E022126922F001024FF0E023A6
:104240001A6100229A61704734000020002017494B
:1042500008804BF6404016490880A820FFF770FF01
:10426000FCF78EF9FCF770FFFDF7A8FBFEF7F6FDF3
:104270004BF64040FEF79AFDFEF7B2FDFEF76EFBEF
:1042800012E0FCF761F8FEF7D9F8FEF7DBFAFEF76B
:1042900025FBFDF75DF9FDF78BF9FDF7B9F9FEF7A1
:1042A0002BF90A20FFF76AFFEBE700002600002049
:1042B0002400002030B503460A46B2F5F07F01DD48
:1042C0004FF4F072C2EB022424014FF4FA7594FB10
:1042D000F5F1B1F57A6F00D9E900962B04DD4FF4C2
:1042E00000744F4D2C8003E04FF480644C4D2C80C3
:1042F00028292FD900200BE044004C43484D2D883D
:10430000B4FBF5F44134474D25F81040441CA0B2ED
:10431000434D2C8804EBD475B0EB650FECDB404DBE
:104320002C8804EBD475681010E04400A41C3C4DAC
:104330002D88641B4C433A4D2D88B4FBF5F40C1BBF
:104340004134384D25F81040441CA0B2344C248828
:10435000A042EADB282931D80A292FD300200BE01C
:1043600044004C432E4D2D88B4FBF5F45A342D4DAA
:1043700025F81040441CA0B2294D2C8804EBD475BC
:10438000B0EB650FECDB264D2C8804EBD475681080
:1043900010E04400A41C224D2D88641B4C43204D8A
:1043A0002D88B4FBF5F40C1B5A341E4D25F8104033
:1043B000441CA0B21A4C2488A042EADB79BB00203E
:1043C0000BE044004C43164D2D88B4FBF5F46934E2
:1043D000144D25F81040441CA0B2114D2C8804EB5C
:1043E000D475B0EB650FECDB0D4D2C8804EBD47568
:1043F000681010E04400A41C094D2D88641B4C4338
:10440000074D2D88B4FBF5F40C1B6934054D25F8D8
:104410001040441CA0B2024C2488A042EADB30BD0C
:10442000280000203800002030B503460A46B2F5C7
:10443000F07F01DD4FF4F072C2EB022424014FF44F
:10444000FA7594FBF5F1B1F57A6F00D9E900962B76
:1044500004DD4FF400744F4D2C8003E04FF4806472
:104460004C4D2C8028292FD900200BE044004C43D0
:10447000484D2D88B4FBF5F44134474D25F81040E4
:10448000441CA0B2434D2C8804EBD475B0EB650FEF
:10449000ECDB404D2C8804EBD475681010E0440030
:1044A000A41C3C4D2D88641B4C433A4D2D88B4FB15
:1044B000F5F40C1B4134384D25F81040441CA0B2D3
:1044C000344C2488A042EADB282931D80A292FD38A
:1044D00000200BE044004C432E4D2D88B4FBF5F436
:1044E0005A342D4D25F81040441CA0B2294D2C887B
:1044F00004EBD475B0EB650FECDB264D2C8804EB98
:10450000D475681010E04400A41C224D2D88641B53
:104510004C43204D2D88B4FBF5F40C1B5A341E4D32
:1045200025F81040441CA0B21A4C2488A042EADBB3
:1045300079BB00200BE044004C43164D2D88B4FBA2
:10454000F5F46934144D25F81040441CA0B2114D07
:104550002C8804EBD475B0EB650FECDB0D4D2C888B
:1045600004EBD475681010E04400A41C094D2D889C
:10457000641B4C43074D2D88B4FBF5F40C1B6934C8
:10458000054D25F81040441CA0B2024C2488A042DE
:10459000EADB30BD2A000020380800204FF04070D0
:1045A000E1EE100A70470000000000000000002F3C
:1045B000000000000700070000147F147F1400248F
:1045C0002A7F2A12006264081323003649552250BC
:1045D00000000503000000001C22410000004122F1
:1045E0001C000014083E08140008083E08080000DB
:1045F00000A06000000808080808000060600000D3
:10460000002010080402003E5149453E0000427F50
:104610004000004261514946002141454B3100189C
:1046200014127F10002745454539003C4A4949305E
:104630000001710905030036494949360006494918
:10464000291E000036360000000056360000000823
:104650001422410000141414141400004122140800
:1046600000020151090600324959513E007C1211E5
:10467000127C007F49494936003E41414122007F7A
:104680004141221C007F49494941007F0909090134
:10469000003E4149497A007F0808087F0000417FB9
:1046A0004100002040413F01007F08142241007F6B
:1046B00040404040007F020C027F007F0408107FD2
:1046C000003E4141413E007F09090906003E41513B
:1046D000215E007F091929460046494949310001F8
:1046E000017F0101003F4040403F001F2040201F4C
:1046F000003F4038403F006314081463000708700F
:10470000080700615149454300007F4141000055C1
:104710002A552A55000041417F000004020102048D
:10472000004040404040000001020400002054547A
:104730005478007F484444380038444444200038CA
:104740004444487F00385454541800087E0901023C
:104750000018A4A4A47C007F080404780000447D11
:104760004000004080847D00007F1028440000004D
:10477000417F4000007C04180478007C0804047821
:1047800000384444443800FC24242418001824240D
:1047900018FC007C08040408004854545420000409
:1047A0003F444020003C4040207C001C2040201C16
:1047B000003C4030403C004428102844001CA0A08D
:1047C000A07C004464544C44808080808080000041
:1047D0000000000000000000F00098010C030C0332
:1047E0000606060606060606060606060606060669
:1047F0000C030C039801F000000000000000000012
:104800000000000000000000400060007C0060002C
:104810006000600060006000600060006000600098
:10482000600060006000FC03000000000000000069
:104830000000000000000000F800840102030603ED
:104840000603000380018001C00020001000080260
:1048500004020202FE03FE0300000000000000004C
:1048600000000000000000007800C40086018601FE
:1048700086018001C0007000800100010003060372
:10488000060306038401F800000000000000000099
:1048900000000000000000018001C001C001A00173
:1048A000900190018801840184018201FE0780014A
:1048B000800180018001E00700000000000000008E
:1048C0000000000000000000FC03FC0304000400E2
:1048D00004000400F4008C01040300030003060339
:1048E000060382018401F8000000000000000000BF
:1048F0000000000000000000E00118030C030C00A1
:1049000004000600E60116030E0606060606060665
:1049100004060C021803F000000000000000000074
:104920000000000000000000F807FC070C02040172
:104930000401000180008000400040004000600051
:1049400060006000600060000000000000000000E7
:104950000000000000000000F8010C030606060637
:1049600006060E023C03F000CC0104030606060610
:10497000060606060C03F00100000000000000001F
:104980000000000000000000F0000C010C03060213
:1049900006060606060606078C06780600060003CD
:1049A00000030C018C0178000000000000000000F2
:1049B0000000000000000000600060007000D000F7
:1049C000D000C800880188018801F80104030403AD
:1049D0000403040606060F0F00000000000000009C
:1049E0000000000000000000FF008601060306032F
:1049F000060306038601FE000603060206060606F7
:104A0000060606060603FF01000000000000000085
:104A10000000000000000000E00718060C040C0471
:104A20000400060006000600060006000600060454
:104A30000C040C021801F00000000000000000004F
:104A400000000000000000007F008601060306034E
:104A500006060606060606060606060606060606F6
:104A600006030603C6017F000000000000000000EE
:104A70000000000000000000FF030602060406001C
:104A8000060086008600FE008600860006000600FE
:104A9000060406040602FF030000000000000000F8
:104AA0000000000000000000FF03060306040604E7
:104AB000060086008600FE008600860006000600CE
:104AC0000600060006000F000000000000000000C5
:104AD0000000000000000000F00218030C020C02AD
:104AE00004000600060006000600C60F06030603C3
:104AF0000C030C031803F00000000000000000008D
:104B000000000000000000000F0F06060606060663
:104B1000060606060606FE0706060606060606063C
:104B20000606060606060F0F000000000000000043
:104B30000000000000000000FC0360006000600056
:104B40006000600060006000600060006000600065
:104B5000600060006000FC03000000000000000036
:104B60000000000000000000F00F800180018001C3
:104B7000800180018001800180018001800180012D
:104B800080018001800180018601C6007C00000058
:104B90000000000000000000CF070601860046006C
:104BA0004600260036003E006E00E600C600C60144
:104BB0008601060306078F0F0000000000000000BA
:104BC00000000000000000000F00060006000600C4
:104BD00006000600060006000600060006000600A5
:104BE000060406040602FF030000000000000000A7
:104BF00000000000000000000F0F0E070E070E0758
:104C00009A069A069A069A065A067206720672065C
:104C1000720622062206270F000000000000000096
:104C20000000000000000000070E0E040E041A042D
:104C30001A04320462046204C204C2048205020738
:104C40000207020602060704000000000000000040
:104C50000000000000000000F00098010C030C02AE
:104C600006060606060606060606060606060606E4
:104C70000C020C039801F00000000000000000008E
:104C80000000000000000000FF0106030606060603
:104C90000606060606060603FE01060006000600D6
:104CA0000600060006000F000000000000000000E3
:104CB0000000000000000000F00098010C030C024E
:104CC0000606060606060606060606060606760614
:104CD0004C028C038801F0018007000300000000F3
:104CE0000000000000000000FF01060306060606A3
:104CF000060606060603FE006600C600C60086011C
:104D00008601060306030F0E0000000000000000ED
:104D10000000000000000000F8040C070604060470
:104D200006000E003C00F000C0030003000602066F
:104D3000020606060E03F20100000000000000005B
:104D40000000000000000000FE0762046108610826
:104D50006000600060006000600060006000600053
:104D6000600060006000F000000000000000000033
:104D700000000000000000000F0E060406040604F8
:104D800006040604060406040604060406040604D3
:104D9000060406040C02F8010000000000000000F8
:104DA00000000000000000001F0F0E060C020C02A5
:104DB0000C020C011801180118011801B000B00014
:104DC000B000F00060006000000000000000000083
:104DD0000000000000000000EF0E6604660466029A
:104DE0006602E602EC02EC02DC01DC01DC01DC0123
:104DF0009C0188008800880000000000000000007E
:104E000000000000000000009E070C0318011801BC
:104E10009800B000700060006000E000D000D00199
:104E2000980188010C039E070000000000000000AC
:104E300000000000000000001F0F0E060C020C0115
:104E400018011801B000B000700060006000600040
:104E5000600060006000F801000000000000000039
:104E60000000000000000000FC0704038203800132
:104E7000C001C000C00060006000300030001800B9
:104E800018041C040C02FE030000000000000000D7
:104E90000000000000000000000000000000000012
:104EA0000000F0010C030C03E00338030C030603BD
:104EB000060306038E0B7C0F0000000000000000BC
:104EC00000000000000008000E000C000C000C00A8
:104ED0000C00CC013C031C060C060C060C060C0650
:104EE0000C060C021C03F40100000000000000008E
:104EF00000000000000000000000000000000000B2
:104F00000000F0008C018C018601060006000600FE
:104F100006020C020C01F00000000000000000007E
:104F200000000000000000028003000300030003F3
:104F3000000378038C030C03060306030603060331
:104F4000060304038C077801000000000000000045
:104F50000000000000000000000000000000000051
:104F60000000E001180308060C06FC070C000C000A
:104F70000C0018043802E0010000000000000000EE
:104F80000000000000000000C00360063006300092
:104F90003000FE03300030003000300030003000C0
:104FA000300030003000FC01000000000000000074
:104FB00000000000000000000000000000000000F1
:104FC0000000F00E98090C030C030C039801F80084
:104FD0000C007C00F803060606060E07F801000028
:104FE00000000000000008000E000C000C000C0087
:104FF0000C00EC011C030C030C030C030C030C034E
:105000000C030C030C039E070000000000000000CE
:1050100000000000000000006000600000000000D0
:1050200000007C00600060006000600060006000C4
:10503000600060006000FC03000000000000000051
:10504000000000000000000080018001000000005E
:105050000000F00180018001800180018001800159
:1050600080018001800180018001CC007C00000073
:1050700000000000000008000E000C000C000C00F6
:105080000C00CC038C00CC004C006C007C00DC00DD
:10509000CC008C018C019E07000000000000000085
:1050A00000000000000040007C0060006000600024
:1050B00060006000600060006000600060006000F0
:1050C000600060006000FC030000000000000000C1
:1050D00000000000000000000000000000000000D0
:1050E00000007707EE066606660666066606660632
:1050F000660666066606EF0E00000000000000006F
:10510000000000000000000000000000000000009F
:105110000000CE013C030C030C030C030C030C0336
:105120000C030C030C039E070000000000000000AD
:10513000000000000000000000000000000000006F
:105140000000F00098010C03060606060606060697
:1051500006060C030C03F000000000000000000035
:10516000000000000000000000000000000000003F
:105170000000EE011C030C060C060C060C060C06C7
:105180000C060C031C03EC010C000C003E0000009C
:10519000000000000000000000000000000000000F
:1051A000000078028C030C030603060306030603C3
:1051B000060304038C03780300030003C007000008
:1051C00000000000000000000000000000000000DF
:1051D00000009F0758063800180018001800180033
:1051E000180018001800FF00000000000000000078
:1051F00000000000000000000000000000000000AF
:105200000000F00718060C040C003800F0018003C1
:10521000040604060C03FC0100000000000000006E
:10522000000000000000000000002000200030000E
:105230003000FE013000300030003000300030001F
:10524000300030023002E0010000000000000000E9
:10525000000000000000000000000000000000004E
:1052600008028E030C030C030C030C030C030C0349
:105270000C030C039C0778010000000000000000F4
:10528000000000000000000000000000000000001E
:1052900000003E0F1C0618021802300130013001D8
:1052A000E000E000E000400000000000000000001E
:1052B00000000000000000000000000000000000EE
:1052C0000000EF0DC604C604E604EC04AC039C0326
:1052D0009C039C030801080100000000000000007E
:1052E00000000000000000000000000000000000BE
:1052F0000000BE0718019801B00070006000E000D7
:10530000D00098018803DE070000000000000000C4
:10531000000000000000000000000000000000008D
:105320000000BE071C0118011801B000B000B00059
:105330006000600040002000200014001C000000FD
:10534000000000000000000000000000000000005D
:105350000000FC038401C401C000E0006000700094
:10536000300438041806FC030000000000000000B0
:10537000000000000000000000000000000000002D
:10538000000000000000000000000000000000001D
:1053900000001C001C001C000000000000000000B9
:1053A00000000000000000000E030A01110191003E
:1053B0009100D1005100FA03AE0260045004500481
:1053C0005804480488028403000000000000000024
:1053D00000000000000000000000000000000000CD
:1053E00000000000000000000000000000000000BD
:1053F00000000000000000000000000000000000AD
:1054000000000000000000000000E02730381830E5
:105410000C200C200C000C0018007800E003800F1A
:10542000001E0038007000600460046008601830DE
:105430003818C80F00000000000000000000000045
:10544000000000000000000000007E7C1818180812
:10545000180418061802180198019801D801B80319
:10546000380318071806180E180C181C18181830CE
:1054700018307EFC0000000000000000000000006A
:10548000000000000000000000007E7C1C101810CE
:1054900018083008300C700460046002C002C002BA
:1054A000C0018001800180018001800180018001B4
:1054B0008001E00700000000000000000000000084
:1054C000000000000000000000007E00180018002E
:1054D000180018001800180018001800180018000C
:1054E000180018001800180018001840184018205C
:1054F0001830FE3F00000000000000000000000027
:1055000000000000000000000001C001C001C00157
:10551000400160032003200320033006100610061C
:105520001006F80F080C080C080C0C0C04180418D2
:1055300006181F7C000000000000000000000000B2
:1055400000000000000000000000FE3F183018209E
:1055500018601840180018081808180CF80F180CD4
:1055600018081808180018001800184018401820CB
:105570001830FE3F000000000000000000000000A6
:1055800000000000000000000000FE07181C183892
:1055900018301830183018301818180CF8079803FD
:1055A0001803180718061806180E180C180C181CE3
:1055B00018187E78000000000000000000000000C5
:1055C00000000000000000000000C027603810301C
:1055D00018200C400C4004000600060006000600DF
:1055E00006000600060006000C400C400C20183097
:1055F0003018C0070000000000000000000000009C
:1056000000000000000000000001F801800180019E
:105610008001800180018001800180018001800182
:105620008001800180018001800180018001800172
:105630008001F81F000000000000000000000000D2
:10564000000000000000000000000000000000005A
:105650000000000000000000C007300C18180810FF
:105660000C300C30FC3F0C000C000C001820181003
:105670007018C007000000000000000000000000DB
:10568000000000000000000000000000000000001A
:105690000000000000000000F00318060C0C0C0CC9
:1056A000000C800F700C1C0C0C0C060C060C064C2D
:1056B0000C4FF8380000000000000000000000005F
:1056C00000000000000000000000000000000000DA
:1056D00000000000000010001E0FD81838301830ED
:1056E000183018301830183018301830183018307A
:1056F00018307EFC000000000000000000000000E8
:105700000000000000000000000080038003800310
:105710000000000000000001F8018001800180010C
:105720008001800180018001800180018001800171
:105730008001F81F000000000000000000000000D1
:105740000000000000000000000000000000000059
:105750000000000000000000C077306C101818181E
:10576000181818181018300CF00718001800F00F4F
:10577000F03F08700C600C600C603838E00F0000DF
:105780000000000000000000000000000000000019
:105790000000000000000000000000000000000009
:1057A00000000000000000000000000000000000F9
:1057B00000000000000000000000000000000000E9
:1057C000E05700080000002038000000C401000875
:1057D000185800083800002060160000E00100089A
:1057E00000000000000000000000000000000000B9
:1057F00000000000000000000000000000000000A9
:105800000000000000000000000000000000000098
:08581000000000000000000090
:040000050800018965
:00000001FF
