:020000040800F2
:1000000098160020290200088D2300080515000815
:10001000892300083F070008D93B000800000000C2
:100020000000000000000000000000002D25000876
:10003000010B00080000000009240008F12C000852
:10004000430200084302000843020008430200087C
:1000500043020008430200081D0B0008F90B0008CA
:10006000B50C00086D0D0008FD0D000843020008E6
:10007000430200084302000843020008430200084C
:10008000430200084302000843020008430200083C
:10009000430200084302000843020008B10E0008B2
:1000A000430200084302000843020008430200081C
:1000B000430200084302000843020008430200080C
:1000C00043020008430200084302000843020008FC
:1000D00043020008430200084302000843020008EC
:1000E0003D0B0008430200084302000843020008D9
:1000F00043020008430200084302000843020008CC
:1001000043020008430200084302000843020008BB
:1001100043020008430200084302000843020008AB
:10012000430200084302000843020008430200089B
:10013000430200084302000843020008430200088B
:10014000430200084302000843020008430200087B
:10015000430200084302000843020008430200086B
:10016000430200084302000843020008430200085B
:10017000430200084302000843020008430200084B
:10018000430200084302000800F002F800F03CF8C7
:100190000AA090E8000C82448344AAF10107DA45E2
:1001A00001D100F031F8AFF2090EBAE80F0013F0F8
:1001B000010F18BFFB1A43F001031847884E0000D7
:1001C000A84E0000103A24BF78C878C1FAD8520768
:1001D00024BF30C830C144BF04680C6070470000C1
:1001E0000023002400250026103A28BF78C1FBD840
:1001F000520728BF30C148BF0B6070471FB504F0DD
:100200002FF91FBD10B510BD00F063F81146FFF7C0
:10021000F5FF03F085FF00F081F803B4FFF7F2FF6C
:1002200003BC00F089F800000948804709480047EE
:10023000FEE7FEE7FEE7FEE7FEE7FEE7FEE7FEE796
:10024000FEE7FEE704480549054A064B70470000F3
:10025000F52C00088901000898100020981600204D
:10026000981200209812002010B5203AC0F00B80A0
:10027000B1E81850203AA0E81850B1E81850A0E8AA
:100280001850BFF4F5AF5FEA027C24BFB1E8185004
:10029000A0E8185044BF18C918C0BDE810405FEA74
:1002A000827C24BF51F8043B40F8043B08BF7047F0
:1002B000D20728BF31F8023B48BF11F8012B28BFF5
:1002C00020F8023B48BF00F8012B70477047704789
:1002D0007047754600F02CF8AE4605006946534657
:1002E00020F00700854618B020B5FFF7ABFFBDE84A
:1002F00020404FF000064FF000074FF000084FF08D
:10030000000B21F00701AC46ACE8C009ACE8C0091D
:10031000ACE8C009ACE8C0098D46704710B504468A
:10032000AFF300802046BDE81040FFF776BF000025
:10033000004870473810002001491820ABBEFEE786
:10034000260002007047000010B5094800780949EE
:10035000097888420AD00A2003F07AFE054800781E
:10036000034908700348007802F002F910BD00004C
:1003700010000020000000201CB50121202002F008
:1003800073F83020009001208DF8040000208DF8D3
:10039000060003208DF8050001208DF8070069464E
:1003A000044800F03DFE0120034908600349C1F8FC
:1003B00094021CBD001402409082424200804242DE
:1003C0000021124A11601249096821F44061104A63
:1003D00011601146096841F48061116000210D4AE5
:1003E000C2F89412002001E0411CC8B21428FBDBC3
:1003F0000121064A1160002001E0411CC8B2142806
:10040000FBDB0021014A11607047000090824242EC
:1004100000140240008042420021104A116010493D
:10042000096821F440610E4A11601146096841F4DF
:1004300080611160002001E0411CC8B21428FBDB80
:100440000121064A1160002001E0411CC8B21428B5
:10045000FBDB0021014A116070470000908242429C
:10046000001402401249096821F44061104A1160E9
:100470001146096841F48061116001210D4A116043
:100480000D4AC2F89012002001E0411CC8B2322887
:10049000FBDB0021074A1160002001E0411CC8B2CB
:1004A0003228FBDB0021034A121F11607047000055
:1004B000001402409482424200804242124909687C
:1004C00021F44061104A11601146096841F48061CD
:1004D000116000210D4A11600D4AC2F890120020EF
:1004E00001E0411CC8B23228FBDB0121074A121F80
:1004F0001160074AC2F89412002001E0411CC8B202
:100500003228FBDB70470000001402409482424214
:100510000080424210B5002400231748006820F4F0
:1005200040601549086008460068086001201349CA
:10053000086000BF01E0581CC3B2142BFBDB012094
:100540000E49091F0860002301E0581CC3B2142B98
:10055000FBDB07E0601CC4B2FA2C03DDFFF7AEFF43
:10056000012010BD0548803800680028F2D10349F9
:10057000091F086000BFF4E7001402409482424261
:1005800010B5FFF7F9FE10BD30B50446FFF76AFF5E
:10059000A02000F04FF8FFF7BDFF204600F04AF81A
:1005A000FFF7B8FFFFF75EFFA12000F043F8FFF769
:1005B000B1FF002000F006F80546FFF77FFF284650
:1005C00030BD000070B505461748006820F4406053
:1005D0001549086008460068086000261AE00020F7
:1005E00012490860002301E0581CC3B2142BFBDB46
:1005F00001200E4908606006040E0D48D0F8140270
:100600002044C4B2002301E0581CC3B2142BFBDB0E
:10061000701CC6B2082EE2DB15B1FFF7D1FE01E077
:10062000FFF7FAFE204670BD00140240908242425D
:100630000080424210B50146194B1B6823F4406309
:10064000174C236023461B6843F480632360002318
:10065000144C236000221FE0CB09124C241D2360A0
:100660004B06190E002001E0431CD8B21428FBDB16
:1006700001230C4C2360002001E0431CD8B2142855
:10068000FBDB0023074C2360002001E0431CD8B2B1
:100690001428FBDB531CDAB2082ADDDB10BD000096
:1006A000001402409082424270B506460C46FFF7A5
:1006B000D9FEA020FFF7BEFFFFF72CFF3046FFF763
:1006C000B9FFFFF727FF2046FFF7B4FFFFF722FF30
:1006D000FFF7F4FE002500E06D1C02488542FBD3C5
:1006E00070BD000040420F00F0B504460D461646AE
:1006F0001F462A2003F04EF8C4F3072003F03EF80B
:10070000E0B203F03BF8C6F3072003F037F8F0B28D
:1007100003F034F82B2003F03DF8C5F3072003F075
:100720002DF8E8B203F02AF8C7F3072003F026F803
:10073000F8B203F023F82C2003F02CF8F0BD00BF32
:10074000FEE7000039B1084A1268012383401A43CA
:10075000054B1A6006E0044A1268012383409A435D
:10076000014B1A60704700000074004041B1094A13
:1007700012684FF4805383401A43064B1A6007E017
:10078000044A12684FF4805383409A43014B1A6025
:10079000704700000074004000B593B00121480587
:1007A00001F062FE0121480701F06EFE04200F9067
:1007B00000201090022012900FA9002000F0A2F853
:1007C0001A4800F0C5F84FF060600090184801909A
:1007D000184802901848008804904FF40060079071
:1007E000089040200390002005904FF48060069010
:1007F0008010099040020A9000200B9001200C907C
:1008000000200D900E906946084800F04DF9012136
:10081000064800F091F801210020FFF793FF012125
:100820000020FFF7A3FF13B000BD00008860024066
:1008300008740040380000202800002000B593B064
:100840000121480501F010FE0121480701F01CFEBE
:1008500014200F9000201090022012900FA9102059
:1008600000F050F8224800F073F84FF060600090FC
:1008700020480190204802902048008804904FF4BE
:1008800000600790089040200390002005904FF4EE
:10089000806006908010099040020A9000200B9022
:1008A00001200C9000200D900E906946104800F039
:1008B000FBF81348007801280CD101210C4800F006
:1008C0003BF801211020FFF73DFF01211020FFF729
:1008D0004DFF0BE00021064800F02EF8002110200B
:1008E000FFF730FF00211020FFF740FF13B000BDDD
:1008F000A060024014740040380800202A00002044
:100900002200002030B5002200230A4C226840F665
:10091000FE748440A243D1E900452C438D682C43EA
:10092000CD6844EA050303FA00F42243014C226037
:1009300030BD00000074004021B1026842F00102A5
:10094000026003E0026822F00102026070470000CA
:10095000016821F0010101600021016041608160B6
:10096000C1600161212141614A49884204D13D2190
:10097000484A103A91608CE046491831884205D1C6
:100980004FF47461434A103A916082E0414930313A
:10099000884205D14FF474113E4A103A916078E0D4
:1009A0003C494831884205D14FF07461394A103AC8
:1009B00091606EE037496031884204D13649354A4A
:1009C000103AD16065E033497831884204D1334927
:1009D000304A103AD1605CE02E499031884204D10F
:1009E0002F492C4A103AD16053E02A49A831884255
:1009F00005D14FF03D51274A103AD16049E02949CD
:100A0000884204D13D21274A083A116041E0254936
:100A10001831884205D14FF47461224A083A1160B6
:100A200037E020493031884205D14FF474111D4A16
:100A3000083A11602DE01B494831884205D14FF03A
:100A40007461184A083A116023E0164960318842FF
:100A500004D11149134A121F11601AE0114978316B
:100A6000884204D10D490F4A121F116011E00D494F
:100A70009031884204D10A490A4A121F116008E0E5
:100A80000849A831884204D14FF03D51054A121F50
:100A900011607047106002403D000020400F0020B0
:100AA00000003D201064024010B500220268134B84
:100AB0001A40CC680B6823434C6923438C69234359
:100AC000CC6923430C6A23434C6A23438C6A234337
:100AD0004C6B23438C6B23431A430260426922F020
:100AE0000702D1E90B3423431A4342610B69436087
:100AF0004B6883608B68C36010BD00003F801CF0B2
:100B00007047002007E0002101E04A1CD1B21429FF
:100B1000FBDB421CD0B25028F5DB704710B501203A
:100B200000F028FA30B1FFF7ECFF0348006801201D
:100B300000F01AFA10BD00000082414210B5FFF724
:100B4000E0FF2A48006801284BD1C00200F012FAE9
:100B5000002846D0FFF7D5FF2448001D0068012873
:100B60000FD123480088B0F5967F04DB4FF49670D0
:100B70001F49088012E01E4800880A301C4908807E
:100B80000CE01B480088322803DC3220184908801A
:100B900004E0174800880A3815490880144804887A
:100BA000E01704EB1060C0F307210520FFF77CFD80
:100BB0000F480488E01704EB10600012A4EB00203B
:100BC000C1B20620FFF770FD094801880948008876
:100BD00001F06CF900BF054800680128FBD0FFF761
:100BE00090FF4FF4006000F0BFF910BD2C024042AE
:100BF000040000200600002010B5FFF782FF2948FE
:100C0000006801284AD1022000F0B4F9002845D03C
:100C1000FFF777FF2448006801280FD12348008898
:100C2000B0F5FA7F04DB4FF4FA702049088012E037
:100C30001E4800880A301D4908800CE01B480088C7
:100C4000002803DC00201949088004E017480088C8
:100C50000A381649088015480488E01704EB10602C
:100C6000C0F307210320FFF71FFD10480488E01799
:100C700004EB10600012A4EB0020C1B20420FFF7C7
:100C800013FD0B4801880948008801F00FF901E0C5
:100C9000FFF737FF034800680128F9D0022000F071
:100CA00063F910BD04824242100242420600002055
:100CB0000400002010B5FFF724FF29480068012830
:100CC0004AD1042000F056F9002845D0FFF719FF5B
:100CD0002448006801280DD123480088C82803DB78
:100CE000C8202149088012E01F4800880A301E49A8
:100CF00008800CE01C480088282803DC28201A49BA
:100D0000088004E0184800880A3817490880164807
:100D10000488E01704EB1060C0F307210120FFF7FF
:100D2000C3FC11480488E01704EB10600012A4EB28
:100D30000020C1B20220FFF7B7FC0B48008800F08A
:100D4000C9FF0948008802F0E7FB00BF04480068BB
:100D50000128FBD0FFF7D5FE042000F005F910BDF7
:100D6000088242420C0242420200002010B5FFF706
:100D7000C8FE1F480068012834D1FFF7C2FE1D4895
:100D8000006801280DD11C480078FF2803DBFF20F4
:100D90001949087012E018480078401C164908707C
:100DA0000CE015480078002803DC00201249087088
:100DB00004E011480078401E0F4908700E48017881
:100DC0000020FFF771FC0C48007800F077FE0A481D
:100DD000007802F0A1F900BF054800680128FBD0A7
:100DE000FFF78FFE082000F0BFF8FFF78AFE10BD66
:100DF0000C824242080242420000002010B5FFF778
:100E000080FE102000F0B6F8002846D0FFF779FEEB
:100E10002448006801280FD123480088B0F5967F48
:100E200004DB4FF496702049088012E01E480088C9
:100E30000A301D4908800CE01B480088322803DC7A
:100E400032201949088004E0174800880A381649FA
:100E5000088015480488E01704EB1060C0F30721F0
:100E60000920FFF721FC10480488E01704EB10600C
:100E70000012A4EB0020C1B20A20FFF715FC0A48BB
:100E800001880A48008801F0F3F800BF0548001FF8
:100E900000680128FAD0FFF734FE102000F064F853
:100EA00010BD000014024342080000200A00002088
:100EB00010B5FFF726FE4FF4807000F05BF80028B5
:100EC00046D0FFF71EFE2548006801280FD12448B0
:100ED0000088B0F5FA7F04DB4FF4FA7020490880EF
:100EE00012E01F4800880A301D4908800CE01C48A9
:100EF0000088002803DC00201949088004E0184815
:100F000000880A381649088015480488E01704EB61
:100F10001060C0F307210720FFF7C6FB10480488C4
:100F2000E01704EB10600012A4EB0020C1B208200F
:100F3000FFF7BAFB0B4801880948008801F098F8D0
:100F400001E0FFF7DEFD0548001F00680128F8D02A
:100F50004FF4807000F008F810BD000024024142F8
:100F60000A000020080000200149086070470000C6
:100F7000143C014001460020034A12680A400AB1AD
:100F8000012000E000207047143C0140002123496B
:100F90008279002A3AD00A46126803689A430B46BF
:100FA0001A600A1D126803689A430B1D1A600279C1
:100FB00011440A6803681A430A60184A0832126822
:100FC00003689A43154B08331A601A1D12680368A8
:100FD0009A43124B0C331A604279102A0ED11A1F11
:100FE000126803681A430D4B08331A601A1D126801
:100FF00003681A43094B0C331A600DE00749427924
:1010000011440A6803681A430A6005E00279114432
:101010000A6803689A430A6070470000003C014078
:10102000F0B50A4600210023002400BF3DE0012561
:1010300005FA01F3156805EA03049C4234D10568FA
:101040004F000326BE40B543056015794E00B540FC
:101050000668354305601579012D02D01579022DFA
:1010600016D185684F000326BE40B543856055798B
:101070004E00B540866835438560456801268E4040
:10108000B5434560456896798E40B6B235434560B4
:10109000C5684F000326BE40B543C560D5794E00F4
:1010A000B540C6683543C560491C1029BFD3F0BDA3
:1010B000F0B5002300244D07ED0E02FA05F3CE1023
:1010C00000F1200555F826504E07F70E0F26BE40BA
:1010D000B543CF1000F1200646F82750CE1000F19E
:1010E000200555F8265045EA0304CE1000F12005EE
:1010F00045F82640F0BD41837047018370470000EA
:1011000000B585B00121402001F0AEF90320039025
:1011100001208DF8100000208DF8120003208DF8BA
:10112000110001208DF8130003A9F048FFF778FFA4
:101130000121102001F098F94FF4C07003900120B4
:101140008DF8100000208DF8120003208DF811009A
:1011500001208DF8130003A9E548FFF761FF012185
:10116000082001F081F91C20039000208DF8100068
:1011700003208DF8110002208DF8130003A9DD482B
:10118000FFF74EFF0121042001F06EF9C02003900B
:1011900001208DF8100000208DF8120003208DF83A
:1011A000110001208DF8130003A9D348FFF738FF81
:1011B0000121082001F058F94FF44040039001202C
:1011C0008DF8100000208DF8120003208DF811001A
:1011D00001208DF8130003A9C648FFF721FF012164
:1011E000402001F041F9CC20039001208DF810003F
:1011F00000208DF8120003208DF8110001208DF8D9
:10120000130003A9B948FFF70BFF4FF48060039068
:1012100001208DF8100000208DF8120003208DF8B9
:10122000110001208DF8130003A9B048FFF7F8FE64
:101230004FF48061AD48FFF760FF0121402001F0CD
:1012400013F94FF40060039000208DF81000032084
:101250008DF8110001208DF8130003A9A348FFF7B2
:10126000DFFE0121082001F0FFF84FF4E050039069
:1012700001208DF8100000208DF8120003208DF859
:10128000110001208DF8130003A99A48FFF7C8FE4A
:101290004FF4E0519748FFF72EFF0121084601F077
:1012A000E3F84FF4C050039000208DF810000320A5
:1012B0008DF8110002208DF8130003A98F48FFF765
:1012C000AFFE0121042001F0CFF84FF440700390ED
:1012D00000208DF8100003208DF8110002208DF8F9
:1012E000130003A98448FFF79BFE0121102001F0A1
:1012F000BBF81C20039000208DF8100003208DF80F
:10130000110002208DF8130003A97948FFF788FE29
:101310000121202001F0A8F80E20039000208DF874
:10132000100003208DF8110002208DF8130003A98E
:101330007348FFF775FE0121402001F095F8302039
:10134000039000208DF8100003208DF8110002207A
:101350008DF8130003A96548FFF762FE0121880399
:1013600001F0A2F80B21002001F0E2F80821022090
:1013700001F0DEF80121052001F0DAF80221052054
:1013800001F0D6F80321052001F0D2F8042106204F
:1013900001F0CEF80220019000208DF8080008200E
:1013A0008DF8090001208DF80A0001A8FFF7EEFD75
:1013B00007208DF8000002208DF801008DF8020052
:1013C00001208DF80300684600F0E2FF0420019040
:1013D00000208DF8080008208DF8090001208DF804
:1013E0000A0001A8FFF7D2FD08208DF800000220B6
:1013F0008DF801008DF8020001208DF80300684689
:1014000000F0C6FF0820019000208DF80800082099
:101410008DF8090001208DF80A0001A8FFF7B6FD3C
:1014200009208DF8000002208DF801008DF80200DF
:1014300001208DF80300684600F0AAFF10200190FB
:1014400000208DF8080008208DF8090001208DF893
:101450000A0001A8FFF79AFD0A208DF8000002207B
:101460008DF801008DF8020001208DF80300684618
:1014700000F08EFF4FF48070019000208DF808007E
:1014800008208DF8090001208DF80A0001A8FFF757
:101490007DFD17208DF8000002208DF801008DF8E9
:1014A000020001208DF80300684600F071FF4FF440
:1014B0000060019000208DF8080008208DF80900D8
:1014C00001208DF80A0001A8FFF760FD28208DF8A3
:1014D000000002208DF801008DF8020001208DF837
:1014E0000300684600F054FF05B000BD001802403C
:1014F00000100240000C02400008024000000240C0
:101500000014024000BFFEE710B51948006801282A
:1015100002D11849087002E00020164908701648E8
:10152000007814490978884221D01248007812497D
:1015300008700846007801280AD10D49A0310860DA
:10154000642002F085FD01200C49C1F8AC0206E0E0
:1015500000200749A03108600849C1F8AC020648DC
:10156000007801F091FF0448007800F045FB10BDC1
:10157000088241420C0000202000002000804142EF
:1015800010B514480068012802D11349087002E020
:10159000002011490870114800780F4909788842E5
:1015A00017D00D4800780D490870084600780128CA
:1015B00003D10849A431086003E000200549A431A3
:1015C00008600648007802F037F80448007800F018
:1015D00021FC10BD0C8241420D00002021000020A2
:1015E00010B51D480068012802D11C49087002E0AE
:1015F00000201A4908701A4800781849097888426A
:1016000028D0164800781649087008460078012846
:101610000CD101211348FFF78FF901211020FFF7AA
:1016200091F801211020FFF7A1F80BE000210D48EF
:10163000FFF782F900211020FFF784F80021102025
:10164000FFF794F80648007800F022FB0448007881
:1016500001F051FF10BD0000108241420E00002039
:1016600022000020A06002402DE9F04F91B0052635
:101670000527B046B146B246B346052010900F90FC
:10168000A3A103C9CDE90D01A3A103C9CDE90B01B4
:10169000A3A103C9CDE90901A3A103C9CDE90701AC
:1016A000A3A000680690A3A103C9CDE90401A3A1EA
:1016B00003C9CDE90201A3A103C9CDE900010025B9
:1016C00018E0062101FB0561C8B2002100F0E2F933
:1016D00000240BE00DA9495D01EB41019B4A02EB9F
:1016E0004101085D00F00CFE601CC4B2062CF1DB69
:1016F000681CC5B2062DE4DB002518E0062101FBBD
:101700000571C8B2012100F0C5F900240BE00BA956
:10171000495D01EB41018D4A02EB4101085D00F09A
:10172000EFFD601CC4B2062CF1DB681CC5B2062DAF
:10173000E4DB002518E0062101FB0581C8B2022187
:1017400000F0A8F900240BE009A9495D01EB410173
:101750007E4A02EB4101085D00F0D2FD601CC4B27C
:10176000062CF1DB681CC5B2062DE4DB002518E071
:10177000062101FB0591C8B2032100F08BF900247A
:101780000BE007A9495D01EB4101704A02EB410101
:10179000085D00F0B5FD601CC4B2062CF1DB681CCE
:1017A000C5B2062DE4DB002519E006220F9902FBE5
:1017B0000511C8B2042100F06DF900240BE006A960
:1017C000495D01EB4101614A02EB4101085D00F016
:1017D00097FD601CC4B2062CF1DB681CC5B2042D59
:1017E000E3DB002518E0062101FB05A1C8B20521B5
:1017F00000F050F900240BE004A9495D01EB410120
:10180000524A02EB4101085D00F07AFD601CC4B24F
:10181000062CF1DB681CC5B2062DE4DB002518E0C0
:10182000062101FB05B1C8B2062100F033F90024FE
:101830000BE002A9495D01EB4101444A02EB410181
:10184000085D00F05DFD601CC4B2062CF1DB681C75
:10185000C5B2052DE4DB002519E00622109902FB34
:101860000511C8B2072100F015F900240BE01DF89E
:10187000051001EB4101354A02EB4101085D00F022
:101880003FFD601CC4B2062CF1DB681CC5B2082DFC
:10189000E3DB02212A2000F0FDF8002406E02B49BA
:1018A000C631085D00F02CFD601CC4B2062CF6DBCE
:1018B00003212A2000F0EEF8002406E02349C63177
:1018C000085D00F01DFD601CC4B2062CF6DB022191
:1018D0004B2000F0DFF8002406E01C49E431085DED
:1018E00000F00EFD601CC4B2062CF6DB03214B2079
:1018F00000F0D0F8002406E01449E431085D00F05F
:10190000FFFC601CC4B2062CF6DB11B0BDE8F08F02
:1019100021242E554D1A000030554C53451A000015
:1019200033494E45111A000033494E45121A000042
:101930003245441A2C415345521A00002D4F44455C
:101940001A0000003741524E494E471A6A440008B7
:1019500070B50646002415E004F1B001C8B200F0ED
:101960008BFC012000F088FC102000F085FC002595
:1019700004E0304600F0C4FC681CC5B2802DF8DBE2
:10198000601CC4B2082CE7DB70BD000010B54FF43A
:1019900080713E48FFF7B1FB02213D48FFF7ABFBEA
:1019A000322002F055FB02213948FFF7A6FB002048
:1019B00000F0FDFE0A2002F04BFB802000F0E5FE67
:1019C0000A2002F045FB3F2000F006FF0A2002F04B
:1019D0003FFB002000F0E2FE0A2002F039FB00206D
:1019E00000F03AFE0A2002F033FB042000F0B2FEC1
:1019F0000A2002F02DFB022000F01CFE0A2002F05B
:101A000027FB012000F0FAFE0A2002F021FB08204B
:101A100000F0B4FE0A2002F01BFB102000F0A4FE30
:101A20000A2002F015FBCF2000F00DFE0A2002F084
:101A30000FFBF12000F0D9FE0A2002F009FB402044
:101A400000F0E3FE0A2002F003FB002000F0B6FEE7
:101A50000A2002F0FDFA002000F0B7FE0A2002F092
:101A6000F7FA012000F0A3FE0A2002F0F1FA0020AC
:101A7000FFF76EFF0A2002F0EBFA0021084600F0A3
:101A800009F80A2002F0E4FA10BD0000001002403C
:101A90000018024070B504460D4605F1B001C8B209
:101AA00000F0EAFB102141EA141000F0E5FB04F01D
:101AB0000F0141F0010000F0DFFB70BD2DE9F041A6
:101AC00006462A27072526E007F12A01062202FBFF
:101AD0001511C8B20021FFF7DDFF0120A8403040FA
:101AE00050B1002405E04349085D00F009FC601C8A
:101AF000C4B2062CF7DB0AE0002406E03D49891F4A
:101B0000085D00F0FDFB601CC4B2062CF6DB05B9D5
:101B100003E0681EC5B2002DD6DA00BF00215F20A9
:101B2000FFF7B8FF642096FBF0F0C5B2632E11DD1D
:101B300000240CE005F1100101EB41012D4A663A49
:101B400002EB4101085D00F0DBFB601CC4B2062C17
:101B5000F0DB08E0002404E0002000F0D1FB601C72
:101B6000C4B2062CF8DB00216520FFF793FF642048
:101B700096FBF0F100FB11600A2190FBF1F0C5B279
:101B8000092E11DD00240CE005F1100101EB4101EB
:101B9000184A663A02EB4101085D00F0B1FB601C97
:101BA000C4B2062CF0DB08E0002404E0002000F0C2
:101BB000A7FB601CC4B2062CF8DB00216B20FFF7EA
:101BC00069FF0A2096FBF0F100FB1160C5B200240A
:101BD0000CE005F1100101EB4101064A663A02EB07
:101BE0004101085D00F08CFB601CC4B2062CF0DBE8
:101BF000BDE8F081D044000870B505462A260521CD
:101C00003046FFF747FF012D1ED1002404E00020DD
:101C100000F076FB601CC4B2062CF8DB002405E063
:101C20001A49085D00F06CFB601CC4B2062CF7DB9F
:101C3000002406E01549891F085D00F061FB601C67
:101C4000C4B2062CF6DB1FE0002405E00F49085D56
:101C500000F056FB601CC4B2062CF7DB002406E043
:101C60000A493639085D00F04BFB601CC4B2062CF3
:101C7000F6DB002406E005493639085D00F040FB3C
:101C8000601CC4B2062CF6DB70BD000044460008A0
:101C900070B50546242606213046FFF7FBFE012DD0
:101CA0000AD1002405E00A49085D00F029FB601C08
:101CB000C4B2062CF7DB0AE0002406E00449891FC1
:101CC000085D00F01DFB601CC4B2062CF6DB70BD85
:101CD000D64400082DE9F041054632274FF47A70CA
:101CE00095FBF0F0C6B201213846FFF7D3FEB5F5FB
:101CF0007A7F10DB00240BE006F1100101EB4101BB
:101D0000434A02EB4101085D00F0FAFA601CC4B2DC
:101D1000062CF1DB08E0002404E0002000F0F0FADB
:101D2000601CC4B2062CF8DB4FF47A7095FBF0F11E
:101D300000FB1150642190FBF1F0C6B2B91DC8B28E
:101D40000121FFF7A7FE632D10DD00240BE006F153
:101D5000100101EB41012E4A02EB4101085D00F048
:101D6000CFFA601CC4B2062CF1DB08E0002404E0CA
:101D7000002000F0C5FA601CC4B2062CF8DB642019
:101D800095FBF0F100FB11500A2190FBF1F0C6B277
:101D900007F10C01C8B20121FFF77CFE092D10DD0F
:101DA00000240BE006F1100101EB4101184A02EB9F
:101DB0004101085D00F0A4FA601CC4B2062CF1DBFE
:101DC00008E0002404E0002000F09AFA601CC4B28D
:101DD000062CF8DB0A2095FBF0F100FB1150C6B28F
:101DE00007F11201C8B20121FFF754FE00240BE0F5
:101DF00006F1100101EB4101054A02EB4101085DCA
:101E000000F07EFA601CC4B2062CF1DBBDE8F08164
:101E10006A44000870B50546202604213046FFF7C5
:101E200039FE012D1ED1002404E0002000F068FAE4
:101E3000601CC4B2062CF8DB002405E01A49085DDA
:101E400000F05EFA601CC4B2062CF7DB002406E04A
:101E50001549891F085D00F053FA601CC4B2062CB6
:101E6000F6DB1FE0002405E00F49085D00F048FAAA
:101E7000601CC4B2062CF7DB002406E00A493639A0
:101E8000085D00F03DFA601CC4B2062CF6DB0024AD
:101E900006E005493639085D00F032FA601CC4B22C
:101EA000062CF6DB70BD0000444600082DE9F04723
:101EB00005460E464FF032084FF05509642095FB59
:101EC000F0F0C7B202214046FFF7E4FD632D10DDBC
:101ED00000240BE007F1100101EB4101634A02EB22
:101EE0004101085D00F00CFA601CC4B2062CF1DB65
:101EF00008E0002404E0002000F002FA601CC4B2F4
:101F0000062CF8DB642095FBF0F100FB11500A2150
:101F100090FBF1F0C7B208F10601C8B20221FFF749
:101F2000B9FD092D10DD00240BE007F1100101EBD4
:101F300041014E4A02EB4101085D00F0E1F9601CED
:101F4000C4B2062CF1DB08E0002404E0002000F01D
:101F5000D7F9601CC4B2062CF8DB0A2095FBF0F11F
:101F600000FB1150C7B208F10C01C8B20221FFF703
:101F700091FD00240BE007F1100101EB41013B4A08
:101F800002EB4101085D00F0BBF9601CC4B2062CF5
:101F9000F1DB642096FBF0F0C7B202214846FFF760
:101FA00079FD632E10DD00240BE007F1100101EB39
:101FB00041012E4A02EB4101085D00F0A1F9601CCD
:101FC000C4B2062CF1DB08E0002404E0002000F09D
:101FD00097F9601CC4B2062CF8DB642096FBF0F184
:101FE00000FB11600A2190FBF1F0C7B209F1060174
:101FF000C8B20221FFF74EFD092E10DD00240BE0D0
:1020000007F1100101EB4101184A02EB4101085DA3
:1020100000F076F9601CC4B2062CF1DB08E0002465
:1020200004E0002000F06CF9601CC4B2062CF8DB60
:102030000A2096FBF0F100FB1160C7B209F10C0118
:10204000C8B20221FFF726FD00240BE007F11001C2
:1020500001EB4101054A02EB4101085D00F050F936
:10206000601CC4B2062CF1DBBDE8F0876A440008AE
:102070002DE9F04705460E464FF032084FF055095E
:10208000642095FBF0F0C7B203214046FFF702FD44
:10209000632D10DD00240BE007F1100101EB41017D
:1020A000634A02EB4101085D00F02AF9601CC4B2EA
:1020B000062CF1DB08E0002404E0002000F020F909
:1020C000601CC4B2062CF8DB642095FBF0F100FB29
:1020D00011500A2190FBF1F0C7B208F10601C8B215
:1020E0000321FFF7D7FC092D10DD00240BE007F1D9
:1020F000100101EB41014E4A02EB4101085D00F085
:10210000FFF8601CC4B2062CF1DB08E0002404E0F8
:10211000002000F0F5F8601CC4B2062CF8DB0A20A1
:1021200095FBF0F100FB1150C7B208F10C01C8B2E9
:102130000321FFF7AFFC00240BE007F1100101EBD6
:1021400041013B4A02EB4101085D00F0D9F8601CF7
:10215000C4B2062CF1DB642096FBF0F0C7B2032179
:102160004846FFF797FC632E10DD00240BE007F1D3
:10217000100101EB41012E4A02EB4101085D00F024
:10218000BFF8601CC4B2062CF1DB08E0002404E0B8
:10219000002000F0B5F8601CC4B2062CF8DB642007
:1021A00096FBF0F100FB11600A2190FBF1F0C7B241
:1021B00009F10601C8B20321FFF76CFC092E10DDFE
:1021C00000240BE007F1100101EB4101184A02EB7A
:1021D0004101085D00F094F8601CC4B2062CF1DBEC
:1021E00008E0002404E0002000F08AF8601CC4B27B
:1021F000062CF8DB0A2096FBF0F100FB1160C7B259
:1022000009F10C01C8B20321FFF744FC00240BE0E4
:1022100007F1100101EB4101054A02EB4101085DA4
:1022200000F06EF8601CC4B2062CF1DBBDE8F0874C
:102230006A44000870B50546372607213046FFF787
:1022400029FC012D0AD1002405E00A49085D00F0AF
:1022500057F8601CC4B2062CF7DB0AE0002406E045
:102260000449891D085D00F04BF8601CC4B2062CBF
:10227000F6DB70BDCA44000870B50446082501218C
:102280001D48FEF738FF012001F0FEFE69011B48E2
:10229000FEF731FF052001F0F7FE26E004F0800094
:1022A00038B180211548FEF728FF012001F0ECFE2F
:1022B00006E080211148FEF71EFF012001F0E4FE38
:1022C0004FF480710D48FEF718FF032001F0DCFE8B
:1022D0004FF480710948FEF70EFF012001F0D4FE93
:1022E0006006040E012001F0CFFE281EA5F10101B9
:1022F000CDB2D3D170BD00000018024000100240E2
:1023000070B50446082501211D48FEF7F6FE0120A0
:1023100001F0BAFE69011B48FEF7EDFE052001F051
:10232000B3FE26E004F0800038B180211548FEF7A6
:10233000E4FE012001F0A8FE06E080211148FEF72E
:10234000DAFE012001F0A0FE4FF480710D48FEF787
:10235000D4FE032001F098FE4FF480710948FEF787
:10236000CAFE012001F090FE6006040E012001F07B
:102370008BFE281EA5F10101CDB2D3D170BD0000A6
:10238000001802400010024000BFFEE77047000046
:1023900070B5002100230F22C4781CB3174C2468A9
:1023A00004F4E064C4F5E064C4F30721C1F104045B
:1023B000E3B20A4144789C40E1B28478144021435E
:1023C0000C07210E0E4C05786155047804F01F05AA
:1023D0000124AC4005786D11AD0005F1E025C5F88C
:1023E000004109E0047804F01F050124AC40054DCC
:1023F0000678761145F8264070BD00000CED00E02F
:1024000000E400E080E100E0704700001CB51048E7
:10241000008810490988884219D00A2001F018FE66
:102420000C4800880A490880084600880A4991FB40
:10243000F0F0401E0949088041F2883009880223E3
:10244000074ACDE900105115064801F06DFD1CBD8D
:102450001200002002000020409002002C0000200A
:10246000000001400000024029B1064A1268024300
:10247000044B1A6004E0034A12688243014B1A605D
:10248000704700003038024029B1064A1268024302
:10249000044B1A6004E0034A12688243014B1A603D
:1024A000704700004038024029B1064A12680243D2
:1024B000044B1A6004E0034A12688243014B1A601D
:1024C000704700004438024010B51548006818B93C
:1024D00001201449087002E00020124908701248D7
:1024E000007810490978884218D00E4800780E49C3
:1024F000087008460078012804D1002008497C3182
:10250000086003E0012006497C3108600648007835
:10251000FFF790FE0448007801F008F910BD0000B4
:102520002C0243420F0000202300002070470000CF
:1025300030B500228B071C0F0F2303FA04F20B4B5C
:102540008C1053F824309343084C8D1044F82530F8
:1025500023468C1053F824308C07240F00FA04F41F
:102560002343024C8D1044F8253030BD083801401B
:1025700000F0010119B101212B4A116002E0002194
:10258000294A116000F0020121B10121264A121FDF
:10259000116003E00021244A121F116000F00401C1
:1025A00019B10121214A116002E000211F4A116086
:1025B00000F0080121B101211C4A121F116003E043
:1025C00000211A4A121F116000F0100121B10121EF
:1025D000164A103A116003E00021144A103A1160C3
:1025E00000F0200121B10121104A143A116003E0EA
:1025F00000210E4A143A116000F0400119B1012186
:102600000B4A116002E00021094A116000F08001CC
:1026100021B10121064A121F116003E00021044A82
:10262000121F1160704700009C0241429C0243420D
:10263000BC82414210B504462020FFF71DFE204613
:10264000FFF71AFE10BD10B504468120FFF714FEF7
:102650002046FFF711FE10BD10B5044644F04000BF
:10266000FFF70AFE10BD00000CB50020019000909D
:102670003448006840F480303249086000BF314877
:10268000006800F4003000900198401C0190009810
:1026900018B90198B0F5A04FF1D12A48006800F4AC
:1026A000003010B10120009001E00020009000985F
:1026B000012846D123484030006840F0805021492D
:1026C000403108602048006840F440401E490860DE
:1026D0001C48083000681B4908310860084600683B
:1026E00040F4004008600846006840F4A0500860CC
:1026F0001648091F0860081F006840F08070091F15
:10270000086000BF0F48006800F000700028F9D092
:1027100040F205700E4908600A480830006820F051
:1027200003000849083108600846006840F00200CC
:10273000086000BF03480830006800F00C0008285B
:10274000F8D10CBD0038024000700040085440072A
:10275000003C024010B504468D20FFF78DFD44F08B
:102760001000FFF789FD10BD10B50446DA20FFF711
:1027700083FD44F00200FFF77FFD10BD10B5044655
:1027800044F0C000FFF778FD10BD10B50446D52019
:10279000FFF772FD2046FFF76FFD10BD10B5044630
:1027A000D320FFF769FD2046FFF766FD10BD10B589
:1027B000044644F0AE00FFF75FFD10BD10B50446BF
:1027C00044F0A400FFF758FD10BD10B5044644F0D6
:1027D000A600FFF751FD10BD10B50446A820FFF775
:1027E0004BFD2046FFF748FD10BD10B50446D9202B
:1027F000FFF742FD2046FFF73FFD10BD10B5044630
:1028000044F0A000FFF738FD10BD10B50446DB20F2
:10281000FFF732FD2046FFF72FFD10BD10B5184819
:10282000008818490988884205D117480088174947
:102830000988884222D00A2001F00AFC1148008849
:102840000F490880114800880F4908800D48018809
:102850000D48008801F098FC0B4800880C4991FB5A
:10286000F0F00C49098890FBF1F0401E0A490880FD
:102870000846008800F0B8FFFDF78EFF10BD00008D
:102880001600002006000020140000200400002094
:1028900080DE8002280000201C00002010B51848AF
:1028A000008818490988884205D1174800881749C7
:1028B0000988884222D0142001F0CAFB1148008800
:1028C0000F490880114800880F4908800D48018889
:1028D0000D48008801F00EFD0B4800880C4991FB63
:1028E000F0F00C49098890FBF1F0801E0A4908803D
:1028F0000846008800F092FFFDF7A0FF10BD000021
:102900001A0000200A000020180000200800002003
:1029100080DE80022A0000201E0000201CB5FEF789
:10292000A3FE0020FDF730FEC64908700846007877
:10293000FFF7C4F8C348007800F0EEFBC148007808
:10294000C1490870BF480078FFF712FE0120FDF76B
:102950001BFEBE490880084600884FF6FF7101EA59
:102960000020BA4908800220FDF70EFEB749098809
:102970000844B649088008460088B54908800846DA
:102980000088B44991FBF0F0401EB349088041F241
:10299000883009880223B14ACDE900105115B048AA
:1029A00001F0C2FAA948008800F0B6FDA7480088E7
:1029B000FFF790F90320FDF7E7FDAA4908800846D4
:1029C00000884FF6FF7101EA0020A6490880042024
:1029D000FDF7DAFDA34909880844A24908800520CB
:1029E000FDF7D2FDA0490880084600884FF6FF7128
:1029F00001EA00209C4908800620FDF7C5FD9A49A0
:102A00000988084498490880084601889548008844
:102A1000FFF74CFA93480088944908809248008850
:102A2000934908808F4801889148008801F0ACFBE9
:102A30008F4800888F4991FBF0F08F49098890FBFF
:102A4000F1F0401E8D4908800846008800F0CCFE59
:102A5000FDF7A2FE0720FDF797FD8949088008468B
:102A600000884FF6FF7101EA0020854908800820A0
:102A7000FDF78AFD824909880844814908800920B8
:102A8000FDF782FD7F490880084600884FF6FF71F8
:102A900001EA00207B4908800A20FDF775FD79498D
:102AA00009880844774908800846018874480088E6
:102AB000FFF7DEFA72480088734908807148008881
:102AC000724908806E4801887048008801F012FC45
:102AD0006E480088674991FBF0F06D49098890FBCA
:102AE000F1F0801E6B4908800846008800F096FED1
:102AF000FDF7A4FE68480068012802D16749087004
:102B000002E0002065490870644800786449087054
:102B10000846007801280AD15F49A0310860642086
:102B200001F096FA01205F49C1F8AC0206E00020EE
:102B30005949A03108605B49C1F8AC025848007897
:102B4000FFF75AF85648007800F09EFC5248001DE6
:102B50000068012802D15449087002E0002052495F
:102B600008705148007851490870084600780128DB
:102B700003D14949A831086003E000204649A83143
:102B800008604A480078FFF745F94848007800F0A7
:102B900053FD414808300068012802D144490870BB
:102BA00002E000204249087041480078414908701D
:102BB0000846007801280CD101213F48FDF7BCFEF2
:102BC00001211020FDF7BEFD01211020FDF7CEFDF3
:102BD0000BE000213848FDF7AFFE00211020FDF783
:102BE000B1FD00211020FDF7C1FD3248007800F052
:102BF00082FC30480078FFF74BF83048006818B97D
:102C000001202F49087002E000202D4908702C484F
:102C100000782C49087008460078012804D100206B
:102C200026497C31086003E0012024497C3108609A
:102C300024480078FFF7FEFA2248007800F076FD7D
:102C40001CBD000000000020100000200200002039
:102C500012000020409002002C00002000000140E3
:102C600000000240060000200400002016000020A2
:102C70001400002080DE8002280000201C000020BC
:102C80000A000020080000201A0000201800002080
:102C90002A0000201E000020088241420C00002073
:102CA00020000020008041420D0000202100002073
:102CB0000E00002022000020A06002402C024342AF
:102CC0000F00002023000020042808D14FF0E0214D
:102CD000096941F004014FF0E022116107E04FF073
:102CE000E021096921F004014FF0E02211617047F1
:102CF0007047000010B51548006840F47000134993
:102D000008601348006840F0010011490860002085
:102D10000F49083108600E4800680E4908400C4908
:102D200008600D48091D0860081F006820F4802015
:102D3000091F0860002006490C310860FFF794FC69
:102D40004FF0006001498039086010BD88ED00E057
:102D500000380240FFFFF6FE1030002470B5064632
:102D600040F23F13EF2200210846FDF7BDFC00248E
:102D70000BE0002504E0304600F0F0FC681C85B252
:102D8000B5F5A07FF7DB601C84B2F02CF1DB70BDE1
:102D90002DE9F0474FF01E0A3E245C257A2698273D
:102DA0004FF0B6084FF0D40900F096FC0FA2214670
:102DB0003C2000F078FC10A229463C2000F073FC77
:102DC0000FA231463C2000F06EFC0EA239463C209A
:102DD00000F069FC0DA241463C2000F064FC0DA20D
:102DE00049463C2000F05FFCBDE8F0874C6173650C
:102DF0007220506F7765720050756C73650000002B
:102E0000526564004C617365720000004D6F64652B
:102E1000000000005761726E696E67007CB5012189
:102E20000846FFF721FB01210220FFF71DFB0121CE
:102E30000420FFF719FB0720009001208DF8040003
:102E400000208DF8060003208DF8050001208DF884
:102E500007006946AA48FEF7E3F84FF400500090D7
:102E600001208DF8040000208DF8060003208DF865
:102E7000050001208DF807006946A248FEF7D0F84A
:102E80000820009001208DF8040000208DF8060035
:102E900003208DF8050001208DF8070069469A4847
:102EA000FEF7BEF80120994908609949C1F8B402BB
:102EB000984908609549091D08600020091D0860AF
:102EC000002407E0002501E0681C85B2642DFBDBCF
:102ED000601C84B2B4F57A7FF4DB01208B490831A1
:102EE0000860002407E0002501E0681C85B2642D1D
:102EF000FBDB601C84B2B4F57A7FF4DBCF2000F0FA
:102F000049FC002000F03AFCD92000F037FC3020CA
:102F100000F034FCED2000F03DFC642000F02EFCBD
:102F2000032000F02BFC122000F028FC812000F090
:102F300025FCE82000F02EFC852000F01FFC10206E
:102F400000F01CFC782000F019FCCB2000F022FCE3
:102F5000392000F013FC2C2000F010FC002000F0C1
:102F60000DFC342000F00AFC022000F007FCF720E2
:102F700000F010FC202000F001FCEA2000F00AFC28
:102F8000002000F0FBFB002000F0F8FBC02000F068
:102F900001FC212000F0F2FBC12000F0FBFB12201D
:102FA00000F0ECFBC52000F0F5FB322000F0E6FB62
:102FB0003C2000F0E3FBC72000F0ECFBC12000F058
:102FC000DDFB362000F0E6FB082000F0D7FB3A20BE
:102FD00000F0E0FB552000F0D1FBB12000F0DAFB5F
:102FE000002000F0CBFB182000F0C8FBB62000F05A
:102FF000D1FB0A2000F0C2FBA22000F0BFFBF220B0
:1030000000F0C8FB002000F0B9FB262000F0C2FB56
:10301000012000F0B3FBE02000F0BCFB0F2000F02B
:10302000ADFB202000F0AAFB1E2000F0A7FB09202A
:1030300000F0A4FB122000F0A1FB0B2000F09EFB8F
:10304000502000F09BFBBA2000F098FB442000F0D9
:1030500095FB092000F092FB142000F08FFB052067
:1030600000F08CFB232000F089FB212000F086FB80
:10307000002000F083FBE12000F08CFB002000F03A
:103080007DFB192000F07AFB192000F077FB00206F
:1030900000F074FB122000F071FB072000F06EFBC3
:1030A0002D2000F06BFB282000F068FB3F2000F093
:1030B00065FB022000F062FB0A2000F05FFB0820A5
:1030C00000F05CFB252000F059FB2D2000F056FBA2
:1030D0000F2000F053FB112000F05CFB002407E000
:1030E000002501E0681C85B2C82DFBDB601C84B2A2
:1030F00041F288308442F3DB292000F04BFB7CBD99
:1031000000000240000402400008024080024042E9
:10311000008040428C0241422DE9F0478146BE27A3
:103120004FF03E084FF47A7009FB00F0FF2190FB4E
:10313000F1F085B20A2D32DAC7F5A07084B2C2462A
:1031400030222146504600F0EFF8A4F1080084B286
:103150002E222146504600F0E7F8A4F1080084B280
:1031600005F13000C2B22146504600F0DDF8A4F16E
:10317000080084B225222146504600F0D5F8A4F17B
:10318000080084B220222146504600F0CDF8A4F178
:10319000080084B220222146504600F0C5F80A2DCE
:1031A0003DDB642D3BDAC7F5A07084B2C2460A202D
:1031B00095FBF0F0C6B206F13000C2B2214650468F
:1031C00000F0B2F8A4F1080084B22E222146504645
:1031D00000F0AAF8A4F1080084B20A2095FBF0F1EF
:1031E00000FB1150C6B206F13000C2B22146504673
:1031F00000F09AF8A4F1080084B225222146504636
:1032000000F092F8A4F1080084B220222146504632
:1032100000F08AF820222146504600F085F8642DFF
:103220004CDBB5F57A7F49DAC7F5A07084B2C246A7
:10323000642095FBF0F0C6B206F13000C2B2214620
:10324000504600F071F8A4F1080084B2642095FBA8
:10325000F0F100FB11500A2190FBF1F0C6B206F12B
:103260003000C2B22146504600F05EF8A4F10800DA
:1032700084B22E222146504600F056F8A4F10800F0
:1032800084B20A2095FBF0F100FB1150C6B206F1A2
:103290003000C2B22146504600F046F8A4F10800C2
:1032A00084B225222146504600F03EF8A4F10800E1
:1032B00084B220222146504600F036F8B5F57A7FD8
:1032C00030D1C7F5A07084B2C246312221465046A3
:1032D00000F02AF8A4F1080084B2302221465046BA
:1032E00000F022F8A4F1080084B2302221465046B2
:1032F00000F01AF8A4F1080084B22E2221465046AC
:1033000000F012F8A4F1080084B2302221465046A1
:1033100000F00AF8A4F1080084B2252221465046A4
:1033200000F002F8BDE8F0872DE9F04F044688462A
:1033300015461E48B0F800A0A346A5F12000C5B26E
:1033400008F1070304F10F0241462046FDF7CCF9CE
:10335000002623E000271DE007EB0510144911F8B3
:103360000090C6F107010120884000EA090018B169
:103370000E48A0F800A003E00E4800880B49088022
:103380000A48008800F0EAF94FEA6909601C84B233
:10339000781CC7B2102FDFDB701CC6B2082ED9DB39
:1033A0000248A0F800A0BDE8F08F00002600002031
:1033B00092460008240000202DE9F04F07468A4677
:1033C00016462E48B0F80090BB460AF10F0307F1ED
:1033D0001F0251463846FDF787F9002521E00024F9
:1033E0001BE0600000EB8610401C254911F80080AE
:1033F000C5F107010120884000EA080018B11F4804
:10340000A0F8009003E01F4800881C4908801B4872
:10341000008800F0A3F9601CC4B2202CE1DB681C1A
:10342000C5B2082DDBDB002520E000241AE0600097
:1034300000EB8610124911F80080C5F10701012048
:10344000884000EA080018B10C48A0F8009003E09A
:103450000C480088094908800848008800F07EF977
:10346000601CC4B2202CE2DB681CC5B2082DDCDB7A
:103470000248A0F80090BDE8F08F00002600002070
:10348000824C0008240000202DE9F0410546BE26AC
:103490009827C6F5A074B846012D15D16F22214694
:1034A0004046FFF741FFA4F1080084B26E22214696
:1034B0004046FFF739FFA4F1080084B220222146DC
:1034C0004046FFF731FF14E06F2221464046FFF7E8
:1034D0002BFFA4F1080084B2662221464046FFF784
:1034E00023FFA4F1080084B2662221464046FFF77C
:1034F0001BFFBDE8F0812DE9F0410446BE25B6264C
:10350000C5F5A078374604F13100C2B241463846CD
:10351000FFF70AFFBDE8F0812DE9F0430546BE271D
:103520004FF05C08C7F5A074C146642D3ADA0A2052
:1035300095FBF0F0C6B206F13000C2B22146484613
:10354000FFF7F2FEA4F1080084B20A2095FBF0F127
:1035500000FB1150C6B206F13000C2B22146484607
:10356000FFF7E2FEA4F1080084B26B222146484630
:10357000FFF7DAFEA4F1080084B24822214648464B
:10358000FFF7D2FEA4F1080084B27A222146484611
:10359000FFF7CAFEA4F1080084B220222146484663
:1035A000FFF7C2FE642D45DB642095FBF0F0C6B248
:1035B00006F13000C2B221464846FFF7B5FEA4F13D
:1035C000080084B2642095FBF0F100FB11500A2141
:1035D00090FBF1F0C6B206F13000C2B22146484677
:1035E000FFF7A2FEA4F1080084B20A2095FBF0F1D7
:1035F00000FB1150C6B206F13000C2B22146484667
:10360000FFF792FEA4F1080084B26B2221464846DF
:10361000FFF78AFEA4F1080084B2482221464846FA
:10362000FFF782FEA4F1080084B27A2221464846C0
:10363000FFF77AFEBDE8F0832DE9F0410546BE268E
:103640007A27C6F5A074B846012D15D16F22214600
:103650004046FFF769FEA4F1080084B26E222146BD
:103660004046FFF761FEA4F1080084B22022214603
:103670004046FFF759FE14E06F2221464046FFF70F
:1036800053FEA4F1080084B2662221464046FFF7AB
:103690004BFEA4F1080084B2662221464046FFF7A3
:1036A00043FEBDE8F0812DE9F04105460E46144683
:1036B000C5F5A07087B2B04608E02278394640468A
:1036C000FFF732FEA7F1080087B2641C20780028BB
:1036D000F3D1BDE8F08100002DE9F04186B014225D
:1036E0000DA101A8FCF7C0FD1C260F27C6F5A0758B
:1036F000B84600240AE001A8025D29464046FFF7CB
:103700005BFEA5F1100085B2601CC4B2122CF2DB86
:1037100006B0BDE8F08100000001020E03040005C0
:10372000060E0708090A0B0C0B0D00002DE9F041ED
:103730000446BE25D426C5F5A0783746012C05D110
:10374000302241463846FFF7EFFD04E03122414682
:103750003846FFF7E9FDBDE8F081000010B50446EA
:10376000012005490860C4F3072000F01FF8E0B20B
:1037700000F01CF810BD00008402404210B5044661
:10378000012003490860204600F010F810BD000039
:103790008402404210B504460020034908602046D8
:1037A00000F004F810BD000084024042002113E044
:1037B00000220B4B1A6000F080021AB10122094B63
:1037C0001A6002E00022074B1A600122044B1A60C3
:1037D0004206100E4A1CD1B20829E9DB70470000EE
:1037E000B48240428C02414210B5044601211020AF
:1037F000FEF74AFE00220121074800F09CF921460D
:10380000054800F0A4F92021034800F097F90121B0
:10381000014800F029F810BD0010004010B5044622
:1038200001212020FEF730FE00220121074800F090
:1038300082F92146054800F08AF92021034800F06A
:103840007DF90121014800F00FF810BD001400407F
:1038500021B1028842F08002028004E002884FF623
:103860007F731A400280704721B1028842F0010242
:10387000028004E002884FF6FE731A40028070470F
:1038800031B1B0F8442042F40042A0F8442005E0F1
:10389000B0F84420C2F30E02A0F8442070470000A4
:1038A00070B5002400220023058C4FF6FE763540CB
:1038B0000584028C8388048B4FF68F752C40B51ECF
:1038C0002C400D882C43751E2A408D892A434D8833
:1038D0002A43104DA84202D00F4DA84213D14FF6F3
:1038E000F7752A40CD892A434FF6FB752A408D880B
:1038F0002A434FF6FF652B404FF6FF552B400D8AAC
:103900002B434D8A2B43838004838D684563028457
:1039100070BD000000000140000401400A46002183
:10392000018B4FF6F7731940114301837047000074
:1039300070B5002400220023058C4FF6EF76354049
:103940000584028C8388048B48F6FF752C404FF663
:10395000FF452C400D884FF6FF7606EA05252C43DF
:103960004FF6DF752A408D8906EA05152A434D88F2
:1039700006EA05152A43154DA84202D0144DA84267
:103980001DD14FF67F752A40CD894FF6FF7606EAA6
:1039900005152A434FF6BF752A408D8806EA05159E
:1039A0002A434FF6FF352B404FF2FF752B400D8A0F
:1039B00006EA85052B434D8A06EA85052B4383805D
:1039C00004838D688563028470BD0000000001409F
:1039D000000401400A460021018B4FF2FF73194099
:1039E0004FF6FF7303EA0223194301837047000077
:1039F00070B5002400220023058C4FF6FF66354089
:103A00000584028C8388848B4FF68F752C404FF68B
:103A1000FC752C400D882C434FF6FF552A408D89AC
:103A20004FF6FF7606EA05252A434D8806EA052566
:103A30002A43154DA84202D0144DA8421DD14FF281
:103A4000FF752A40CD894FF6FF7606EA05252A4301
:103A50004FF6FF352A408D8806EA05252A434EF6A3
:103A6000FF752B404DF6FF752B400D8A06EA0515B4
:103A70002B434D8A06EA05152B43838084838D688A
:103A8000C563028470BD00000000014000040140D5
:103A90000A460021818B4FF6F77319401143818349
:103AA0007047000070B5002200230024058C4EF6FC
:103AB000FF7635400584038C8488828B48F6FF7539
:103AC0002A404FF6FF452A400D884FF6FF7606EA5A
:103AD00005252A434DF6FF752B408D8906EA0535ED
:103AE0002B434D8806EA05352B430A4DA84202D0E8
:103AF000094DA84208D14BF6FF752C400D8A4FF6B0
:103B0000FF7606EA85152C43848082838D680564E0
:103B1000038470BD00000140000401400A460021FA
:103B2000818B4FF2FF7319404FF6FF7303EA0223B4
:103B300019438183704701858282704782884FF6DE
:103B40008F731A40828082880A4382807047C162E4
:103B50007047000000220288184B98420ED0184B84
:103B600098420BD0B0F1804F08D0164B984205D048
:103B7000154B984202D0154B984204D14FF68F73E3
:103B80001A404B881A43124B984207D0114B984267
:103B900004D04FF6FF431A400B891A4302804B684A
:103BA000C3620B880385054B984202D0044B9842B0
:103BB00001D18B7A03860123838270470000014084
:103BC000000401400004004000080040000C0040D8
:103BD000001000400014004000BFFEE72DE9FC4744
:103BE00006460D4614469946304600F0F5F807465D
:103BF0000121FEF739FC1F4884420BD01E48844245
:103C000008D01E48844205D01D48844202D01D4879
:103C1000844207D1204600F021F907460121FEF732
:103C200043FC06E0204600F019F907460121FEF7A3
:103C30002BFC009502208DF8040003208DF8050070
:103C400000208DF8060001208DF8070069463046F7
:103C5000FDF7E6F9204600F017F80746284600F081
:103C600071F880463A4641463046FDF721FABDE8F4
:103C7000FC870000000001400004014000400140BA
:103C8000004401400048014001460020224A914280
:103C900001D101203FE0214A914201D103203AE0C5
:103CA0001F4A914201D1032035E01E4A914201D1C1
:103CB000032030E01C4A914201D103202BE0B1F1F6
:103CC000804F01D1012026E0184A914201D1022003
:103CD00021E0174A914201D102201CE0154A91428D
:103CE00001D1022017E00D4A914201D1032012E0D8
:103CF0000B4A914201D103200DE00F4A914201D1BC
:103D0000092008E00D4A914201D1092003E00C4A44
:103D1000914200D109207047000001400004014099
:103D200000400140004401400048014000040040C0
:103D300000080040000C004000180040001C00403B
:103D40000020004001460020012900D142E0022964
:103D500001D101203EE0042901D102203AE00829E6
:103D600001D1032036E0102901D1042032E02029BE
:103D700001D105202EE0402901D106202AE080292A
:103D800001D1072026E0B1F5807F01D1082021E094
:103D9000B1F5007F01D109201CE0B1F5806F01D1A0
:103DA0000A2017E0B1F5006F01D10B2012E0B1F548
:103DB000805F01D10C200DE0B1F5005F01D10D2035
:103DC00008E0B1F5804F01D10E2003E0B1F5004FBE
:103DD00000D10F207047000001460020164A914292
:103DE00001D1012026E0154A914201D1022021E0B3
:103DF000134A914201D104201CE0124A914201D1A0
:103E0000082017E0104A914201D1102012E00F4A19
:103E1000914201D120200DE00D4A914201D1402074
:103E200008E00C4A914201D1802003E00A4A914205
:103E300000D18815704700000000024000040240D5
:103E400000080240000C0240001002400014024032
:103E500000180240001C02400020024001460020E1
:103E6000244A914201D1012042E0234A914201D1EA
:103E700002203DE0214A914202D14FF4803037E0E8
:103E80001F4A914202D14FF4003031E01D4A914265
:103E900002D14FF480202BE0B1F1804F01D10120FD
:103EA00026E0194A914201D1022021E0174A9142AD
:103EB00001D104201CE0164A914201D1082017E0EC
:103EC000144A914201D1102012E0134A914201D1CB
:103ED00020200DE0114A914201D1402008E0104A13
:103EE000914201D1802003E00E4A914200D1881511
:103EF0007047000000000140000401400040014004
:103F00000044014000480140000400400008004017
:103F1000000C004000100040001400400018004059
:103F2000001C0040002000402DE9F04389B0074606
:103F3000884615461C46DDE9106923462A46414657
:103F40003846FFF74BFE07960020ADF81800ADF895
:103F50002000ADF81A008DF8220006A92846FFF7C8
:103F6000F9FD6020ADF804000120ADF80600701CDA
:103F7000400803900020ADF81000ADF80800ADF83F
:103F80001200ADF81400ADF81600012C08D101A9FB
:103F90002846FFF785FC08212846FFF7BFFC1FE0F5
:103FA000022C08D101A92846FFF7C2FC08212846A7
:103FB000FFF710FD14E0032C08D101A92846FFF7F4
:103FC00017FD08212846FFF763FD09E0042C07D1FF
:103FD00001A92846FFF766FD08212846FFF79EFD48
:103FE00001212846FFF734FC01212846FFF73CFC5D
:103FF0000648854202D00648854203D10121284661
:10400000FFF73EFC09B0BDE8F0830000000001406E
:104010000004014010B504466FF00400FEF754FEA2
:10402000E11704EB5171C1F3C701074A1170104643
:10403000007800EB4001C1EBC0104FF6FF7101EAC0
:10404000C0000249088010BD32000020340000206A
:1040500070B504464FF4077094FBF0F0C6B24FF40D
:10406000077094FBF0F100FB114085B205E04FF4BE
:10407000077000F02FF8701EC6B2002EF7D115B1F0
:10408000284600F027F870BD0146114A12784A43CD
:104090004FF0E0235A6100229A611A46126942F0F9
:1040A00001021A6100BF4FF0E022106900F0010226
:1040B0001AB100F48032002AF5D04FF0E0221269E4
:1040C00022F001024FF0E0231A6100229A6170474A
:1040D000320000200146114A12884A434FF0E02383
:1040E0005A6100229A611A46126942F001021A616D
:1040F00000BF4FF0E022106900F001021AB100F495
:104100008032002AF5D04FF0E022126922F001023D
:104110004FF0E0231A6100229A61704734000020BA
:104120000020174908804BF6404016490880A82017
:10413000FFF770FFFCF724FAFCF7E2FFFDF726FC1F
:10414000FEF76CFE4BF64040FEF708FEFEF720FE41
:10415000FEF7E4FB12E0FCF7F7F8FEF757F9FEF77D
:104160005DFBFEF79BFBFDF7CFF9FDF709FAFDF7C5
:1041700037FAFEF7A9F90A20FFF76AFFEBE700001C
:10418000260000202400002030B503460A46B2F580
:10419000F57F01DD4FF4F57240F6FA7454434FF4A5
:1041A000FA7594FBF5F1962B04DD4FF400744F4D36
:1041B0002C8003E04FF480644C4D2C8028292FD9AB
:1041C00000200BE044004C43484D2D88B4FBF5F42F
:1041D0004134474D25F81040441CA0B2434D2C8873
:1041E00004EBD475B0EB650FECDB404D2C8804EB91
:1041F000D475681010E04400A41C3C4D2D88641B4D
:104200004C433A4D2D88B4FBF5F40C1B4134384D2A
:1042100025F81040441CA0B2344C2488A042EADBAC
:10422000282931D80A292FD300200BE044004C4321
:104230002E4D2D88B4FBF5F45A342D4D25F8104041
:10424000441CA0B2294D2C8804EBD475B0EB650F4B
:10425000ECDB264D2C8804EBD475681010E044008C
:10426000A41C224D2D88641B4C43204D2D88B4FB8B
:10427000F5F40C1B5A341E4D25F81040441CA0B216
:104280001A4C2488A042EADB79BB00200BE04400F2
:104290004C43164D2D88B4FBF5F46934144D25F8C4
:1042A0001040441CA0B2114D2C8804EBD475B0EB27
:1042B000650FECDB0D4D2C8804EBD475681010E015
:1042C0004400A41C094D2D88641B4C43074D2D88C8
:1042D000B4FBF5F40C1B6934054D25F81040441C63
:1042E000A0B2024C2488A042EADB30BD28000020A6
:1042F0003800002030B503460A46B2F5F57F01DDEF
:104300004FF4F57240F6FA7454434FF4FA7594FB87
:10431000F5F1962B04DD4FF400744F4D2C8003E033
:104320004FF480644C4D2C8028292FD900200BE0BD
:1043300044004C43484D2D88B4FBF5F44134474DBF
:1043400025F81040441CA0B2434D2C8804EBD475D2
:10435000B0EB650FECDB404D2C8804EBD475681096
:1043600010E04400A41C3C4D2D88641B4C433A4D86
:104370002D88B4FBF5F40C1B4134384D25F8104062
:10438000441CA0B2344C2488A042EADB282931D84E
:104390000A292FD300200BE044004C432E4D2D88DA
:1043A000B4FBF5F45A342D4D25F81040441CA0B24E
:1043B000294D2C8804EBD475B0EB650FECDB264D52
:1043C0002C8804EBD475681010E04400A41C224D26
:1043D0002D88641B4C43204D2D88B4FBF5F40C1B39
:1043E0005A341E4D25F81040441CA0B21A4C2488A3
:1043F000A042EADB79BB00200BE044004C43164DA1
:104400002D88B4FBF5F46934144D25F81040441C94
:10441000A0B2114D2C8804EBD475B0EB650FECDB2A
:104420000D4D2C8804EBD475681010E04400A41CDA
:10443000094D2D88641B4C43074D2D88B4FBF5F4C2
:104440000C1B6934054D25F81040441CA0B2024CE9
:104450002488A042EADB30BD2A0000203808002072
:104460004FF04070E1EE100A7047000000000000BD
:104470000000002F000000000700070000147F1458
:104480007F1400242A7F2A12006264081323003656
:104490004955225000000503000000001C22410085
:1044A000000041221C000014083E08140008083EC9
:1044B0000808000000A060000008080808080000C4
:1044C00060600000002010080402003E5149453E93
:1044D0000000427F400000426151494600214145B1
:1044E0004B31001814127F10002745454539003C18
:1044F0004A494930000171090503003649494936E6
:1045000000064949291E00003636000000005636D4
:1045100000000008142241000014141414140000B8
:104520004122140800020151090600324959513E46
:10453000007C1211127C007F49494936003E4141FE
:104540004122007F4141221C007F49494941007FAF
:1045500009090901003E4149497A007F0808087F9E
:104560000000417F4100002040413F01007F0814CE
:104570002241007F40404040007F020C027F007FCC
:104580000408107F003E4141413E007F09090906B1
:10459000003E4151215E007F0919294600464949E4
:1045A00049310001017F0101003F4040403F001FB1
:1045B0002040201F003F4038403F00631408146330
:1045C00000070870080700615149454300007F411A
:1045D000410000552A552A55000041417F00000442
:1045E000020102040040404040400000010204007B
:1045F000002054545478007F4844443800384444E0
:10460000442000384444487F00385454541800086B
:104610007E0901020018A4A4A47C007F0804047889
:104620000000447D4000004080847D00007F102811
:1046300044000000417F4000007C04180478007CA6
:104640000804047800384444443800FC2424241826
:104650000018242418FC007C080404080048545462
:10466000542000043F444020003C4040207C001C7B
:104670002040201C003C4030403C0044281028448E
:10468000001CA0A0A07C004464544C448080808026
:10469000808000000000000000000000000000001A
:1046A00000000000000808080808080800001818A2
:1046B000000000486C241200000000000000000010
:1046C00000000000002424247F1212127F12121214
:1046D00000000000081C2A2A0A0C1828282A2A1C74
:1046E000080800000022251515152A585454542294
:1046F00000000000000C1212120A76252911916E9A
:104700000000000606040300000000000000000096
:1047100000000040201010080808080808101020A9
:1047200040000002040808101010101010080804BF
:1047300002000000000008086B1C1C6B0808000049
:10474000000000000000080808087F0808080800AA
:10475000000000000000000000000000000006064D
:1047600004030000000000000000FE000000000044
:10477000000000000000000000000000000006062D
:1047800000000000804040202010100808040402AF
:1047900002000000001824424242424242422418D1
:1047A0000000000000080E08080808080808083E75
:1047B00000000000003C4242422020100804427EDB
:1047C00000000000003C4242201820404042221CD1
:1047D0000000000000203028242422227E2020789F
:1047E00000000000007E0202021A26404042221C05
:1047F0000000000000382402021A26424242241817
:1048000000000000007E2222101008080808080896
:1048100000000000003C4242422418244242423C34
:104820000000000000182442424264584040241C0A
:104830000000000000000000181800000000181818
:104840000000000000000000000800000000000858
:104850000804000000402010080402040810204052
:1048600000000000000000007F0000007F0000004A
:10487000000000000002040810204020100804027C
:1048800000000000003C4242464020101000181872
:1048900000000000001C225A555555552D42221C7F
:1048A00000000000000808181414243C224242E7CB
:1048B00000000000001F2222221E22424242221F2C
:1048C00000000000007C4242010101010142221C63
:1048D00000000000001F2242424242424242221F88
:1048E00000000000003F4212121E12120242423F1C
:1048F00000000000003F4212121E121202020207C4
:1049000000000000003C2222010101712122221C32
:104910000000000000E7424242427E42424242E73B
:1049200000000000003E0808080808080808083EC3
:1049300000000000007C101010101010101010105B
:10494000110F0000007722120A0E0A12122222779B
:104950000000000000070202020202020202427F7F
:10496000000000000077363636362A2A2A2A2A6BBB
:104970000000000000E346464A4A52525262624733
:1049800000000000001C2241414141414141221CE4
:1049900000000000003F424242423E020202020783
:1049A00000000000001C2241414141414D53321C96
:1049B00060000000003F4242423E1212222242C7E3
:1049C00000000000007C4242020418204042423EA7
:1049D00000000000007F4908080808080808081CB3
:1049E0000000000000E74242424242424242423C52
:1049F0000000000000E74242222424141418080892
:104A000000000000006B49494949555536222222D1
:104A10000000000000E7422424181818242442E76C
:104A20000000000000772222141408080808081C5F
:104A300000000000007E2120101008040442423FC4
:104A4000000000780808080808080808080808088E
:104A5000780000000202040408080810102020203A
:104A60004040001E101010101010101010101010E8
:104A70001E0000384400000000000000000000009C
:104A80000000000000000000000000000000000026
:104A900000FF000608000000000000000000000009
:104AA0000000000000000000003C4278444242FC4C
:104AB0000000000000030202021A26424242261AA7
:104AC00000000000000000000038440202024438E8
:104AD000000000000060404040784442424264D8F8
:104AE0000000000000000000003C427E0202423C48
:104AF0000000000000F08808087E08080808083E4A
:104B00000000000000000000007C22221C023C4249
:104B1000423C000000030202023A4642424242E79F
:104B200000000000000C0C00000E08080808083EF9
:104B3000000000000030300000382020202020201D
:104B4000221E0000000302020272120A16122277CD
:104B500000000000000E0808080808080808083EC1
:104B60000000000000000000007F9292929292B735
:104B70000000000000000000003B4642424242E7C5
:104B80000000000000000000003C42424242423C63
:104B90000000000000000000001B26424242221ECE
:104BA00002070000000000000078444242424478BE
:104BB00040E000000000000000774C040404041FE3
:104BC0000000000000000000007C42023C40423E29
:104BD0000000000000000008083E0808080808302F
:104BE000000000000000000000634242424262DC1C
:104BF000000000000000000000E742242414080820
:104C0000000000000000000000EB49495555222239
:104C10000000000000000000007624181818246E20
:104C2000000000000000000000E7422424141808DF
:104C30000807000000000000007E22100808447EE3
:104C4000000000C020202020201020202020202034
:104C5000C0001010101010101010101010101010B4
:104C600010100006080808080810080808080808B6
:104C700006000C32C200000000000000000000002E
:104C80000000000000000000000000000000E0271D
:104C9000303818300C200C200C000C001800780064
:104CA000E003800F001E00380070006004600460A4
:104CB000086018303818C80F00000000000000001D
:104CC00000000000000000000000000000007E7CEA
:104CD00018181808180418061802180198019801E5
:104CE000D801B803380318071806180E180C181C3A
:104CF0001818183018307EFC00000000000000007A
:104D000000000000000000000000000000007E7CA9
:104D10001C10181018083008300C70046004600271
:104D2000C002C002C00180018001800180018001B9
:104D3000800180018001E007000000000000000009
:104D400000000000000000000000000000007E00E5
:104D50001800180018001800180018001800180093
:104D60001800180018001800180018001800184043
:104D7000184018201830FE3F00000000000000001E
:104D80000000000000000000000000000001C00161
:104D9000C001C0014001600320032003200330064E
:104DA000100610061006F80F080C080C080C0C0C66
:104DB0000418041806181F7C000000000000000002
:104DC0000000000000000000000000000000FE3FA6
:104DD0001830182018601840180018081808180C07
:104DE000F80F180C180818081800180018001840B8
:104DF000184018201830FE3F00000000000000009E
:104E00000000000000000000000000000000FE079D
:104E1000181C183818301830183018301818180C9A
:104E2000F80798031803180718061806180E180C28
:104E3000180C181C18187E780000000000000000F4
:104E40000000000000000000000000000000C0277B
:104E50006038103018200C400C400400060006009A
:104E60000600060006000600060006000C400C4086
:104E70000C2018303018C0070000000000000000AF
:104E80000000000000000000000000000001F80128
:104E9000800180018001800180018001800180010A
:104EA00080018001800180018001800180018001FA
:104EB000800180018001F81F000000000000000058
:104EC00000000000000000000000000000000000E2
:104ED000000000000000000000000000C007300CCF
:104EE000181808100C300C30FC3F0C000C000C00A3
:104EF000182018107018C007000000000000000003
:104F000000000000000000000000000000000000A1
:104F1000000000000000000000000000F003180680
:104F20000C0C0C0C000C800F700C1C0C0C0C060CE8
:104F3000060C064C0C4FF838000000000000000082
:104F40000000000000000000000000000000000061
:104F50000000000000000000000010001E0FD81824
:104F600038301830183018301830183018301830E1
:104F70001830183018307EFC0000000000000000DF
:104F8000000000000000000000000000000080039E
:104F9000800380030000000000000001F801800190
:104FA00080018001800180018001800180018001F9
:104FB000800180018001F81F000000000000000057
:104FC00000000000000000000000000000000000E1
:104FD000000000000000000000000000C077306CFE
:104FE00010181818181818181018300CF007180096
:104FF0001800F00FF03F08700C600C600C6038383F
:10500000E00F0000000000000000000000000000B1
:105010000000000000000000000000000000000090
:105020000000000000000000000000000000000080
:105030000000000000000000000000000000000070
:10504000000000006450000800000020380000004C
:10505000C40100089C5000083800002060160000C1
:10506000E001000800000000000000000000000057
:105070000000000000000000000000000000000030
:105080000000000000000000000000000000000020
:0C50900000000000000000000000000014
:040000050800018965
:00000001FF
