:020000040800F2
:1000000088060020290200084D1B0008DD0F0008AB
:10001000491B000885060008912300080000000025
:10002000000000000000000000000000591C000853
:100030008906000800000000C91B0008DD20000838
:10004000430200084302000843020008430200087C
:100050004302000843020008A50600088D070008B7
:1000600031080008C90800084D09000843020008CB
:10007000430200084302000843020008430200084C
:10008000430200084302000843020008430200083C
:10009000430200084302000843020008F109000877
:1000A000430200084302000843020008430200081C
:1000B000430200084302000843020008430200080C
:1000C00043020008430200084302000843020008FC
:1000D00043020008430200084302000843020008EC
:1000E000D906000843020008430200084302000842
:1000F00043020008430200084302000843020008CC
:1001000043020008430200084302000843020008BB
:1001100043020008430200084302000843020008AB
:10012000430200084302000843020008430200089B
:10013000430200084302000843020008430200088B
:10014000430200084302000843020008430200087B
:10015000430200084302000843020008430200086B
:10016000430200084302000843020008430200085B
:10017000430200084302000843020008430200084B
:10018000430200084302000800F002F800F03CF8C7
:100190000AA090E8000C82448344AAF10107DA45E2
:1001A00001D100F031F8AFF2090EBAE80F0013F0F8
:1001B000010F18BFFB1A43F0010318474C2500003C
:1001C0006C250000103A24BF78C878C1FAD85207CD
:1001D00024BF30C830C144BF04680C6070470000C1
:1001E0000023002400250026103A28BF78C1FBD840
:1001F000520728BF30C148BF0B6070471FB502F0DF
:1002000069F91FBD10B510BD00F031F81146FFF7B8
:10021000F5FF02F045F900F04FF803B4FFF7F2FFE5
:1002200003BC00F057F80000094880470948004720
:10023000FEE7FEE7FEE7FEE7FEE7FEE7FEE7FEE796
:10024000FEE7FEE704480549054A064B70470000F3
:10025000E1200008890100088800002088060020AD
:10026000880200208802002070477047704775465A
:1002700000F02CF8AE4605006946534620F0070012
:10028000854618B020B5FFF7DDFFBDE820404FF0F0
:1002900000064FF000074FF000084FF0000B21F070
:1002A0000701AC46ACE8C009ACE8C009ACE8C0093D
:1002B000ACE8C0098D46704710B50446AFF3008026
:1002C0002046BDE81040FFF7A8BF00000048704777
:1002D0002800002001491820ABBEFEE726000200DE
:1002E0007047000010B5094800780949097888422C
:1002F0000AD00A2002F06CF805480078034908701B
:100300000348007801F0CAFC10BD00000E00002078
:10031000000000201CB50121202001F07DFC3020D0
:10032000009001208DF8040000208DF806000320C5
:100330008DF8050001208DF807006946044800F09B
:1003400007FC0120034908600349C1F894021CBD61
:100350000014024090824242008042420021124A30
:1003600011601249096821F44061104A1160114678
:10037000096841F48061116000210D4AC2F89412AD
:10038000002001E0411CC8B21428FBDB0121064A11
:100390001160002001E0411CC8B21428FBDB0021E1
:1003A000014A1160704700009082424200140240EE
:1003B000008042420021104A11601049096821F46E
:1003C00040610E4A11601146096841F48061116074
:1003D000002001E0411CC8B21428FBDB0121064AC1
:1003E0001160002001E0411CC8B21428FBDB002191
:1003F000014A11607047000090824242001402409E
:100400001249096821F44061104A116011460968D7
:1004100041F48061116001210D4A11600D4AC2F85A
:100420009012002001E0411CC8B23228FBDB002101
:10043000074A1160002001E0411CC8B23228FBDBF2
:100440000021034A121F116070470000001402408F
:1004500094824242008042421249096821F440617C
:10046000104A11601146096841F480611160002151
:100470000D4A11600D4AC2F89012002001E0411CA3
:10048000C8B23228FBDB0121074A121F1160074A5C
:10049000C2F89412002001E0411CC8B23228FBDBF4
:1004A00070470000001402409482424200804242A1
:1004B00010B5002400231748006820F44060154957
:1004C000086008460068086001201349086000BF02
:1004D00001E0581CC3B2142BFBDB01200E49091F9D
:1004E0000860002301E0581CC3B2142BFBDB07E0BB
:1004F000601CC4B2FA2C03DDFFF7AEFF012010BD73
:100500000548803800680028F2D10349091F0860B7
:1005100000BFF4E7001402409482424210B5FFF796
:10052000F9FE10BD30B50446FFF76AFFA02000F0C9
:100530004FF8FFF7BDFF204600F04AF8FFF7B8FF7D
:10054000FFF75EFFA12000F043F8FFF7B1FF0020A6
:1005500000F006F80546FFF77FFF284630BD000093
:1005600070B505461748006820F4406015490860DA
:1005700008460068086000261AE00020124908605A
:10058000002301E0581CC3B2142BFBDB01200E49F1
:1005900008606006040E0D48D0F814022044C4B26E
:1005A000002301E0581CC3B2142BFBDB701CC6B245
:1005B000082EE2DB15B1FFF7D1FE01E0FFF7FAFEEE
:1005C000204670BD001402409082424200804242A8
:1005D00010B50146194B1B6823F44063174C236088
:1005E00023461B6843F4806323600023144C23607C
:1005F00000221FE0CB09124C241D23604B06190E6C
:10060000002001E0431CD8B21428FBDB01230C4C72
:100610002360002001E0431CD8B21428FBDB002338
:10062000074C2360002001E0431CD8B21428FBDBF8
:10063000531CDAB2082ADDDB10BD000000140240B2
:100640009082424270B506460C46FFF7D9FEA020C4
:10065000FFF7BEFFFFF72CFF3046FFF7B9FFFFF7AC
:1006600027FF2046FFF7B4FFFFF722FFFFF7F4FE56
:10067000002500E06D1C02488542FBD370BD0000E0
:1006800040420F0000BFFEE77047002007E0002156
:1006900001E04A1CD1B21429FBDB421CD0B2502825
:1006A000F5DB704710B5012000F0FCF970B1FFF7E1
:1006B000ECFF0748006818B901200649087002E0FD
:1006C000002004490870012000F0E6F910BD000088
:1006D000008241420C00002010B54FF4006000F091
:1006E000E1F9002849D0FFF7D0FF2448006801282D
:1006F00014D123480088B0F5967F04DB4FF4967040
:100700001F49088004E01E4800880A301C49088000
:100710001C480078401C1B4908700CE018480088F1
:10072000322803DC32201649088004E0144800888F
:100730000A381349088012480488E01704EB106057
:10074000C0F307210520FFF77DFF0D480488E0175F
:1007500004EB10600012A4EB0020C1B20620FFF7EA
:1007600071FF074801880848008800F0A1FF4FF496
:10077000006000F091F9FFF788FF10BD30024042A1
:10078000040000200C0000200600002010B502200C
:1007900000F088F9002843D0FFF777FF2148006870
:1007A00001280FD120480088B0F5FA7F04DB4FF410
:1007B000FA701D49088012E01B4800880A301A4967
:1007C00008800CE018480088002803DC0020164947
:1007D000088004E0144800880A3813490880124849
:1007E0000488E01704EB1060C0F307210320FFF733
:1007F00029FF0D480488E01704EB10600012A4EBF9
:100800000020C1B20420FFF71DFF084801880648F8
:10081000008800F04DFF022000F03EF9FFF735FFA1
:1008200010BD00001002424206000020040000201B
:1008300010B5042000F036F900283FD0FFF725FF5F
:100840001F48006801280DD11E480088C82803DB16
:10085000C8201C49088012E01A4800880A3019494B
:1008600008800CE017480088282803DC2820154958
:10087000088004E0134800880A38124908801148AB
:100880000488E01704EB1060C0F307210120FFF794
:10089000D9FE0C480488E01704EB10600012A4EBAA
:1008A0000020C1B20220FFF7CDFE0648008800F00C
:1008B0005FFE042000F0F0F8FFF7E7FE10BD000037
:1008C0000C0242420200002010B5FFF7DEFE1C4879
:1008D000006801282ED11B48006801280DD11A4854
:1008E0000078FF2803DBFF201749087012E0164844
:1008F0000078401C144908700CE013480078002868
:1009000003DC00201049087004E00F480078401E06
:100910000D4908700C4801780020FFF793FE0A4843
:10092000007800F087FD00BF054800680128FBD073
:10093000FFF7ABFE082000F0AFF8FFF7A6FE10BDF2
:100940000C824242080242420000002010B51020F2
:1009500000F0A8F8002843D0FFF797FE2148006870
:1009600001280FD120480088B0F5967F04DB4FF4B2
:1009700096701D49088012E01B4800880A301A4909
:1009800008800CE018480088322803DC3220164921
:10099000088004E0144800880A3813490880124887
:1009A0000488E01704EB1060C0F307210920FFF76B
:1009B00049FE0D480488E01704EB10600012A4EB18
:1009C0000020C1B20A20FFF73DFE07480188074812
:1009D000008800F04FFF102000F05EF8FFF755FE92
:1009E00010BD000014024342080000200A0000204D
:1009F00010B54FF4807000F055F8002844D0FFF790
:100A000044FE2248006801280FD121480088B0F533
:100A1000FA7F04DB4FF4FA701D49088012E01C488D
:100A200000880A301A4908800CE01948008800281C
:100A300003DC00201649088004E0154800880A38C5
:100A40001349088012480488E01704EB1060C0F3D3
:100A500007210720FFF7F6FD0D480488E01704EB97
:100A600010600012A4EB0020C1B20820FFF7EAFDDD
:100A7000084801880648008800F0FCFE4FF48070AA
:100A800000F00AF8FFF701FE10BD00002402414209
:100A90000A0000200800002001490860704700009B
:100AA000143C014001460020034A12680A400AB182
:100AB000012000E000207047143C01400021234940
:100AC0008279002A3AD00A46126803689A430B4694
:100AD0001A600A1D126803689A430B1D1A60027996
:100AE00011440A6803681A430A60184A08321268F7
:100AF00003689A43154B08331A601A1D126803687D
:100B00009A43124B0C331A604279102A0ED11A1FE5
:100B1000126803681A430D4B08331A601A1D1268D5
:100B200003681A43094B0C331A600DE007494279F8
:100B300011440A6803681A430A6005E00279114407
:100B40000A6803689A430A6070470000003C01404D
:100B5000F0B50A4600210023002400BF3DE0012536
:100B600005FA01F3156805EA03049C4234D10568CF
:100B70004F000326BE40B543056015794E00B540D1
:100B80000668354305601579012D02D01579022DCF
:100B900016D185684F000326BE40B5438560557960
:100BA0004E00B540866835438560456801268E4015
:100BB000B5434560456896798E40B6B23543456089
:100BC000C5684F000326BE40B543C560D5794E00C9
:100BD000B540C6683543C560491C1029BFD3F0BD78
:100BE000F0B5002300244D07ED0E02FA05F3CE10F8
:100BF00000F1200555F826504E07F70E0F26BE408F
:100C0000B543CF1000F1200646F82750CE1000F172
:100C1000200555F8265045EA0304CE1000F12005C2
:100C200045F82640F0BD41837047018370470000BE
:100C300000B585B00121402000F0EEFF03200390B5
:100C400001208DF8100000208DF8120003208DF88F
:100C5000110001208DF8130003A9DA48FFF778FF8F
:100C60000121102000F0D8FF4FF4C0700390012044
:100C70008DF8100000208DF8120003208DF811006F
:100C800001208DF8130003A9CF48FFF761FF012170
:100C9000042000F0C1FFC020039001208DF8100057
:100CA00000208DF8120003208DF8110001208DF82E
:100CB000130003A9C548FFF74BFF0121082000F0EE
:100CC000ABFF4FF44040039001208DF8100000204E
:100CD0008DF8120003208DF8110001208DF813000B
:100CE00003A9BB48FFF734FF0121402000F094FF27
:100CF000CC20039001208DF8100000208DF8120008
:100D000003208DF8110001208DF8130003A9AD48D0
:100D1000FFF71EFF4FF48060039001208DF8100054
:100D200000208DF8120003208DF8110001208DF8AD
:100D3000130003A9A348FFF70BFF4FF48061A148FC
:100D4000FFF773FF0121202000F066FF4FF4707061
:100D5000039001208DF8100000208DF81200032070
:100D60008DF8110001208DF8130003A99948FFF7B1
:100D7000EFFE0121084600F04FFF4FF4C0500390F2
:100D800000208DF8100003208DF8110002208DF84E
:100D9000130003A99048FFF7DBFE0121042000F0B7
:100DA0003BFF4FF44070039000208DF810000320AB
:100DB0008DF8110002208DF8130003A98348FFF776
:100DC000C7FE0121102000F027FF1C200390002007
:100DD0008DF8100003208DF8110002208DF813000B
:100DE00003A97948FFF7B4FE0121202000F014FF89
:100DF0000E20039000208DF8100003208DF81100C4
:100E000002208DF8130003A97248FFF7A1FE01210B
:100E1000402000F001FF3020039000208DF81000EA
:100E200003208DF8110002208DF8130003A96548F6
:100E3000FFF78EFE0121880300F0FEFE0B2100204B
:100E400000F00CFF0821022000F008FF012105201E
:100E500000F004FF0221052000F000FF032105201F
:100E600000F0FCFE0421062000F0F8FE02200190B4
:100E700000208DF8080008208DF8090001208DF869
:100E80000A0001A8FFF71AFE07208DF800000220D3
:100E90008DF801008DF8020001208DF803006846EE
:100EA00000F056FE0420019000208DF80800082074
:100EB0008DF8090001208DF80A0001A8FFF7FEFD5A
:100EC00008208DF8000002208DF801008DF8020046
:100ED00001208DF80300684600F03AFE08200190DA
:100EE00000208DF8080008208DF8090001208DF8F9
:100EF0000A0001A8FFF7E2FD09208DF8000002209A
:100F00008DF801008DF8020001208DF8030068467D
:100F100000F01EFE1020019000208DF8080008202F
:100F20008DF8090001208DF80A0001A8FFF7C6FD21
:100F30000A208DF8000002208DF801008DF80200D3
:100F400001208DF80300684600F002FE4FF4807027
:100F5000019000208DF8080008208DF8090001207C
:100F60008DF80A0001A8FFF7A9FD17208DF80000F1
:100F700002208DF801008DF8020001208DF8030099
:100F8000684600F0E5FD4FF40060019000208DF808
:100F9000080008208DF8090001208DF80A0001A83A
:100FA000FFF78CFD28208DF8000002208DF801004D
:100FB0008DF8020001208DF80300684600F0C8FD9E
:100FC00005B000BD001802400010024000080240B9
:100FD000000C0240001402400000024000BFFEE787
:100FE0002DE9F04F91B005260527B046B146B2462F
:100FF000B346052010900F90A3A103C9CDE90D01C0
:10100000A3A103C9CDE90B01A3A103C9CDE909013E
:10101000A3A103C9CDE90701A3A000680690A3A17D
:1010200003C9CDE90401A3A103C9CDE90201A3A12C
:1010300003C9CDE90001002518E0062101FB056187
:10104000C8B2002100F0E2F900240BE00DA9495DCF
:1010500001EB41019B4A02EB4101085D00F030FDCC
:10106000601CC4B2062CF1DB681CC5B2062DE4DBA3
:10107000002518E0062101FB0571C8B2012100F02E
:10108000C5F900240BE00BA9495D01EB41018D4A34
:1010900002EB4101085D00F013FD601CC4B2062C98
:1010A000F1DB681CC5B2062DE4DB002518E0062143
:1010B00001FB0581C8B2022100F0A8F900240BE071
:1010C00009A9495D01EB41017E4A02EB4101085D3E
:1010D00000F0F6FC601CC4B2062CF1DB681CC5B243
:1010E000062DE4DB002518E0062101FB0591C8B2BE
:1010F000032100F08BF900240BE007A9495D01EB07
:101100004101704A02EB4101085D00F0D9FC601C0E
:10111000C4B2062CF1DB681CC5B2062DE4DB002549
:1011200019E006220F9902FB0511C8B2042100F054
:101130006DF900240BE006A9495D01EB4101614A0C
:1011400002EB4101085D00F0BBFC601CC4B2062C40
:10115000F1DB681CC5B2042DE3DB002518E0062195
:1011600001FB05A1C8B2052100F050F900240BE0F5
:1011700004A9495D01EB4101524A02EB4101085DBE
:1011800000F09EFC601CC4B2062CF1DB681CC5B2EA
:10119000062DE4DB002518E0062101FB05B1C8B2ED
:1011A000062100F033F900240BE002A9495D01EBB0
:1011B0004101444A02EB4101085D00F081FC601CE2
:1011C000C4B2062CF1DB681CC5B2052DE4DB00259A
:1011D00019E00622109902FB0511C8B2072100F0A0
:1011E00015F900240BE01DF8051001EB4101354A0B
:1011F00002EB4101085D00F063FC601CC4B2062CE8
:10120000F1DB681CC5B2082DE3DB02212A2000F0C7
:10121000FDF8002406E02B49C631085D00F050FCC3
:10122000601CC4B2062CF6DB03212A2000F0EEF885
:10123000002406E02349C631085D00F041FC601C33
:10124000C4B2062CF6DB02214B2000F0DFF80024AC
:1012500006E01C49E431085D00F032FC601CC4B2B9
:10126000062CF6DB03214B2000F0D0F8002406E02A
:101270001449E431085D00F023FC601CC4B2062C64
:10128000F6DB11B0BDE8F08F21242E554D1A000079
:1012900030554C53451A000033494E45111A000091
:1012A00033494E45121A00003245441A2C41534529
:1012B000521A00002D4F44451A0000003741524E8B
:1012C000494E471ADE24000870B50646002415E092
:1012D00004F1B001C8B200F0AFFB012000F0ACFB9C
:1012E000102000F0A9FB002504E0304600F0E8FBE8
:1012F000681CC5B2802DF8DB601CC4B2082CE7DB8B
:1013000070BD000010B54FF480713E48FFF78DFCB2
:1013100002213D48FFF787FC322001F059F80221F5
:101320003948FFF782FC002000F0D7FD0A2001F0C9
:101330004FF8802000F0BFFD0A2001F049F83F205F
:1013400000F0E0FD0A2001F043F8002000F0BCFDB1
:101350000A2001F03DF8002000F014FD0A2001F001
:1013600037F8042000F08CFD0A2001F031F802204B
:1013700000F0F6FC0A2001F02BF8012000F0D4FD6B
:101380000A2001F025F8082000F08EFD0A2001F067
:101390001FF8102000F07EFD0A2001F019F8CF2080
:1013A00000F0E7FC0A2001F013F8F12000F0B3FD93
:1013B0000A2001F00DF8402000F0BDFD0A2001F0E8
:1013C00007F8002000F090FD0A2001F001F800204D
:1013D00000F091FD0A2000F0FBFF012000F07DFDF0
:1013E0000A2000F0F5FF0020FFF76EFF0A2000F052
:1013F000EFFF0021084600F009F80A2000F0E8FF9E
:1014000010BD0000001002400018024070B50446F4
:101410000D4605F1B001C8B200F00EFB102141EA03
:10142000141000F009FB04F00F0141F0010000F07E
:1014300003FB70BD2DE9F04106462A27072526E06B
:1014400007F12A01062202FB1511C8B20021FFF79D
:10145000DDFF0120A840304050B1002405E04349A1
:10146000085D00F02DFB601CC4B2062CF7DB0AE01F
:10147000002406E03D49891F085D00F021FB601C47
:10148000C4B2062CF6DB05B903E0681EC5B2002D18
:10149000D6DA00BF00215F20FFF7B8FF642096FB7B
:1014A000F0F0C5B2632E11DD00240CE005F110014F
:1014B00001EB41012D4A663A02EB4101085D00F063
:1014C000FFFA601CC4B2062CF0DB08E0002404E044
:1014D000002000F0F5FA601CC4B2062CF8DB0021F5
:1014E0006520FFF793FF642096FBF0F100FB11608D
:1014F0000A2190FBF1F0C5B2092E11DD00240CE0A9
:1015000005F1100101EB4101184A663A02EB410175
:10151000085D00F0D5FA601CC4B2062CF0DB08E0D0
:10152000002404E0002000F0CBFA601CC4B2062CBA
:10153000F8DB00216B20FFF769FF0A2096FBF0F132
:1015400000FB1160C5B200240CE005F1100101EBB5
:101550004101064A663A02EB4101085D00F0B0FA2B
:10156000601CC4B2062CF0DBBDE8F0814425000805
:101570002DE9F041054632274FF47A7095FBF0F0E3
:10158000C6B201213846FFF741FFB5F57A7F10DB7F
:1015900000240BE006F1100101EB4101434A02EB8C
:1015A0004101085D00F08CFA601CC4B2062CF1DB2E
:1015B00008E0002404E0002000F082FA601CC4B2BD
:1015C000062CF8DB4FF47A7095FBF0F100FB11501C
:1015D000642190FBF1F0C6B2B91DC8B20121FFF73A
:1015E00015FF632D10DD00240BE006F1100101EB67
:1015F00041012E4A02EB4101085D00F061FA601CD6
:10160000C4B2062CF1DB08E0002404E0002000F066
:1016100057FA601CC4B2062CF8DB642095FBF0F18D
:1016200000FB11500A2190FBF1F0C6B207F10C014A
:10163000C8B20121FFF7EAFE092D10DD00240BE0FE
:1016400006F1100101EB4101184A02EB4101085D6E
:1016500000F036FA601CC4B2062CF1DB08E000246E
:1016600004E0002000F02CFA601CC4B2062CF8DB69
:101670000A2095FBF0F100FB1150C6B207F11201F0
:10168000C8B20121FFF7C2FE00240BE006F11001F1
:1016900001EB4101054A02EB4101085D00F010FA3F
:1016A000601CC4B2062CF1DBBDE8F081DE2400082A
:1016B0002DE9F04705460E464FF032084FF0550928
:1016C000642095FBF0F0C7B202214046FFF79EFE72
:1016D000632D10DD00240BE007F1100101EB410147
:1016E000634A02EB4101085D00F0EAF9601CC4B2F4
:1016F000062CF1DB08E0002404E0002000F0E0F913
:10170000601CC4B2062CF8DB642095FBF0F100FBF2
:1017100011500A2190FBF1F0C7B208F10601C8B2DE
:101720000221FFF773FE092D10DD00240BE007F105
:10173000100101EB41014E4A02EB4101085D00F04E
:10174000BFF9601CC4B2062CF1DB08E0002404E001
:10175000002000F0B5F9601CC4B2062CF8DB0A20AA
:1017600095FBF0F100FB1150C7B208F10C01C8B2B3
:101770000221FFF74BFE00240BE007F1100101EB03
:1017800041013B4A02EB4101085D00F099F9601C00
:10179000C4B2062CF1DB642096FBF0F0C7B2022144
:1017A0004846FFF733FE632E10DD00240BE007F1FF
:1017B000100101EB41012E4A02EB4101085D00F0EE
:1017C0007FF9601CC4B2062CF1DB08E0002404E0C1
:1017D000002000F075F9601CC4B2062CF8DB642010
:1017E00096FBF0F100FB11600A2190FBF1F0C7B20B
:1017F00009F10601C8B20221FFF708FE092E10DD2B
:1018000000240BE007F1100101EB4101184A02EB43
:101810004101085D00F054F9601CC4B2062CF1DBF4
:1018200008E0002404E0002000F04AF9601CC4B283
:10183000062CF8DB0A2096FBF0F100FB1160C7B222
:1018400009F10C01C8B20221FFF7E0FD00240BE012
:1018500007F1100101EB4101054A02EB4101085D6E
:1018600000F02EF9601CC4B2062CF1DBBDE8F08755
:10187000DE2400082DE9F04705460E464FF03208F9
:101880004FF05509642095FBF0F0C7B203214046A4
:10189000FFF7BCFD632D10DD00240BE007F1100104
:1018A00001EB4101634A02EB4101085D00F008F9D8
:1018B000601CC4B2062CF1DB08E0002404E0002028
:1018C00000F0FEF8601CC4B2062CF8DB642095FB27
:1018D000F0F100FB11500A2190FBF1F0C7B208F1C2
:1018E0000601C8B20321FFF791FD092D10DD002488
:1018F0000BE007F1100101EB41014E4A02EB4101FF
:10190000085D00F0DDF8601CC4B2062CF1DB08E0D5
:10191000002404E0002000F0D3F8601CC4B2062CC0
:10192000F8DB0A2095FBF0F100FB1150C7B208F17B
:101930000C01C8B20321FFF769FD00240BE007F199
:10194000100101EB41013B4A02EB4101085D00F04F
:10195000B7F8601CC4B2062CF1DB642096FBF0F0F3
:10196000C7B203214846FFF751FD632E10DD002466
:101970000BE007F1100101EB41012E4A02EB41019E
:10198000085D00F09DF8601CC4B2062CF1DB08E095
:10199000002404E0002000F093F8601CC4B2062C80
:1019A000F8DB642096FBF0F100FB11600A2190FB4C
:1019B000F1F0C7B209F10601C8B20321FFF726FD15
:1019C000092E10DD00240BE007F1100101EB4101AD
:1019D000184A02EB4101085D00F072F8601CC4B2C5
:1019E000062CF1DB08E0002404E0002000F068F899
:1019F000601CC4B2062CF8DB0A2096FBF0F100FB59
:101A00001160C7B209F10C01C8B20321FFF7FEFC57
:101A100000240BE007F1100101EB4101054A02EB44
:101A20004101085D00F04CF8601CC4B2062CF1DBEB
:101A3000BDE8F087DE24000870B5044608250121C2
:101A40001D48FFF7F0F8012000F0DEFC69011B489B
:101A5000FFF7E9F8052000F0D7FC26E004F080004D
:101A600038B180211548FFF7E0F8012000F0CCFCE8
:101A700006E080211148FFF7D6F8012000F0C4FCF1
:101A80004FF480710D48FFF7D0F8032000F0BCFC44
:101A90004FF480710948FFF7C6F8012000F0B4FC4C
:101AA0006006040E012000F0AFFC281EA5F1010124
:101AB000CDB2D3D170BD000000180240001002402A
:101AC00070B50446082501211D48FFF7AEF8012036
:101AD00000F09AFC69011B48FFF7A5F8052000F00B
:101AE00093FC26E004F0800038B180211548FFF710
:101AF0009CF8012000F088FC06E080211148FFF7E7
:101B000092F8012000F080FC4FF480710D48FFF73F
:101B10008CF8032000F078FC4FF480710948FFF73F
:101B200082F8012000F070FC6006040E012000F035
:101B30006BFC281EA5F10101CDB2D3D170BD000010
:101B4000001802400010024000BFFEE7704700008E
:101B500070B5002100230F22C4781CB3174C2468F1
:101B600004F4E064C4F5E064C4F30721C1F10404A3
:101B7000E3B20A4144789C40E1B2847814402143A6
:101B80000C07210E0E4C05786155047804F01F05F2
:101B90000124AC4005786D11AD0005F1E025C5F8D4
:101BA000004109E0047804F01F050124AC40054D14
:101BB0000678761145F8264070BD00000CED00E077
:101BC00000E400E080E100E07047000010B50D483F
:101BD00000880D490988884213D00A2000F0F8FBDC
:101BE000094800880749088008460088074991FB92
:101BF000F0F0401E0649088000210648008800F0E9
:101C0000A3FA10BD100000200200002020480100AF
:101C10001E0000202200002029B1064A126802435B
:101C2000044B1A6004E0034A12688243014B1A60B5
:101C3000704700003038024029B1064A126802435A
:101C4000044B1A6004E0034A12688243014B1A6095
:101C500070470000443802407047000030B5002251
:101C60008B071C0F0F2303FA04F20B4B8C1053F855
:101C700024309343084C8D1044F8253023468C10B3
:101C800053F824308C07240F00FA04F42343024C49
:101C90008D1044F8253030BD0838014000F00101B6
:101CA00019B101212B4A116002E00021294A11607B
:101CB00000F0020121B10121264A121F116003E048
:101CC0000021244A121F116000F0040119B1012102
:101CD000214A116002E000211F4A116000F0080152
:101CE00021B101211C4A121F116003E000211A4A90
:101CF000121F116000F0100121B10121164A103AA3
:101D0000116003E00021144A103A116000F0200134
:101D100021B10121104A143A116003E000210E4A5A
:101D2000143A116000F0400119B101210B4A116011
:101D300002E00021094A116000F0800121B1012177
:101D4000064A121F116003E00021044A121F1160AD
:101D5000704700009C0241429C024342BC824142C7
:101D600010B504462020FFF767FE2046FFF764FE0B
:101D700010BD10B504468120FFF75EFE2046FFF738
:101D80005BFE10BD10B5044644F04000FFF754FE62
:101D900010BD00000CB50020019000903448006890
:101DA00040F480303249086000BF3148006800F4D8
:101DB000003000900198401C0190009818B90198DB
:101DC000B0F5A04FF1D12A48006800F4003010B1FE
:101DD0000120009001E0002000900098012846D1E9
:101DE00023484030006840F080502149403108606D
:101DF0002048006840F440401E4908601C480830F4
:101E000000681B49083108600846006840F400403B
:101E100008600846006840F4A05008601648091F92
:101E20000860081F006840F08070091F086000BF4C
:101E30000F48006800F000700028F9D040F20570EB
:101E40000E4908600A480830006820F0030008497D
:101E5000083108600846006840F00200086000BFD2
:101E600003480830006800F00C000828F8D10CBDC9
:101E7000003802400070004008544007003C024017
:101E800010B504468D20FFF7D7FD44F01000FFF792
:101E9000D3FD10BD10B50446DA20FFF7CDFD44F0A8
:101EA0000200FFF7C9FD10BD10B5044644F0C000A4
:101EB000FFF7C2FD10BD10B50446D520FFF7BCFDED
:101EC0002046FFF7B9FD10BD10B50446D320FFF73B
:101ED000B3FD2046FFF7B0FD10BD10B5044644F039
:101EE000AE00FFF7A9FD10BD10B5044644F0A400F4
:101EF000FFF7A2FD10BD10B5044644F0A600FFF7A1
:101F00009BFD10BD10B50446A820FFF795FD2046A7
:101F1000FFF792FD10BD10B50446D920FFF78CFDE8
:101F20002046FFF789FD10BD10B5044644F0A0001F
:101F3000FFF782FD10BD10B50446DB20FFF77CFDE6
:101F40002046FFF779FD10BD10B5FFF749F80020D6
:101F5000FEF7E8FA4C49087008460078FFF76AFA7D
:101F6000494800784949087047480078FFF796FECD
:101F70000120FEF7D7FA46490880084600884FF648
:101F8000FF7101EA0020424908800220FEF7CAFAE8
:101F90003F49098808443E490880084600883D4971
:101FA0000880084600883C4991FBF0F0401E3B4900
:101FB000088000213A48008800F0C6F834480088BC
:101FC000FFF7D6FA0320FEF7ADFA36490880084637
:101FD00000884FF6FF7101EA002032490880042092
:101FE000FEF7A0FA2F49098808442E4908800520E9
:101FF000FEF798FA2C490880084600884FF6FF71D2
:1020000001EA0020284908800620FEF78BFA2649BD
:102010000988084424490880084601882148008826
:10202000FFF746FB0720FEF77DFA204908800846A7
:1020300000884FF6FF7101EA00201C490880082043
:10204000FEF770FA194909880844184908800920E0
:10205000FEF768FA16490880084600884FF6FF71B7
:1020600001EA0020124908800A20FEF75BFA1049B5
:10207000098808440E490880084601880B480088F2
:10208000FFF7F8FB10BD0000000000200E0000204C
:102090000200002010000020204801001E00002047
:1020A0002200002006000020040000200A0000207A
:1020B00008000020042808D14FF0E021096941F010
:1020C00004014FF0E022116107E04FF0E0210969BF
:1020D00021F004014FF0E0221161704770470000C9
:1020E00010B51548006840F47000134908601348A3
:1020F000006840F001001149086000200F490831D4
:1021000008600E4800680E4908400C4908600D48F8
:10211000091D0860081F006820F48020091F08605E
:10212000002006490C310860FFF734FE4FF00060D4
:1021300001498039086010BD88ED00E00038024098
:10214000FFFFF6FE1030002430B58BB004460D467C
:1021500001210846FFF770FD01210846FFF75CFDED
:10216000012209212348FEF73BFD4FF4007009903E
:1021700002208DF8280003208DF8290000208DF81A
:102180002A0001208DF82B0009A91A48FEF7E0FC6F
:10219000A8B2ADF818000020ADF81A000794ADF809
:1021A000200006A9144800F0B1F86020ADF8040042
:1021B0000120ADF806000220ADF81000601C0121DE
:1021C000C1EB5000039001A90B4800F03FF8082133
:1021D000094800F08DF80121074800F00FF80121AF
:1021E000054800F017F80121034800F01FF80BB074
:1021F00030BD0000000002400000014021B1028813
:1022000042F08002028004E002884FF67F731A4099
:102210000280704721B1028842F00102028004E08E
:1022200002884FF6FE731A400280704731B1B0F851
:10223000442042F40042A0F8442005E0B0F84420D5
:10224000C2F30E02A0F844207047000070B50024CD
:1022500000220023058C4FF6EF7635400584028C72
:102260008388048B48F6FF752C404FF6FF452C40C1
:102270000D884FF6FF7606EA05252C434FF6DF75ED
:102280002A408D8906EA05152A434D8806EA051578
:102290002A43154DA84202D0144DA8421DD14FF635
:1022A0007F752A40CD894FF6FF7606EA05152A4349
:1022B0004FF6BF752A408D8806EA05152A434FF66A
:1022C000FF352B404FF2FF752B400D8A06EA85053E
:1022D0002B434D8A06EA85052B43838004838D6852
:1022E0008563028470BD00000000014000040140CD
:1022F0000A460021018B4FF2FF7319404FF6FF731E
:1023000003EA022319430183704700000022028878
:10231000184B98420ED0184B98420BD0B0F1804F1A
:1023200008D0164B984205D0154B984202D0154B59
:10233000984204D14FF68F731A404B881A43124BC0
:10234000984207D0114B984204D04FF6FF431A40F1
:102350000B891A4302804B68C3620B880385054BC7
:10236000984202D0044B984201D18B7A0386012314
:1023700083827047000001400004014000040040D7
:1023800000080040000C0040001000400014004015
:1023900000BFFEE710B504466FF00400FFF78AFEA9
:1023A000E11704EB5171C1F3C701074A11701046E0
:1023B000007800EB4001C1EBC0104FF6FF7101EA5D
:1023C000C0000249088010BD240000202600002023
:1023D00070B504464FF4077094FBF0F0C6B24FF4AA
:1023E000077094FBF0F100FB114085B205E04FF45B
:1023F000077000F02FF8701EC6B2002EF7D115B18D
:10240000284600F027F870BD0146114A12784A4369
:102410004FF0E0235A6100229A611A46126942F095
:1024200001021A6100BF4FF0E022106900F00102C2
:102430001AB100F48032002AF5D04FF0E022126980
:1024400022F001024FF0E0231A6100229A617047E6
:10245000240000200146114A12884A434FF0E0232D
:102460005A6100229A611A46126942F001021A6109
:1024700000BF4FF0E022106900F001021AB100F431
:102480008032002AF5D04FF0E022126922F00102DA
:102490004FF0E0231A6100229A6170472600002065
:1024A000A820FFF777FFFEF739F8FEF7C1FBFEF72C
:1024B00029FFFEF795FDFFF747FD4FF480610448C3
:1024C000FEF7B1FB03E0FDF70DFFFFF77FFBFAE737
:1024D000001802404FF04070E1EE100A7047000013
:1024E000000000000000002F0000000007000700AF
:1024F00000147F147F1400242A7F2A1200626408CB
:102500001323003649552250000005030000000047
:102510001C224100000041221C000014083E081447
:102520000008083E0808000000A060000008080835
:102530000808000060600000002010080402003E4F
:102540005149453E0000427F4000004261514946EA
:10255000002141454B31001814127F1000274545DA
:102560004539003C4A4949300001710905030036EC
:102570004949493600064949291E000036360000FF
:102580000000563600000008142241000014141404
:1025900014140000412214080002015109060032FF
:1025A0004959513E007C1211127C007F494949363D
:1025B000003E41414122007F4141221C007F4949A8
:1025C0004941007F09090901003E4149497A007FDC
:1025D0000808087F0000417F4100002040413F0182
:1025E000007F08142241007F40404040007F020CE1
:1025F000027F007F0408107F003E4141413E007F82
:1026000009090906003E4151215E007F091929464A
:102610000046494949310001017F0101003F404026
:10262000403F001F2040201F003F4038403F0063D4
:1026300014081463000708700807006151494543F6
:1026400000007F41410000552A552A5500004141B4
:102650007F000004020102040040404040400000AE
:1026600001020400002054545478007F4844443848
:1026700000384444442000384444487F00385454CF
:10268000541800087E0901020018A4A4A47C007F4D
:10269000080404780000447D4000004080847D00F0
:1026A000007F102844000000417F4000007C041897
:1026B0000478007C0804047800384444443800FC62
:1026C000242424180018242418FC007C080404087E
:1026D00000485454542000043F444020003C4040F3
:1026E000207C001C2040201C003C4030403C00442A
:1026F00028102844001CA0A0A07C004464544C4432
:102700008080808080800000282700080000002052
:1027100028000000C40100085027000828000020FD
:1027200060060000E001000800000000000000005A
:102730000000000000000000000000000000000099
:102740000000000000000000000000000000000089
:040000050800018965
:00000001FF
